:100000000C942C000C9449000C9449000C94490069
:100010000C9449000C9449000C9449000C9449003C
:100020000C9449000C9449000C9449000C9449002C
:100030000C9449000C9449000C9449000C9449001C
:100040000C9449000C9449000C9449000C94140140
:100050000C94490090007E0111241FBECFE5D4E02E
:10006000DEBFCDBF20E0A0E6B0E001C01D92A93AFE
:10007000B207E1F710E0CCE2D0E004C02197FE0126
:100080000E948201CA32D107C9F70E9479000C94FC
:1000900088010C94000080916000909161000097AD
:1000A00019F0019749F00895DE9A81E090E090936D
:1000B0006100809360000895DE98109261001092B4
:1000C000600008958091620090916300009719F09C
:1000D000019749F00895DD9A81E090E090936300E4
:1000E000809362000895DD98109263001092620080
:1000F000089520E044E650E062E670E088EA90E08F
:100100000E94BD0021E044EF51E06BE470E088EA1A
:1001100090E00E94BD0088EA90E00E94F400FBCFCE
:10012000D59AD69A089580E090E0FC0123E0EE0F86
:10013000FF1F2A95E1F7EC59FF4F118210821382BD
:1001400012821582148216821782019688309105D8
:1001500061F71092A4001092A5001092A6001092D0
:10016000A70083B7886083BF8FEF8CBF83E083BF16
:1001700089B7826089BF7894089580E090E0EFEFBE
:10018000DC0133E0AA0FBB1F3A95E1F7AC59BF4F32
:100190000D90BC91A02DAB2B09F4E82F019688306F
:1001A000910571F7EF3F71F088E0E802F00111244A
:1001B000EC59FF4F7183608353834283558344839B
:1001C000168227830895F89488E0689FF00111242F
:1001D000EC59FF4F8681882319F08681168201C071
:1001E00080E0789490E008957C01C0E088E0C89FAA
:1001F000800111240C591F4FD80117968C91882328
:1002000079F06C2FC7010E94E300892B49F0F801B7
:1002100080819181892B21F00190F081E02D099559
:10022000CF5FC83018F3E1CF1F920F920FB60F9235
:1002300011242F933F934F935F936F937F938F93EB
:100240009F93AF93BF93CF93DF93EF93FF93C0E060
:10025000D0E0CE0123E0880F991F2A95E1F7FC0139
:10026000EC59FF4F24813581232B31F08481958116
:1002700001979583848318C0228133813583248339
:1002800026812F3F19F026812F5F2683FC01EC5930
:10029000FF4F8781811108C080819181892B21F0D6
:1002A0000190F081E02D09952196C830D10589F69D
:1002B0008091A4009091A500A091A600B091A70004
:1002C0000196A11DB11D8093A4009093A500A09359
:1002D000A600B093A700FF91EF91DF91CF91BF915E
:1002E000AF919F918F917F916F915F914F913F91CE
:1002F0002F910F900FBE0F901F90189588EA90E0F5
:100300000C949300EE0FFF1F0590F491E02D0994DB
:04031000F894FFCF8F
:00000001FF
