:100000000C942E000C9456000C9456000C94560040
:100010000C9456000C9456000C9456000C94560008
:100020000C9456000C9456000C9456000C945600F8
:100030000C9456000C9456000C9456000C945600E8
:100040000C9456000C9456000C9456000C94FE0030
:100050000C9456004201C503D403D80311241FBEDB
:10006000CFE5D4E0DEBFCDBF10E0A0E6B0E0E8E32E
:10007000FAE002C005900D92A838B107D9F720E048
:10008000A8E8B0E001C01D92AE3CB207E1F710E075
:10009000CDE2D0E004C02197FE010E94DC03CA3209
:1000A000D107C9F70E946D000C940F050C94000055
:1000B00008950C94D203FC0183819481009719F078
:1000C000019739F00895DD9A81E090E0948383836D
:1000D0000895DD98148213820895CF93DF93CDB7EE
:1000E000DEB72A970FB6F894DEBF0FBECDBF8AE603
:1000F00090E09F838E83D59A1A8619869A83898386
:10010000D59A1D821C8244E650E0BE016A5F7F4F93
:1001100088E890E00E94BF0044EF51E0BE016F5FAD
:100120007F4F88E890E00E94BF0088E890E00E943E
:10013000E100FBCF10BC80E489B980B5866880BD42
:100140008AB188618AB908950895E9E8F0E01182DA
:10015000108213821282158214821682379680E0F2
:10016000E13CF807A1F783B7886083BF8BE98CBFB8
:1001700083E083BF89B7826089BF78940895F8943B
:10018000E9E8F0E080E090E020813181232B81F4E8
:1001900027E0289FF001299FF00D1124E757FF4F1A
:1001A000718360835383428355834483168207C0DF
:1001B000019637968830910539F78FEF9FEF789445
:1001C0000895CF93DF93CFE8D0E0FE01369780818A
:1001D0009181009759F02881222341F01882DC0197
:1001E000ED91FC910480F581E02D09952796B0E012
:1001F000C73CDB0751F7DF91CF9108951F920F9213
:100200000FB60F9211248F939F93AF93BF93EF93E9
:10021000FF93E9E8F0E0AFE8B0E0848195810097D2
:1002200021F001979583848309C08281938195830E
:1002300084838C918F3F11F08F5F8C933796179644
:1002400080E0E13CF80749F78091C1009091C2003D
:10025000A091C300B091C4000196A11DB11D80936F
:10026000C1009093C200A093C300B093C400FF915B
:10027000EF91BF91AF919F918F910F900FBE0F9013
:100280001F90189588E890E00C94A5000F931F9399
:10029000CF93DF9300D01F92CDB7DEB78C01DC0186
:1002A000ED91FC910190F081E02D2B834A836983CD
:1002B0000995D801ED91FC910480F581E02D6981CB
:1002C000C8010995D801ED91FC910480F581E02DDC
:1002D0004A81642FC8010995D801ED91FC910480F1
:1002E000F581E02D2B81622FC8010995D801ED9190
:1002F000FC910280F381E02DC8010F900F900F90C8
:10030000DF91CF911F910F9109940F931F93CF937A
:10031000DF9300D000D0CDB7DEB78C01DC01ED91CA
:10032000FC910190F081E02D2C833B834A8369830B
:100330000995D801ED91FC910480F581E02D69814A
:10034000C8010995D801ED91FC910480F581E02D5B
:100350004A81642FC8010995D801ED91FC91048070
:10036000F581E02D3B81632FC8010995D801ED91FE
:10037000FC910480F581E02D2C81622FC801099544
:10038000D801ED91FC910280F381E02DC8010F901E
:100390000F900F900F90DF91CF911F910F910994C3
:1003A000CF92DF92EF92FF920F931F93CF93DF9341
:1003B00000D000D0CDB7DEB76C01DC01ED91FC912F
:1003C0000190F081E02D2B833C834A83698309955A
:1003D000D601ED91FC910480F581E02D6981C60183
:1003E0000995D601ED91FC910480F581E02D4A81BB
:1003F000642FC60109952B81E22E3C81F32E0E0D50
:100400001F1DD601ED91FC91E016F10649F0D701D0
:100410006D917D010480F581E02DC6010995F1CF34
:100420000280F381E02DC6010F900F900F900F9086
:10043000DF91CF911F910F91FF90EF90DF90CF90C0
:100440000994EF92FF921F93CF93DF931F92CDB742
:10045000DEB77C01162FDC01ED91FC910190F0815B
:10046000E02D49830995D701ED91FC910480F58138
:10047000E02D612FC7010995D701ED91FC91048012
:10048000F581E02D4981642FC7010995D701ED91D0
:10049000FC910190F081E02DC7010995D701ED9104
:1004A000FC91612F61600480F581E02DC701099501
:1004B000D701ED91FC910680F781E02D60E0C70146
:1004C0000995182FD701ED91FC910280F381E02D61
:1004D000C7010995812F0F90DF91CF911F91FF9058
:1004E000EF900895EF92FF920F931F93CF93DF93B6
:1004F0001F92CDB7DEB77C01162FDC01ED91FC9188
:100500000190F081E02D49830995D701ED91FC918F
:100510000480F581E02D612FC7010995D701ED9188
:10052000FC910480F581E02D4981642FC701099574
:10053000D701ED91FC910190F081E02DC701099563
:10054000D701ED91FC91612F61600480F581E02D70
:10055000C7010995D701ED91FC910680F781E02D47
:1005600061E0C7010995082F10E0102F0027D7017F
:10057000ED91FC910680F781E02D60E0C7010995BF
:10058000082BD701ED91FC910280F381E02DC7018A
:100590000995C8010F90DF91CF911F910F91FF90A6
:1005A000EF900895CF92DF92EF92FF920F931F93F7
:1005B000CF93DF9300D01F92CDB7DEB76C01F62E3C
:1005C000DC01ED91FC910190F081E02D2A833B83C9
:1005D00049830995D601ED91FC910480F581E02DC8
:1005E0006F2DC6010995D601ED91FC910480F5812E
:1005F000E02D4981642FC6010995D601ED91FC914A
:100600000190F081E02DC6010995D601ED91FC9194
:100610006F2D61600480F581E02DC60109952A8166
:10062000E22E3B81F32E0E0D1F1DD601ED91FC91A4
:10063000E016F10651F00680F781E02D61E0C60179
:100640000995F70181937F01F0CF0280F381E02DBE
:10065000C6010F900F900F90DF91CF911F910F91D6
:10066000FF90EF90DF90CF900994882321F0BF98FE
:10067000823019F00895BF9A0895C79A089500002E
:10068000000008951F93CF93DF93162FBD9880E04D
:100690000E9435030E943F03D8E0C0E0CC0F81E008
:1006A0000E9435030E943F03B599C16080E00E941B
:1006B00035030E943F03D15089F7112311F0BD9AF1
:1006C00001C0BD980E943F0381E00E9435030E9453
:1006D0003F0380E00E9435030E943F03BD980E94C3
:1006E0003F038C2FDF91CF911F910895CF93DF931C
:1006F000D62FC8E080E00E9435030E943F03D7FF59
:1007000002C0BD9801C0BD9A0E943F0381E00E94D3
:1007100035030E943F03DD0FC15061F780E00E9466
:1007200035030E943F03BD980E943F0381E00E9471
:1007300035030E943F03C6B380E00E9435030E9448
:100740003F03C5FBCC27C0F981E08C27DF91CF9117
:10075000089581E00E943503BD9881E00E94350331
:10076000BD9A80E00E943503BD980C943F0380E061
:100770000E943503BD9A81E00E943503BD9A81E055
:100780000E943503BD980C943F0384E790E090935A
:10079000C6008093C500BD9881E00E943503C598CE
:1007A000C79808950C94770489EC90E00C949A0013
:1007B00089EC90E00C94A400EE0FFF1F0590F491DB
:1007C000E02D0994CF93DF938230910510F482E0FD
:1007D00090E0E091CC00F091CD0020E030E0C0E06E
:1007E000D0E0309711F14081518148175907C0F08E
:1007F0004817590761F482819381209719F09B83F0
:100800008A832BC09093CD008093CC0026C0211505
:10081000310519F04217530718F49A01BE01DF01A0
:10082000EF010280F381E02DDCCF2115310509F1C4
:10083000281B390B2430310590F412968D919C9130
:1008400013976115710521F0FB019383828304C026
:100850009093CD008093CC00FD01329644C0FD0101
:10086000E20FF31F81939193225031092D933C9312
:100870003AC02091CA003091CB00232B41F4209143
:100880006200309163003093CB002093CA00209126
:100890006000309161002115310541F42DB73EB75C
:1008A0004091640050916500241B350BE091CA0013
:1008B000F091CB00E217F307A0F42E1B3F0B281793
:1008C000390778F0AC014E5F5F4F2417350748F0C9
:1008D0004E0F5F1F5093CB004093CA0081939193BA
:1008E00002C0E0E0F0E0CF01DF91CF9108950F93D7
:1008F0001F93CF93DF93009709F48CC0FC013297CC
:10090000138212820091CC001091CD0001151105C7
:1009100081F420813181820F931F2091CA00309190
:10092000CB002817390779F5F093CB00E093CA0084
:1009300071C0D80140E050E0AE17BF0750F41296E6
:100940002D913C911397AD012115310509F1D90184
:10095000F3CF9D01DA013383228360817181860F99
:10096000971F8217930769F4EC0128813981260FBC
:10097000371F2E5F3F4F318320838A819B81938372
:100980008283452B29F4F093CD00E093CC0042C044
:100990001396FC93EE931297ED01499159919E01A4
:1009A000240F351FE217F30771F480819181840FC2
:1009B000951F029611969C938E9382819381139634
:1009C0009C938E931297E0E0F0E0D80112968D91FF
:1009D0009C911397009719F0F8018C01F6CF8D9137
:1009E0009C9198012E5F3F4F820F931F2091CA0068
:1009F0003091CB002817390769F4309729F4109209
:100A0000CD001092CC0002C0138212821093CB0052
:100A10000093CA00DF91CF911F910F91089510E0CC
:100A2000CDE2D0E004C0FE010E94DC032196CE326C
:080A3000D107C9F7F894FFCFCC
:100A38000000CE00200000000000580059005B00B4
:100A480000000000A903B7037603420346018501AD
:080A5800D00121027202D2025A
:00000001FF
