:100000000C942F000C9457000C9457000C9457003C
:100010000C9457000C9457000C9457000C94570004
:100020000C9457000C9457000C9457000C945700F4
:100030000C9457000C9457000C9457000C945700E4
:100040000C9457000C9457000C9457000C94BB036D
:100050000C9457009E002D03250429042D0411241F
:100060001FBECFE5D4E0DEBFCDBF10E0A0E6B0E01C
:10007000E8E8F8E002C005900D92A837B107D9F77B
:1000800020E0A8E7B0E001C01D92A63CB207E1F76E
:1000900010E0CEE2D0E004C02197FE010E943104BE
:1000A000CA32D107C9F70E9487000C9437040C9418
:1000B00000008091780090917900009719F00197E5
:1000C00049F00895DE9A81E090E090937900809362
:1000D00078000895DE9810927900109278000895C3
:1000E00080917A0090917B00009719F0019749F078
:1000F0000895DD9A81E090E090937B0080937A00F0
:100100000895DD9810927B0010927A00089520E007
:1001100044E650E060E770E084EC90E00E94640305
:1001200021E044EF51E069E570E084EC90E00E944A
:10013000640384EC90E00E949B03FBCFD59AD69A8F
:10014000089510BC80E489B980B5866880BD8AB105
:1001500088618AB9089508950F931F93CF93DF9311
:1001600000D01F92CDB7DEB78C01DC01ED91FC9180
:100170000190F081E02D2B834A8369830995D80192
:10018000ED91FC910480F581E02D6981C80109950C
:10019000D801ED91FC910480F581E02D4A81642F16
:1001A000C8010995D801ED91FC910480F581E02DFD
:1001B0002B81622FC8010995D801ED91FC91028035
:1001C000F381E02DC8010F900F900F90DF91CF9138
:1001D0001F910F9109940F931F93CF93DF9300D03A
:1001E00000D0CDB7DEB78C01DC01ED91FC91019020
:1001F000F081E02D2C833B834A8369830995D801E4
:10020000ED91FC910480F581E02D6981C80109958B
:10021000D801ED91FC910480F581E02D4A81642F95
:10022000C8010995D801ED91FC910480F581E02D7C
:100230003B81632FC8010995D801ED91FC910480A1
:10024000F581E02D2C81622FC8010995D801ED912F
:10025000FC910280F381E02DC8010F900F900F9068
:100260000F90DF91CF911F910F910994CF92DF9260
:10027000EF92FF920F931F93CF93DF9300D000D0A4
:10028000CDB7DEB76C01DC01ED91FC910190F081FE
:10029000E02D2B833C834A8369830995D601ED9138
:1002A000FC910480F581E02D6981C6010995D60194
:1002B000ED91FC910480F581E02D4A81642FC60107
:1002C00009952B81E22E3C81F32E0E0D1F1DD601C8
:1002D000ED91FC91E016F10649F0D7016D917D0199
:1002E0000480F581E02DC6010995F1CF0280F381EC
:1002F000E02DC6010F900F900F900F90DF91CF91DE
:100300001F910F91FF90EF90DF90CF900994EF92A3
:10031000FF921F93CF93DF931F92CDB7DEB77C017F
:10032000162FDC01ED91FC910190F081E02D4983C5
:100330000995D701ED91FC910480F581E02D612FA5
:10034000C7010995D701ED91FC910480F581E02D5D
:100350004981642FC7010995D701ED91FC91019066
:10036000F081E02DC7010995D701ED91FC91612F36
:1003700061600480F581E02DC7010995D701ED91F9
:10038000FC910680F781E02D60E0C7010995182FE8
:10039000D701ED91FC910280F381E02DC701099511
:1003A000812F0F90DF91CF911F91FF90EF900895D3
:1003B000EF92FF920F931F93CF93DF931F92CDB7CE
:1003C000DEB77C01162FDC01ED91FC910190F081EC
:1003D000E02D49830995D701ED91FC910480F581C9
:1003E000E02D612FC7010995D701ED91FC910480A3
:1003F000F581E02D4981642FC7010995D701ED9161
:10040000FC910190F081E02DC7010995D701ED9194
:10041000FC91612F61600480F581E02DC701099591
:10042000D701ED91FC910680F781E02D61E0C701D5
:100430000995082F10E0102F0027D701ED91FC91AE
:100440000680F781E02D60E0C7010995082BD701F0
:10045000ED91FC910280F381E02DC7010995C8015F
:100460000F90DF91CF911F910F91FF90EF90089522
:10047000CF92DF92EF92FF920F931F93CF93DF9370
:1004800000D01F92CDB7DEB76C01F62EDC01ED91E6
:10049000FC910190F081E02D2A833B8349830995EB
:1004A000D601ED91FC910480F581E02D6F2DC60100
:1004B0000995D601ED91FC910480F581E02D4981EB
:1004C000642FC6010995D601ED91FC910190F08150
:1004D000E02DC6010995D601ED91FC916F2D61606B
:1004E0000480F581E02DC60109952A81E22E3B8129
:1004F000F32E0E0D1F1DD601ED91FC91E016F106B5
:1005000051F00680F781E02D61E0C6010995F70101
:1005100081937F01F0CF0280F381E02DC6010F901F
:100520000F900F90DF91CF911F910F91FF90EF905F
:10053000DF90CF900994882321F0BF98823019F082
:100540000895BF9A0895C79A08958AE000008150DF
:10055000E9F708951F93CF93DF93162FBD9880E09E
:100560000E949B020E94A502D8E0C0E0CC0F81E06F
:100570000E949B020E94A502B599C16080E00E9482
:100580009B020E94A502D15089F7112311F0BD9A58
:1005900001C0BD980E94A50281E00E949B020E94BA
:1005A000A50280E00E949B020E94A502BD980E94C5
:1005B000A5028C2FDF91CF911F910895CF93DF93E8
:1005C000D62FC8E080E00E949B020E94A502D7FFC0
:1005D00002C0BD9801C0BD9A0E94A50281E00E94A0
:1005E0009B020E94A502DD0FC15061F780E00E94CE
:1005F0009B020E94A502BD980E94A50281E00E9474
:100600009B020E94A502C6B380E00E949B020E944A
:10061000A502C5FBCC27C0F981E08C27DF91CF91E3
:10062000089581E00E949B02BD9881E00E949B0298
:10063000BD9A80E00E949B02BD980C94A50280E0C8
:100640000E949B02BD9A81E00E949B02BD9A81E0BC
:100650000E949B02BD980C94A50284E690E09093C2
:100660007D0080937C00BD9881E00E949B02C5982C
:10067000C798089580E090E0FC0123E0EE0FFF1F93
:100680002A95E1F7E058FF4F1182108213821282FF
:10069000158214821682178201968830910561F7BF
:1006A0001092C0001092C1001092C2001092C300BC
:1006B00083B7886083BF8BE98CBF83E083BF89B732
:1006C000826089BF7894089580E090E0EFEFDC01CC
:1006D00033E0AA0FBB1F3A95E1F7A058BF4F0D902A
:1006E000BC91A02DAB2B09F4E82F01968830910521
:1006F00071F7EF3F71F088E0E802F0011124E05853
:10070000FF4F7183608353834283558344831682F2
:1007100027830895F89488E0689FF0011124E05839
:10072000FF4F8681882319F08681168201C080E000
:10073000789490E008957C01C0E088E0C89F800133
:10074000112400581F4FD80117968C91882379F0F7
:100750006C2FC7010E948A03892B49F0F801808120
:100760009181892B21F00190F081E02D0995CF5FD7
:10077000C83018F3E1CF1F920F920FB60F921124D9
:100780002F933F934F935F936F937F938F939F9399
:10079000AF93BF93CF93DF93EF93FF93C0E0D0E08D
:1007A000CE0123E0880F991F2A95E1F7FC01E0585C
:1007B000FF4F24813581232B31F08481958101976E
:1007C0009583848318C022813381358324832681D5
:1007D0002F3F19F026812F5F2683FC01E058FF4F41
:1007E0008781811108C080819181892B21F001903E
:1007F000F081E02D09952196C830D10589F68091C8
:10080000C0009091C100A091C200B091C3000196B8
:10081000A11DB11D8093C0009093C100A093C200A0
:10082000B093C300FF91EF91DF91CF91BF91AF9152
:100830009F918F917F916F915F914F913F912F91F8
:100840000F900FBE0F901F90189584EC90E00C94C1
:100850003A0385EC90E00C94A10085EC90E00C94B8
:10086000AB00EE0FFF1F0590F491E02D099410E00E
:10087000CEE2D0E004C0FE010E9431042196CF32C6
:08088000D107C9F7F894FFCF7E
:100888000000000011031F03DE02AA02AC00EB0007
:0808980036018701D801380286
:00000001FF
