:100000000C942A000C9434000C9434000C943400AA
:100010000C9434000C9434000C9434000C94340090
:100020000C9434000C9434000C9434000C94340080
:100030000C9434000C9434000C9434000C94340070
:100040000C9434000C9434000C9434000C94340060
:100050000C94340011241FBECFE5D4E0DEBFCDBF29
:100060000E9436000C944F000C940000D59AD69A4A
:10007000DD98DE982FE38DE093E0215080409040A2
:10008000E1F700C00000DD9ADE9A2FE387E79BE1ED
:10009000215080409040E1F700C00000E9CFF89483
:0200A000FFCF90
:00000001FF
