:100000000C942E000C9456000C9456000C94560040
:100010000C9456000C9456000C9456000C94560008
:100020000C9456000C9456000C9456000C945600F8
:100030000C9456000C9456000C9456000C945600E8
:100040000C9456000C9456000C9456000C94220309
:100050000C945600FB0266036A036E0311241FBE54
:10006000CFE5D4E0DEBFCDBF10E0A0E6B0E0EAE02F
:10007000F7E002C005900D92A837B107D9F720E04C
:10008000A8E7B0E001C01D92AA3BB207E1F710E07B
:10009000CDE2D0E004C02197FE010E947203CA3273
:1000A000D107C9F70E9458000C9478030C94000003
:1000B000D59AD69ADD98DE982FE38DE093E0215013
:1000C00080409040E1F700C00000DD9ADE9A2FE307
:1000D00087E79BE1215080409040E1F700C000009D
:1000E000E9CF10BC80E489B980B5866880BD8AB14B
:1000F00088618AB9089508950F931F93CF93DF9372
:1001000000D01F92CDB7DEB78C01DC01ED91FC91E0
:100110000190F081E02D2B834A8369830995D801F2
:10012000ED91FC910480F581E02D6981C80109956C
:10013000D801ED91FC910480F581E02D4A81642F76
:10014000C8010995D801ED91FC910480F581E02D5D
:100150002B81622FC8010995D801ED91FC91028095
:10016000F381E02DC8010F900F900F90DF91CF9198
:100170001F910F9109940F931F93CF93DF9300D09A
:1001800000D0CDB7DEB78C01DC01ED91FC91019080
:10019000F081E02D2C833B834A8369830995D80144
:1001A000ED91FC910480F581E02D6981C8010995EC
:1001B000D801ED91FC910480F581E02D4A81642FF6
:1001C000C8010995D801ED91FC910480F581E02DDD
:1001D0003B81632FC8010995D801ED91FC91048002
:1001E000F581E02D2C81622FC8010995D801ED9190
:1001F000FC910280F381E02DC8010F900F900F90C9
:100200000F90DF91CF911F910F910994CF92DF92C0
:10021000EF92FF920F931F93CF93DF9300D000D004
:10022000CDB7DEB76C01DC01ED91FC910190F0815E
:10023000E02D2B833C834A8369830995D601ED9198
:10024000FC910480F581E02D6981C6010995D601F4
:10025000ED91FC910480F581E02D4A81642FC60167
:1002600009952B81E22E3C81F32E0E0D1F1DD60128
:10027000ED91FC91E016F10649F0D7016D917D01F9
:100280000480F581E02DC6010995F1CF0280F3814C
:10029000E02DC6010F900F900F900F90DF91CF913E
:1002A0001F910F91FF90EF90DF90CF900994EF9204
:1002B000FF921F93CF93DF931F92CDB7DEB77C01E0
:1002C000162FDC01ED91FC910190F081E02D498326
:1002D0000995D701ED91FC910480F581E02D612F06
:1002E000C7010995D701ED91FC910480F581E02DBE
:1002F0004981642FC7010995D701ED91FC910190C7
:10030000F081E02DC7010995D701ED91FC91612F96
:1003100061600480F581E02DC7010995D701ED9159
:10032000FC910680F781E02D60E0C7010995182F48
:10033000D701ED91FC910280F381E02DC701099571
:10034000812F0F90DF91CF911F91FF90EF90089533
:10035000EF92FF920F931F93CF93DF931F92CDB72E
:10036000DEB77C01162FDC01ED91FC910190F0814C
:10037000E02D49830995D701ED91FC910480F58129
:10038000E02D612FC7010995D701ED91FC91048003
:10039000F581E02D4981642FC7010995D701ED91C1
:1003A000FC910190F081E02DC7010995D701ED91F5
:1003B000FC91612F61600480F581E02DC7010995F2
:1003C000D701ED91FC910680F781E02D61E0C70136
:1003D0000995082F10E0102F0027D701ED91FC910F
:1003E0000680F781E02D60E0C7010995082BD70151
:1003F000ED91FC910280F381E02DC7010995C801C0
:100400000F90DF91CF911F910F91FF90EF90089582
:10041000CF92DF92EF92FF920F931F93CF93DF93D0
:1004200000D01F92CDB7DEB76C01F62EDC01ED9146
:10043000FC910190F081E02D2A833B83498309954B
:10044000D601ED91FC910480F581E02D6F2DC60160
:100450000995D601ED91FC910480F581E02D49814B
:10046000642FC6010995D601ED91FC910190F081B0
:10047000E02DC6010995D601ED91FC916F2D6160CB
:100480000480F581E02DC60109952A81E22E3B8189
:10049000F32E0E0D1F1DD601ED91FC91E016F10615
:1004A00051F00680F781E02D61E0C6010995F70162
:1004B00081937F01F0CF0280F381E02DC6010F9080
:1004C0000F900F90DF91CF911F910F91FF90EF90C0
:1004D000DF90CF900994882321F0BF98823019F0E3
:1004E0000895BF9A0895C79A0895000000000895DE
:1004F0001F93CF93DF93162FBD9880E00E946B026D
:100500000E947502D8E0C0E0CC0F81E00E946B022F
:100510000E947502B599C16080E00E946B020E9442
:100520007502D15089F7112311F0BD9A01C0BD9811
:100530000E94750281E00E946B020E94750280E0B9
:100540000E946B020E947502BD980E9475028C2F5A
:10055000DF91CF911F910895CF93DF93D62FC8E0FD
:1005600080E00E946B020E947502D7FF02C0BD9816
:1005700001C0BD9A0E94750281E00E946B020E9438
:100580007502DD0FC15061F780E00E946B020E948E
:100590007502BD980E94750281E00E946B020E9464
:1005A0007502C6B380E00E946B020E947502C5FB13
:1005B000CC27C0F981E08C27DF91CF91089581E0AD
:1005C0000E946B02BD9881E00E946B02BD9A80E0A0
:1005D0000E946B02BD980C94750280E00E946B0231
:1005E000BD9A81E00E946B02BD9A81E00E946B027D
:1005F000BD980C94750284E690E090937900809306
:100600007800BD9881E00E946B02C598C798089554
:10061000EDE7F0E0118210821382128215821482BB
:100620001682379680E0E53BF807A1F783B788602C
:1006300083BF8BE98CBF83E083BF89B7826089BFAA
:10064000789408951F920F920FB60F9211248F93F2
:100650009F93AF93BF93EF93FF93EDE7F0E0A3E891
:10066000B0E084819581009721F001979583848380
:1006700009C082819381958384838C918F3F11F08F
:100680008F5F8C933796179680E0E53BF80749F724
:100690008091B5009091B600A091B700B091B800DC
:1006A0000196A11DB11D8093B5009093B600A09353
:1006B000B700B093B800FF91EF91BF91AF919F91B8
:1006C0008F910F900FBE0F901F9018958CE790E0C0
:1006D0000C94080389EB90E00C94710089EB90E096
:1006E0000C947B00EE0FFF1F0590F491E02D099410
:1006F00010E0CDE2D0E004C0FE010E94720321961A
:0A070000CE32D107C9F7F894FFCFFD
:10070A0000000000DF02ED02AC0278027C00BB00B0
:08071A0006015701A8010802C5
:00000001FF
