:100000000C942F000C9457000C9457000C9457003C
:100010000C9457000C9457000C9457000C94570004
:100020000C9457000C9457000C9457000C945700F4
:100030000C9457000C9457000C9457000C945700E4
:100040000C9457000C9457000C9457000C94510ECC
:100050000C945700E90D950E3C128E149214112445
:100060001FBECFE5D4E0DEBFCDBF11E0A0E6B0E01B
:10007000E2E6FDE202C005900D92A032B107D9F789
:1000800021E0A0E2B1E001C01D92A637B207E1F77E
:1000900010E0CEE2D0E004C02197FE010E94D71408
:1000A000CA32D107C9F70E94AA0C0C94A4160C946A
:1000B00000000F931F93CF93DF9300D01F92CDB713
:1000C000DEB78C01DC01ED91FC910190F081E02D17
:1000D0002B834A8369830995D801ED91FC910480B3
:1000E000F581E02D6981C8010995D801ED91FC9158
:1000F0000480F581E02D4A81642FC8010995D8015B
:10010000ED91FC910480F581E02D2B81622FC801D7
:100110000995D801ED91FC910280F381E02DC80191
:100120000F900F900F90DF91CF911F910F91099435
:100130000F931F93CF93DF9300D000D0CDB7DEB7DE
:100140008C01DC01ED91FC910190F081E02D2C837C
:100150003B834A8369830995D801ED91FC91048022
:10016000F581E02D6981C8010995D801ED91FC91D7
:100170000480F581E02D4A81642FC8010995D801DA
:10018000ED91FC910480F581E02D3B81632FC80146
:100190000995D801ED91FC910480F581E02D2C8129
:1001A000622FC8010995D801ED91FC910280F3817D
:1001B000E02DC8010F900F900F900F90DF91CF911D
:1001C0001F910F910994CF92DF92EF92FF920F93BC
:1001D0001F93CF93DF9300D000D0CDB7DEB76C0173
:1001E000DC01ED91FC910190F081E02D2B833C83AB
:1001F0004A8369830995D601ED91FC910480F581CC
:10020000E02D6981C6010995D601ED91FC9104802C
:10021000F581E02D4A81642FC60109952B81E22EDC
:100220003C81F32E0E0D1F1DD601ED91FC91E016C1
:10023000F10649F0D7016D917D010480F581E02D33
:10024000C6010995F1CF0280F381E02DC6010F9020
:100250000F900F900F90DF91CF911F910F91FF9012
:10026000EF90DF90CF900994EF92FF921F93CF937E
:10027000DF931F92CDB7DEB77C01162FDC01ED9125
:10028000FC910190F081E02D49830995D701ED9112
:10029000FC910480F581E02D612FC7010995D701FC
:1002A000ED91FC910480F581E02D4981642FC70117
:1002B0000995D701ED91FC910190F081E02DC701E6
:1002C0000995D701ED91FC91612F61600480F58162
:1002D000E02DC7010995D701ED91FC910680F781CA
:1002E000E02D60E0C7010995182FD701ED91FC9131
:1002F0000280F381E02DC7010995812F0F90DF91D6
:10030000CF911F91FF90EF900895EF92FF920F937E
:100310001F93CF93DF931F92CDB7DEB77C01162FCB
:10032000DC01ED91FC910190F081E02D498309956C
:10033000D701ED91FC910480F581E02D612FC7017B
:100340000995D701ED91FC910480F581E02D49815B
:10035000642FC7010995D701ED91FC910190F081BF
:10036000E02DC7010995D701ED91FC91612F6160E6
:100370000480F581E02DC7010995D701ED91FC912D
:100380000680F781E02D61E0C7010995082F10E094
:10039000102F0027D701ED91FC910680F781E02D09
:1003A00060E0C7010995082BD701ED91FC9102800F
:1003B000F381E02DC7010995C8010F90DF91CF911E
:1003C0001F910F91FF90EF900895CF92DF92EF92DF
:1003D000FF920F931F93CF93DF9300D01F92CDB75F
:1003E000DEB76C01F62EDC01ED91FC910190F081FD
:1003F000E02D2A833B8349830995D601ED91FC9139
:100400000480F581E02D6F2DC6010995D601ED918F
:10041000FC910480F581E02D4981642FC601099586
:10042000D601ED91FC910190F081E02DC601099576
:10043000D601ED91FC916F2D61600480F581E02D76
:10044000C60109952A81E22E3B81F32E0E0D1F1D58
:10045000D601ED91FC91E016F10651F00680F7818E
:10046000E02D61E0C6010995F70181937F01F0CF8E
:100470000280F381E02DC6010F900F900F90DF9165
:10048000CF911F910F91FF90EF90DF90CF90099443
:100490000F931F93CF93DF9300D01F92CDB7DEB79A
:1004A0008C01DC01ED91FC910190F081E02D2B831A
:1004B0004A8369830995D801ED91FC910480F58107
:1004C000E02D6981C8010995D801ED91FC91048066
:1004D000F581E02D4A81642FC8010995D801ED917D
:1004E000FC910480F581E02D2B81622FC8010995D4
:1004F000D801ED91FC910280F381E02DC8010F90AD
:100500000F900F90DF91CF911F910F9109940F934E
:100510001F93CF93DF9300D000D0CDB7DEB78C010F
:10052000DC01ED91FC910190F081E02D2C833B8367
:100530004A8369830995D801ED91FC910480F58186
:10054000E02D6981C8010995D801ED91FC910480E5
:10055000F581E02D4A81642FC8010995D801ED91FC
:10056000FC910480F581E02D3B81632FC801099542
:10057000D801ED91FC910480F581E02D2C81622F52
:10058000C8010995D801ED91FC910280F381E02D1D
:10059000C8010F900F900F900F90DF91CF911F9196
:1005A0000F910994CF92DF92EF92FF920F931F93D6
:1005B000CF93DF9300D000D0CDB7DEB76C01DC0164
:1005C000ED91FC910190F081E02D2B833C834A83D7
:1005D00069830995D601ED91FC910480F581E02DA8
:1005E0006981C6010995D601ED91FC910480F581E0
:1005F000E02D4A81642FC60109952B81E22E3C81B2
:10060000F32E0E0D1F1DD601ED91FC91E016F106A3
:1006100049F0D7016D917D010480F581E02DC6017F
:100620000995F1CF0280F381E02DC6010F900F9064
:100630000F900F90DF91CF911F910F91FF90EF904E
:10064000DF90CF900994EF92FF921F93CF93DF93A7
:100650001F92CDB7DEB77C01162FDC01ED91FC9126
:100660000190F081E02D49830995D701ED91FC912E
:100670000480F581E02D612FC7010995D701ED9127
:10068000FC910480F581E02D4981642FC701099513
:10069000D701ED91FC910190F081E02DC701099502
:1006A000D701ED91FC91612F61600480F581E02D0F
:1006B000C7010995D701ED91FC910680F781E02DE6
:1006C00060E0C7010995182FD701ED91FC910280D8
:1006D000F381E02DC7010995812F0F90DF91CF9114
:1006E0001F91FF90EF900895EF92FF920F931F9349
:1006F000CF93DF931F92CDB7DEB77C01162FDC01BD
:10070000ED91FC910190F081E02D49830995D7018D
:10071000ED91FC910480F581E02D612FC7010995D1
:10072000D701ED91FC910480F581E02D4981642F82
:10073000C7010995D701ED91FC910190F081E02D61
:10074000C7010995D701ED91FC91612F616004808B
:10075000F581E02DC7010995D701ED91FC91068047
:10076000F781E02D61E0C7010995082F10E0102FF7
:100770000027D701ED91FC910680F781E02D60E024
:10078000C7010995082BD701ED91FC910280F381F7
:10079000E02DC7010995C8010F90DF91CF911F91FE
:1007A0000F91FF90EF900895CF92DF92EF92FF921A
:1007B0000F931F93CF93DF9300D01F92CDB7DEB777
:1007C0006C01F62EDC01ED91FC910190F081E02DA1
:1007D0002A833B8349830995D601ED91FC910480DE
:1007E000F581E02D6F2DC6010995D601ED91FC91A3
:1007F0000480F581E02D4981642FC6010995D60159
:10080000ED91FC910190F081E02DC6010995D60192
:10081000ED91FC916F2D61600480F581E02DC601A2
:1008200009952A81E22E3B81F32E0E0D1F1DD60164
:10083000ED91FC91E016F10651F00680F781E02D74
:1008400061E0C6010995F70181937F01F0CF028035
:10085000F381E02DC6010F900F900F90DF91CF91A3
:100860001F910F91FF90EF90DF90CF9009940F931D
:100870001F93CF93DF9300D01F92CDB7DEB78C01CB
:10088000DC01ED91FC910190F081E02D2B834A83F6
:1008900069830995D801ED91FC910480F581E02DE3
:1008A0006981C8010995D801ED91FC910480F58119
:1008B000E02D4A81642FC8010995D801ED91FC9182
:1008C0000480F581E02D2B81622FC8010995D801A4
:1008D000ED91FC910280F381E02DC8010F900F9003
:1008E0000F90DF91CF911F910F9109940F931F9358
:1008F000CF93DF9300D000D0CDB7DEB78C01DC0101
:10090000ED91FC910190F081E02D2C833B834A8393
:1009100069830995D801ED91FC910480F581E02D62
:100920006981C8010995D801ED91FC910480F58198
:10093000E02D4A81642FC8010995D801ED91FC9101
:100940000480F581E02D3B81632FC8010995D80112
:10095000ED91FC910480F581E02D2C81622FC8017E
:100960000995D801ED91FC910280F381E02DC80139
:100970000F900F900F900F90DF91CF911F910F91DB
:100980000994CF92DF92EF92FF920F931F93CF9330
:10099000DF9300D000D0CDB7DEB76C01DC01ED9164
:1009A000FC910190F081E02D2B833C834A83698385
:1009B0000995D601ED91FC910480F581E02D6981C6
:1009C000C6010995D601ED91FC910480F581E02DD9
:1009D0004A81642FC60109952B81E22E3C81F32EBA
:1009E0000E0D1F1DD601ED91FC91E016F10649F0A8
:1009F000D7016D917D010480F581E02DC601099537
:100A0000F1CF0280F381E02DC6010F900F900F907F
:100A10000F90DF91CF911F910F91FF90EF90DF909A
:100A2000CF900994EF92FF921F93CF93DF931F9281
:100A3000CDB7DEB77C01162FDC01ED91FC91019062
:100A4000F081E02D49830995D701ED91FC91048057
:100A5000F581E02D612FC7010995D701ED91FC913A
:100A60000480F581E02D4981642FC7010995D701E4
:100A7000ED91FC910190F081E02DC7010995D7011E
:100A8000ED91FC91612F61600480F581E02DC7013B
:100A90000995D701ED91FC910680F781E02D60E08A
:100AA000C7010995182FD701ED91FC910280F381C0
:100AB000E02DC7010995812F0F90DF91CF911F91F4
:100AC000FF90EF900895EF92FF920F931F93CF93B3
:100AD000DF931F92CDB7DEB77C01162FDC01ED91BD
:100AE000FC910190F081E02D49830995D701ED91AA
:100AF000FC910480F581E02D612FC7010995D70194
:100B0000ED91FC910480F581E02D4981642FC701AE
:100B10000995D701ED91FC910190F081E02DC7017D
:100B20000995D701ED91FC91612F61600480F581F9
:100B3000E02DC7010995D701ED91FC910680F78161
:100B4000E02D61E0C7010995082F10E0102F002764
:100B5000D701ED91FC910680F781E02D60E0C7019F
:100B60000995082BD701ED91FC910280F381E02DCE
:100B7000C7010995C8010F90DF91CF911F910F9187
:100B8000FF90EF900895CF92DF92EF92FF920F9334
:100B90001F93CF93DF9300D01F92CDB7DEB76C01C8
:100BA000F62EDC01ED91FC910190F081E02D2A837D
:100BB0003B8349830995D601ED91FC910480F58131
:100BC000E02D6F2DC6010995D601ED91FC910480B1
:100BD000F581E02D4981642FC6010995D601ED917B
:100BE000FC910190F081E02DC6010995D601ED91AF
:100BF000FC916F2D61600480F581E02DC60109959F
:100C00002A81E22E3B81F32E0E0D1F1DD601ED91A0
:100C1000FC91E016F10651F00680F781E02D61E0CD
:100C2000C6010995F70181937F01F0CF0280F3811E
:100C3000E02DC6010F900F900F90DF91CF911F9183
:100C40000F91FF90EF90DF90CF9009940F931F9337
:100C5000CF93DF9300D01F92CDB7DEB78C01DC01BC
:100C6000ED91FC910190F081E02D2B834A83698303
:100C70000995D801ED91FC910480F581E02D698101
:100C8000C8010995D801ED91FC910480F581E02D12
:100C90004A81642FC8010995D801ED91FC91048027
:100CA000F581E02D2B81622FC8010995D801ED91C6
:100CB000FC910280F381E02DC8010F900F900F90FE
:100CC000DF91CF911F910F9109940F931F93CF93B1
:100CD000DF9300D000D0CDB7DEB78C01DC01ED9101
:100CE000FC910190F081E02D2C833B834A83698342
:100CF0000995D801ED91FC910480F581E02D698181
:100D0000C8010995D801ED91FC910480F581E02D91
:100D10004A81642FC8010995D801ED91FC910480A6
:100D2000F581E02D3B81632FC8010995D801ED9134
:100D3000FC910480F581E02D2C81622FC80109957A
:100D4000D801ED91FC910280F381E02DC8010F9054
:100D50000F900F900F90DF91CF911F910F910994F9
:100D6000CF92DF92EF92FF920F931F93CF93DF9377
:100D700000D000D0CDB7DEB76C01DC01ED91FC9165
:100D80000190F081E02D2B833C834A836983099590
:100D9000D601ED91FC910480F581E02D6981C601B9
:100DA0000995D601ED91FC910480F581E02D4A81F1
:100DB000642FC60109952B81E22E3C81F32E0E0D86
:100DC0001F1DD601ED91FC91E016F10649F0D70107
:100DD0006D917D010480F581E02DC6010995F1CF6B
:100DE0000280F381E02DC6010F900F900F900F90BD
:100DF000DF91CF911F910F91FF90EF90DF90CF90F7
:100E00000994EF92FF921F93CF93DF931F92CDB778
:100E1000DEB77C01162FDC01ED91FC910190F08191
:100E2000E02D49830995D701ED91FC910480F5816E
:100E3000E02D612FC7010995D701ED91FC91048048
:100E4000F581E02D4981642FC7010995D701ED9106
:100E5000FC910190F081E02DC7010995D701ED913A
:100E6000FC91612F61600480F581E02DC701099537
:100E7000D701ED91FC910680F781E02D60E0C7017C
:100E80000995182FD701ED91FC910280F381E02D97
:100E9000C7010995812F0F90DF91CF911F91FF908E
:100EA000EF900895EF92FF920F931F93CF93DF93EC
:100EB0001F92CDB7DEB77C01162FDC01ED91FC91BE
:100EC0000190F081E02D49830995D701ED91FC91C6
:100ED0000480F581E02D612FC7010995D701ED91BF
:100EE000FC910480F581E02D4981642FC7010995AB
:100EF000D701ED91FC910190F081E02DC70109959A
:100F0000D701ED91FC91612F61600480F581E02DA6
:100F1000C7010995D701ED91FC910680F781E02D7D
:100F200061E0C7010995082F10E0102F0027D701B5
:100F3000ED91FC910680F781E02D60E0C7010995F5
:100F4000082BD701ED91FC910280F381E02DC701C0
:100F50000995C8010F90DF91CF911F910F91FF90DC
:100F6000EF900895CF92DF92EF92FF920F931F932D
:100F7000CF93DF9300D01F92CDB7DEB76C01F62E72
:100F8000DC01ED91FC910190F081E02D2A833B83FF
:100F900049830995D601ED91FC910480F581E02DFE
:100FA0006F2DC6010995D601ED91FC910480F58164
:100FB000E02D4981642FC6010995D601ED91FC9180
:100FC0000190F081E02DC6010995D601ED91FC91CB
:100FD0006F2D61600480F581E02DC60109952A819D
:100FE000E22E3B81F32E0E0D1F1DD601ED91FC91DB
:100FF000E016F10651F00680F781E02D61E0C601B0
:101000000995F70181937F01F0CF0280F381E02DF4
:10101000C6010F900F900F90DF91CF911F910F910C
:10102000FF90EF90DF90CF9009940F931F93CF9391
:10103000DF9300D01F92CDB7DEB78C01DC01ED91BC
:10104000FC910190F081E02D2B834A8369830995FF
:10105000D801ED91FC910480F581E02D6981C801F2
:101060000995D801ED91FC910480F581E02D4A812C
:10107000642FC8010995D801ED91FC910480F58198
:10108000E02D2B81622FC8010995D801ED91FC91CB
:101090000280F381E02DC8010F900F900F90DF9137
:1010A000CF911F910F9109940F931F93CF93DF93CB
:1010B00000D000D0CDB7DEB78C01DC01ED91FC9102
:1010C0000190F081E02D2C833B834A83698309954D
:1010D000D801ED91FC910480F581E02D6981C80172
:1010E0000995D801ED91FC910480F581E02D4A81AC
:1010F000642FC8010995D801ED91FC910480F58118
:10110000E02D3B81632FC8010995D801ED91FC9139
:101110000480F581E02D2C81622FC8010995D8014A
:10112000ED91FC910280F381E02DC8010F900F90AA
:101130000F900F90DF91CF911F910F910994CF9253
:10114000DF92EF92FF920F931F93CF93DF9300D024
:1011500000D0CDB7DEB76C01DC01ED91FC910190C0
:10116000F081E02D2B833C834A8369830995D60166
:10117000ED91FC910480F581E02D6981C60109950E
:10118000D601ED91FC910480F581E02D4A81642F18
:10119000C60109952B81E22E3C81F32E0E0D1F1DF9
:1011A000D601ED91FC91E016F10649F0D7016D9161
:1011B0007D010480F581E02DC6010995F1CF028003
:1011C000F381E02DC6010F900F900F900F90DF91EB
:1011D000CF911F910F91FF90EF90DF90CF900994E6
:1011E000EF92FF921F93CF93DF931F92CDB7DEB79D
:1011F0007C01162FDC01ED91FC910190F081E02D36
:1012000049830995D701ED91FC910480F581E02D8A
:10121000612FC7010995D701ED91FC910480F581FB
:10122000E02D4981642FC7010995D701ED91FC910B
:101230000190F081E02DC7010995D701ED91FC9156
:10124000612F61600480F581E02DC7010995D70108
:10125000ED91FC910680F781E02D60E0C7010995D2
:10126000182FD701ED91FC910280F381E02DC70189
:101270000995812F0F90DF91CF911F91FF90EF90F3
:101280000895EF92FF920F931F93CF93DF931F92D6
:10129000CDB7DEB77C01162FDC01ED91FC910190FA
:1012A000F081E02D49830995D701ED91FC910480EF
:1012B000F581E02D612FC7010995D701ED91FC91D2
:1012C0000480F581E02D4981642FC7010995D7017C
:1012D000ED91FC910190F081E02DC7010995D701B6
:1012E000ED91FC91612F61600480F581E02DC701D3
:1012F0000995D701ED91FC910680F781E02D61E021
:10130000C7010995082F10E0102F0027D701ED9194
:10131000FC910680F781E02D60E0C7010995082B5C
:10132000D701ED91FC910280F381E02DC701099571
:10133000C8010F90DF91CF911F910F91FF90EF9017
:101340000895CF92DF92EF92FF920F931F93CF9366
:10135000DF9300D01F92CDB7DEB76C01F62EDC0113
:10136000ED91FC910190F081E02D2A833B8349832C
:101370000995D601ED91FC910480F581E02D6F2D4A
:10138000C6010995D601ED91FC910480F581E02D0F
:101390004981642FC6010995D601ED91FC91019018
:1013A000F081E02DC6010995D601ED91FC916F2DDC
:1013B00061600480F581E02DC60109952A81E22E45
:1013C0003B81F32E0E0D1F1DD601ED91FC91E01611
:1013D000F10651F00680F781E02D61E0C601099524
:1013E000F70181937F01F0CF0280F381E02DC601E8
:1013F0000F900F900F90DF91CF911F910F91FF9061
:10140000EF90DF90CF900994882321F0A09882304C
:1014100019F00895A09A0895A89A08950000000070
:1014200008950000000008950000000008950000E5
:10143000000008950000000008951F93CF93DF93EC
:10144000162FA39880E00E94040A0E94140AD8E094
:10145000C0E0CC0F81E00E94040A0E94140A9B990C
:10146000C16080E00E94040A0E94140AD15089F7EA
:10147000112311F0A39A01C0A3980E94140A81E0DD
:101480000E94040A0E94140A80E00E94040A0E943A
:10149000140AA3980E94140A8C2FDF91CF911F91F8
:1014A00008951F93CF93DF93162FA49880E00E9496
:1014B000040A0E94110AD8E0C0E0CC0F81E00E942B
:1014C000040A0E94110A9C99C16080E00E94040AEB
:1014D0000E94110AD15089F7112311F0A49A01C07A
:1014E000A4980E94110A81E00E94040A0E94110A35
:1014F00080E00E94040A0E94110AA4980E94110A26
:101500008C2FDF91CF911F9108951F93CF93DF937D
:10151000162FA19880E00E94040A0E941A0AD8E0BF
:10152000C0E0CC0F81E00E94040A0E941A0A999937
:10153000C16080E00E94040A0E941A0AD15089F713
:10154000112311F0A19A01C0A1980E941A0A81E00A
:101550000E94040A0E941A0A80E00E94040A0E9463
:101560001A0AA1980E941A0A8C2FDF91CF911F911D
:1015700008951F93CF93DF93162FA29880E00E94C7
:10158000040A0E94170AD8E0C0E0CC0F81E00E9454
:10159000040A0E94170A9A99C16080E00E94040A16
:1015A0000E94170AD15089F7112311F0A29A01C0A5
:1015B000A2980E94170A81E00E94040A0E94170A5A
:1015C00080E00E94040A0E94170AA2980E94170A4B
:1015D0008C2FDF91CF911F9108951F93CF93DF93AD
:1015E000162FA59880E00E94040A0E940E0AD8E0F7
:1015F000C0E0CC0F81E00E94040A0E940E0A9D996F
:10160000C16080E00E94040A0E940E0AD15089F74E
:10161000112311F0A59A01C0A5980E940E0A81E03D
:101620000E94040A0E940E0A80E00E94040A0E949E
:101630000E0AA5980E940E0A8C2FDF91CF911F9160
:101640000895CF93DF93D62FC8E080E00E94040A6C
:101650000E94170AD7FF02C0A29801C0A29A0E9456
:10166000170A81E00E94040A0E94170ADD0FC15088
:1016700061F780E00E94040A0E94170AA2980E9463
:10168000170A81E00E94040A0E94170AC3B380E08F
:101690000E94040A0E94170AC2FBCC27C0F981E00D
:1016A0008C27DF91CF910895CF93DF93D62FC8E099
:1016B00080E00E94040A0E941A0AD7FF02C0A19883
:1016C00001C0A19A0E941A0A81E00E94040A0E94A5
:1016D0001A0ADD0FC15061F780E00E94040A0E94DF
:1016E0001A0AA1980E941A0A81E00E94040A0E9424
:1016F0001A0AC3B380E00E94040A0E941A0AC6951F
:10170000C17081E08C27DF91CF910895CF93DF9353
:10171000D62FC8E080E00E94040A0E940E0AD7FF7C
:1017200002C0A59801C0A59A0E940E0A81E00E94FD
:10173000040A0E940E0ADD0FC15061F780E00E948A
:10174000040A0E940E0AA5980E940E0A81E00E94D7
:10175000040A0E940E0AC3B380E00E94040A0E9499
:101760000E0AC5FBCC27C0F981E08C27DF91CF9111
:101770000895CF93DF93D62FC8E080E00E94040A3B
:101780000E94140AD7FF02C0A39801C0A39A0E9426
:10179000140A81E00E94040A0E94140ADD0FC1505D
:1017A00061F780E00E94040A0E94140AA3980E9434
:1017B000140A81E00E94040A0E94140AC3B380E064
:1017C0000E94040A0E94140AC3FBCC27C0F981E0DE
:1017D0008C27DF91CF910895CF93DF93D62FC8E068
:1017E00080E00E94040A0E94110AD7FF02C0A49858
:1017F00001C0A49A0E94110A81E00E94040A0E947A
:10180000110ADD0FC15061F780E00E94040A0E94B6
:10181000110AA4980E94110A81E00E94040A0E9401
:10182000110AC3B380E00E94040A0E94110AC29503
:10183000C17081E08C27DF91CF91089581E00E94F3
:10184000040AA59881E00E94040AA59A80E00E94FB
:10185000040AA5980C940E0A80E00E94040AA59A36
:1018600081E00E94040AA59A81E00E94040AA598DA
:101870000C940E0A81E00E94040AA39881E00E9461
:10188000040AA39A80E00E94040AA3980C94140A04
:1018900080E00E94040AA39A81E00E94040AA39AAD
:1018A00081E00E94040AA3980C94140A81E00E942B
:1018B000040AA49881E00E94040AA49A80E00E948D
:1018C000040AA4980C94110A80E00E94040AA49AC5
:1018D00081E00E94040AA49A81E00E94040AA4986C
:1018E0000C94110A81E00E94040AA19881E00E94F0
:1018F000040AA19A80E00E94040AA1980C941A0A92
:1019000080E00E94040AA19A81E00E94040AA19A40
:1019100081E00E94040AA1980C941A0A81E00E94B6
:10192000040AA29881E00E94040AA29A80E00E9420
:10193000040AA2980C94170A80E00E94040AA29A52
:1019400081E00E94040AA29A81E00E94040AA298FF
:101950000C94170ACF93DF93CDB7DEB7EC970FB691
:10196000F894DEBF0FBECDBF80E690E09F938F93CB
:1019700005E711E01F930F930E94F813CE01C19663
:101980000E94990ECE0185960E94990ECE0149962D
:101990000E94990ECE010D960E94990ECE010196DD
:1019A0000E94990E60E371E0CE01C1960E94A70EDD
:1019B0009F938F9382E7E82E80E0F82EFF92EF92BC
:1019C0001F930F930E94F8136CE271E0CE0185968D
:1019D0000E94A70E9F938F93FF92EF921F930F93F6
:1019E0000E94F81368E271E0CE0149960E94A70EAA
:1019F0009F938F93FF92EF921F930F930E94F81380
:101A000064E271E0CE010D960E94A70E9F938F9322
:101A1000FF92EF921F930F930E94F81360E271E020
:101A2000CE0101960E94A70E9F938F93FF92EF9293
:101A30001F930F930E94F8130FB6F894DEBF0FBEEA
:101A4000CDBF9FE7E92E90E0F92E2CE8C22E20E0D2
:101A5000D22ECE01C1960E94F50ECE0185960E942F
:101A6000F50ECE0149960E94F50ECE010D960E940C
:101A7000F50ECE0101960E94F50E89AD9AAD1F922A
:101A80001F929F938F938FA998AD1F921F929F9340
:101A90008F938DA99EA91F921F929F938F938BA9BD
:101AA0009CA91F921F929F938F93FF92EF921F9377
:101AB0000F930E94F8138DA59EA51F921F929F93CE
:101AC0008F938BA59CA51F921F929F938F9389A59F
:101AD0009AA51F921F929F938F938FA198A51F92F3
:101AE0001F929F938F93FF92EF921F930F930E94E9
:101AF000F8130FB6F894DEBF0FBECDBF89A19AA12F
:101B00001F921F929F938F938F8D98A11F921F9268
:101B10009F938F938D8D9E8D1F921F929F938F9376
:101B20008B8D9C8D1F921F929F938F93FF92EF92AC
:101B30001F930F930E94F8138D899E891F921F9205
:101B40009F938F938B899C891F921F929F938F9352
:101B500089899A891F921F929F938F938F85988965
:101B60001F921F929F938F93FF92EF921F930F9359
:101B70000E94F8130FB6F894DEBF0FBECDBF898563
:101B80009A851F921F929F938F938F8198851F92A2
:101B90001F929F938F938D819E811F921F929F937F
:101BA0008F938B819C811F921F929F938F93FF92A3
:101BB000EF921F930F930E94F813DF92CF921F931F
:101BC0000F930E94F8130FB6F894DEBF0FBECDBF7F
:101BD00040CF84E990E09093310180933001A19847
:101BE00081E00E94040AA998A8988CEA90E090935A
:101BF0002D0180932C01A29881E00E94040AAA98EA
:101C0000A89884EC90E09093290180932801A398F0
:101C100081E00E94040AAB98A8988CED90E0909324
:101C2000250180932401A49881E00E94040AAC98C5
:101C3000A89884EF90E09093210180932001A598CB
:101C400081E00E94040AAD98A898089510BC80E431
:101C500089B980B5866880BD8AB188618AB90895DE
:101C600008956CB95D9902C00000FCCF0895E5E3CA
:101C7000F1E0118210821382128215821482168280
:101C8000379681E0ED36F807A1F783B7886083BF08
:101C90008BE98CBF83E083BF89B7826089BF78946A
:101CA00008951F920F920FB60F9211248F939F9356
:101CB000AF93BF93EF93FF93E5E3F1E0ABE3B1E0C4
:101CC00084819581009721F001979583848309C0D1
:101CD00082819381958384838C918F3F11F08F5FF4
:101CE0008C933796179681E0ED36F80749F7809187
:101CF0006D0190916E01A0916F01B09170010196FC
:101D0000A11DB11D80936D0190936E01A0936F0191
:101D1000B0937001FF91EF91BF91AF919F918F911F
:101D20000F900FBE0F901F90189584E391E00C94D4
:101D3000370EFC01138212821582148217821682DA
:101D40001186108613861286118210820895CF9311
:101D5000DF93EB01FC0171836083E881F9810084EA
:101D6000F185E02D2FEF41E862E7CE010995E8818A
:101D7000F9810084F185E02D2FEF43E862E7CE0181
:101D80000995E881F9810084F185E02D20E04DE896
:101D900062E7CE010995E881F9810084F185E02DA3
:101DA00023E040E862E7CE010995E881F9810084EB
:101DB000F185E02D23E24FE862E7CE010995E88145
:101DC000F9810684F785E02D42E962E7CE010995A5
:101DD00021E030E0893611F420E030E088279927AF
:101DE000821B930BDF91CF9108950F931F93CF9395
:101DF000DF93EC0188819981DC01ED91FC910190E8
:101E0000F081E02D099588819981DC01ED91FC91AB
:101E10000480F581E02D62E7099588819981DC01D4
:101E2000ED91FC910480F581E02D64EB09958881AA
:101E30009981DC01ED91FC910280F381E02D0995FF
:101E400088819981DC01ED91FC910190F081E02D78
:101E5000099588819981DC01ED91FC910480F581DF
:101E6000E02D63E7099588819981DC01ED91FC9172
:101E70000680F781E02D61E00995082F10E0888148
:101E80009981DC01ED91FC910680F781E02D61E004
:101E90000995182B1987088788819981DC01ED91B4
:101EA000FC910680F781E02D61E00995082F10E094
:101EB00088819981DC01ED91FC910680F781E02D0C
:101EC00061E00995182B1B830A8388819981DC01C5
:101ED000ED91FC910680F781E02D61E00995082FD6
:101EE00010E088819981DC01ED91FC910680F781F9
:101EF000E02D61E00995182B1D830C838881998161
:101F0000DC01ED91FC910680F781E02D61E00995FF
:101F1000082F10E088819981DC01ED91FC91068009
:101F2000F781E02D61E00995182B1F830E838881CE
:101F30009981DC01ED91FC910680F781E02D61E053
:101F40000995082F10E088819981DC01ED91FC91C1
:101F50000680F781E02D60E00995182B1B870A8722
:101F600088819981DC01ED91FC910280F381E02D63
:101F7000DF91CF911F910F9109940F931F93CF93EE
:101F8000DF9300D01F92CDB7DEB78C01DC01ED915D
:101F9000FC910190F081E02D2B834A8369830995A0
:101FA000D801ED91FC910480F581E02D6981C80193
:101FB0000995D801ED91FC910480F581E02D4A81CD
:101FC000642FC8010995D801ED91FC910480F58139
:101FD000E02D2B81622FC8010995D801ED91FC916C
:101FE0000280F381E02DC8010F900F900F90DF91D8
:101FF000CF911F910F9109940F931F93CF93DF936C
:1020000000D000D0CDB7DEB78C01DC01ED91FC91A2
:102010000190F081E02D2C833B834A8369830995ED
:10202000D801ED91FC910480F581E02D6981C80112
:102030000995D801ED91FC910480F581E02D4A814C
:10204000642FC8010995D801ED91FC910480F581B8
:10205000E02D3B81632FC8010995D801ED91FC91DA
:102060000480F581E02D2C81622FC8010995D801EB
:10207000ED91FC910280F381E02DC8010F900F904B
:102080000F900F90DF91CF911F910F910994CF92F4
:10209000DF92EF92FF920F931F93CF93DF9300D0C5
:1020A00000D0CDB7DEB76C01DC01ED91FC91019061
:1020B000F081E02D2B833C834A8369830995D60107
:1020C000ED91FC910480F581E02D6981C6010995AF
:1020D000D601ED91FC910480F581E02D4A81642FB9
:1020E000C60109952B81E22E3C81F32E0E0D1F1D9A
:1020F000D601ED91FC91E016F10649F0D7016D9102
:102100007D010480F581E02DC6010995F1CF0280A3
:10211000F381E02DC6010F900F900F900F90DF918B
:10212000CF911F910F91FF90EF90DF90CF90099486
:10213000EF92FF921F93CF93DF931F92CDB7DEB73D
:102140007C01162FDC01ED91FC910190F081E02DD6
:1021500049830995D701ED91FC910480F581E02D2B
:10216000612FC7010995D701ED91FC910480F5819C
:10217000E02D4981642FC7010995D701ED91FC91AC
:102180000190F081E02DC7010995D701ED91FC91F7
:10219000612F61600480F581E02DC7010995D701A9
:1021A000ED91FC910680F781E02D60E0C701099573
:1021B000182FD701ED91FC910280F381E02DC7012A
:1021C0000995812F0F90DF91CF911F91FF90EF9094
:1021D0000895EF92FF920F931F93CF93DF931F9277
:1021E000CDB7DEB77C01162FDC01ED91FC9101909B
:1021F000F081E02D49830995D701ED91FC91048090
:10220000F581E02D612FC7010995D701ED91FC9172
:102210000480F581E02D4981642FC7010995D7011C
:10222000ED91FC910190F081E02DC7010995D70156
:10223000ED91FC91612F61600480F581E02DC70173
:102240000995D701ED91FC910680F781E02D61E0C1
:10225000C7010995082F10E0102F0027D701ED9135
:10226000FC910680F781E02D60E0C7010995082BFD
:10227000D701ED91FC910280F381E02DC701099512
:10228000C8010F90DF91CF911F910F91FF90EF90B8
:102290000895CF92DF92EF92FF920F931F93CF9307
:1022A000DF9300D01F92CDB7DEB76C01F62EDC01B4
:1022B000ED91FC910190F081E02D2A833B834983CD
:1022C0000995D601ED91FC910480F581E02D6F2DEB
:1022D000C6010995D601ED91FC910480F581E02DB0
:1022E0004981642FC6010995D601ED91FC910190B9
:1022F000F081E02DC6010995D601ED91FC916F2D7D
:1023000061600480F581E02DC60109952A81E22EE5
:102310003B81F32E0E0D1F1DD601ED91FC91E016B1
:10232000F10651F00680F781E02D61E0C6010995C4
:10233000F70181937F01F0CF0280F381E02DC60188
:102340000F900F900F90DF91CF911F910F91FF9001
:10235000EF90DF90CF900994882321F0BF988230CE
:1023600019F00895BF9A0895C79A089500000000D3
:1023700008951F93CF93DF93162FBD9880E00E949E
:10238000AC110E94B611D8E0C0E0CC0F81E00E94F1
:10239000AC110E94B611B599C16080E00E94AC11E9
:1023A0000E94B611D15089F7112311F0BD9A01C0D6
:1023B000BD980E94B61181E00E94AC110E94B61136
:1023C00080E00E94AC110E94B611BD980E94B61127
:1023D0008C2FDF91CF911F910895CF93DF93D62F4C
:1023E000C8E080E00E94AC110E94B611D7FF02C085
:1023F000BD9801C0BD9A0E94B61181E00E94AC1147
:102400000E94B611DD0FC15061F780E00E94AC114F
:102410000E94B611BD980E94B61181E00E94AC11D5
:102420000E94B611C6B380E00E94AC110E94B611A2
:10243000C5FBCC27C0F981E08C27DF91CF910895AF
:1024400081E00E94AC11BD9881E00E94AC11BD9A60
:1024500080E00E94AC11BD980C94B61180E00E94FF
:10246000AC11BD9A81E00E94AC11BD9A81E00E943E
:10247000AC11BD980C94B6118CE091E09093720170
:1024800080937101BD9881E00E94AC11C598C798F6
:1024900008950F931F93CF93DF938C01EB01699104
:1024A000662321F0C8010E94310EF9CFDF91CF9150
:1024B0001F910F9108958F929F92AF92BF92CF92EA
:1024C000DF92EF92FF920F931F93CF93DF93CDB7DD
:1024D000DEB72C970FB6F894DEBF0FBECDBF7C01E0
:1024E00077FF09C070956095509541955F4F6F4F8C
:1024F0007F4F01E001C000E01C861AE09AE0892EBF
:10250000912CA12CB12CCC24C394D12CCC0EDD1E4B
:10251000C10ED11CCB01BA01A50194010E94B814CF
:10252000942F852F605DF6016083A901692F782FB4
:102530008FEF810F411551056105710511F0182FBD
:10254000E2CF002349F0E1E0F0E0EC0FFD1FE80FDF
:10255000F11D9DE29083182F61E070E06C0F7D1FEC
:10256000610F711DC7010E9449122C960FB6F89495
:10257000DEBF0FBECDBFDF91CF911F910F91FF90B6
:10258000EF90DF90CF90BF90AF909F908F90089585
:102590008F929F92AF92BF92CF92DF92EF92FF9273
:1025A0001F93CF93DF93CDB7DEB72C970FB6F89478
:1025B000DEBF0FBECDBF6C011C861AE09AE0892EEB
:1025C000912CA12CB12CEE24E394F12CEC0EFD1EE9
:1025D000E10EF11CCB01BA01A50194010E949614F1
:1025E000942F852F605DF7016083A901692F782FF3
:1025F0001150411551056105710529F7B701C60153
:102600000E9449122C960FB6F894DEBF0FBECDBFC4
:10261000DF91CF911F91FF90EF90DF90CF90BF900F
:10262000AF909F908F900895EF92FF92CF93DF939A
:10263000CDB7DEB72C970FB6F894DEBF0FBECDBF77
:10264000FC011C862AE0942F9F70E22EF12CA1E061
:10265000B0E0AC0FBD1FAE0DBF1D9A3014F4905DFD
:1026600001C0995A9C9384E0769567955795479554
:102670008A95D1F72150411551056105710519F76A
:1026800061E070E06C0F7D1F6E0D7F1DCF010E9419
:1026900049122C960FB6F894DEBF0FBECDBFDF9166
:1026A000CF91FF90EF9008954F925F926F927F923B
:1026B0008F929F92AF92BF92CF92DF92EF92FF9252
:1026C0000F931F93CF93DF938C012A013B01C22FFD
:1026D00020E030E0A901C301B2010E944A1587FF42
:1026E00006C077FA709477F87094DDE201C0D0E20A
:1026F000EE24E394F12C80E090E02C2F30E04AE0CF
:102700008217930740F4B701469F7001479FF00C72
:1027100011240196F5CFC301B2010E944F154B0160
:102720005C010E9487159B01AC01C301B2010E94AC
:10273000DD142B013C01B70180E090E00E9485157B
:102740009B01AC01C301B2010E9437160E944F15D4
:102750006B017C0197FF08C0F094E094D094C09482
:10276000C11CD11CE11CF11C6D2FC8010E94310E4F
:10277000B501A401C8010E945B126EE2C8010E946B
:10278000310E80E021E030E09AE0A901949F9001B1
:10279000959F300D11248F5FA90160E070E04C150A
:1027A0005D056E057F058CF3C81BA12CB12CD0E014
:1027B000AC16BD0640F460E3C8010E94310E5FEF25
:1027C000A51AB50AF5CFB701A601C801DF91CF91CF
:1027D0001F910F91FF90EF90DF90CF90BF90AF903F
:1027E0009F908F907F906F905F904F900C945B12B2
:1027F000AF92BF92CF92DF92EF92FF920F931F930F
:10280000CF93DF93CDB7DEB7ED84FE848E010F5EEC
:102810001F4FC12CD12CEF85F889EC0DFD1D608177
:10282000662309F470C0653239F0C7010E94310E89
:102830008FEFC81AD80AEFCF8181893609F174F475
:10284000833609F444C0863609F44BC0853209F05A
:1028500056C065E2C7010E94310E51C08537E9F0CC
:10286000883741F1833709F04AC05801F2E0AF0ED2
:10287000B11CF80160817181C7010E9449123EC0FC
:10288000580194E0A90EB11CF80140815181628188
:102890007381C7010E945B1231C05801F4E0AF0E92
:1028A000B11CF8014081518162817381C7010E948E
:1028B000C81224C05801F4E0AF0EB11CF8014081E9
:1028C000518162817381C7010E94141317C058019E
:1028D000F2E0AF0EB11CF8016081C7010E94310E19
:1028E0000DC05801F4E0AF0EB11CF80140815181D8
:1028F0006281738123E0C7010E9454138501F2E0D5
:10290000CF0ED11C88CFDF91CF911F910F91FF90F7
:10291000EF90DF90CF90BF90AF90089585E791E062
:102920000C94260E85E791E00C94300EA1E21A2E4D
:10293000AA1BBB1BFD010DC0AA1FBB1FEE1FFF1F63
:10294000A217B307E407F50720F0A21BB30BE40BB3
:10295000F50B661F771F881F991F1A9469F76095FA
:102960007095809590959B01AC01BD01CF010895B4
:10297000052E97FB1EF400940E94CF1457FD07D03C
:102980000E94961407FC03D04EF40C94CF1450957B
:102990004095309521953F4F4F4F5F4F089590954B
:1029A0008095709561957F4F8F4F9F4F0895EE0FE3
:1029B000FF1F0590F491E02D09945058BB27AA27DA
:1029C0000E94F5140C94FD150E94EF1538F00E943A
:1029D000F61520F039F49F3F19F426F40C94EC1509
:1029E0000EF4E095E7FB0C94E615E92F0E940E1615
:1029F00058F3BA17620773078407950720F079F434
:102A0000A6F50C9430160EF4E0950B2EBA2FA02DDF
:102A10000B01B90190010C01CA01A0011124FF278B
:102A2000591B99F0593F50F4503E68F11A16F04086
:102A3000A22F232F342F4427585FF3CF4695379585
:102A40002795A795F0405395C9F77EF41F16BA0B4A
:102A5000620B730B840BBAF09150A1F0FF0FBB1FF8
:102A6000661F771F881FC2F70EC0BA0F621F731F41
:102A7000841F48F4879577956795B795F7959E3F9E
:102A800008F0B0CF9395880F08F09927EE0F97952F
:102A9000879508950E94C21508F481E008950E9468
:102AA00056156894B1110C94311608950E941616AB
:102AB00088F09F5798F0B92F9927B751B0F0E1F0FF
:102AC000660F771F881F991F1AF0BA95C9F714C0AF
:102AD000B13091F00E943016B1E008950C94301698
:102AE000672F782F8827B85F39F0B93FCCF38695E8
:102AF00077956795B395D9F73EF490958095709545
:102B000061957F4F8F4F9F4F0895E89409C097FBC1
:102B10003EF490958095709561957F4F8F4F9F4FB4
:102B20009923A9F0F92F96E9BB279395F6958795F8
:102B300077956795B795F111F8CFFAF4BB0F11F4BB
:102B400060FF1BC06F5F7F4F8F4F9F4F16C0882362
:102B500011F096E911C0772321F09EE8872F762F98
:102B600005C0662371F096E8862F70E060E02AF0D9
:102B70009A95660F771F881FDAF7880F96958795C5
:102B800097F90895990F0008550FAA0BE0E8FEEF9A
:102B900016161706E807F907C0F012161306E40721
:102BA000F50798F0621B730B840B950B39F40A261A
:102BB00061F0232B242B252B21F408950A2609F4F8
:102BC000A140A6958FEF811D811D089597F99F67FC
:102BD00080E870E060E008959FEF80EC08950024A5
:102BE0000A941616170618060906089500240A9472
:102BF00012161306140605060895092E0394000CF8
:102C000011F4882352F0BB0F40F4BF2B11F460FF86
:102C100004C06F5F7F4F8F4F9F4F089557FD9058AF
:102C2000440F551F59F05F3F71F04795880F97FB90
:102C3000991F61F09F3F79F087950895121613064A
:102C40001406551FF2CF4695F1DF08C01616170679
:102C50001806991FF1CF86957105610508940895AE
:102C6000E894BB2766277727CB0197F908950E9440
:102C70004A160C94FD150E94EF1538F00E94F615C7
:102C800020F0952311F00C94E6150C94EC1511240A
:102C90000C9431160E940E1670F3959FC1F3950F98
:102CA00050E0551F629FF001729FBB27F00DB11DD0
:102CB000639FAA27F00DB11DAA1F649F6627B00D60
:102CC000A11D661F829F2227B00DA11D621F739F49
:102CD000B00DA11D621F839FA00D611D221F749F57
:102CE0003327A00D611D231F849F600D211D822F9E
:102CF000762F6A2F11249F5750409AF0F1F08823C5
:102D00004AF0EE0FFF1FBB1F661F771F881F9150F1
:102D10005040A9F79E3F510580F00C94E6150C94A5
:102D200031165F3FE4F3983ED4F386957795679527
:102D3000B795F795E7959F5FC1F7FE2B880F911D1B
:102D40009695879597F9089510E0CEE2D0E004C0FB
:102D5000FE010E94D7142196CF32D107C9F7F8940B
:022D6000FFCFA3
:102D62000A7465726D696E616C2072656164790ABC
:102D72000A00696E6974207265732025690A00254C
:102D8200692025692025692025690A000A0A0A00A6
:102D920000000000720C800C540B850A15085408C0
:102DA2009F08F0084109A109000000008E0C9C0C4C
:102DB200210BB90A26066506B00601075207B207BB
:102DC200000000003A0C480CB90B1D0A37047604C7
:102DD200C10412056305C30500000000560C640C13
:102DE200EC0B510A48028702D20223037403D40374
:102DF200000000001E0C2C0C860BED0A59009800F6
:102E0200E30034018501E5010000000020122E12CA
:102E1200ED11B911BD0FFC0F47109810E9104911BF
:00000001FF
