:100000000C942E000C9456000C9456000C94560040
:100010000C9456000C9456000C9456000C94560008
:100020000C9456000C9456000C9456000C945600F8
:100030000C9456000C9456000C9456000C945600E8
:100040000C9456000C9456000C9456000C944007E7
:100050000C945600A103840788078C0711241FBE47
:10006000CFE5D4E0DEBFCDBF10E0A0E6B0E0EAE12E
:10007000F3E102C005900D92AC3AB107D9F720E048
:10008000ACEAB0E001C01D92A23FB207E1F710E078
:10009000CDE2D0E004C02197FE010E943E08CA32A2
:1000A000D107C9F70E94B5000C9480090C94000098
:1000B00008950C94E506CF92DF92EF92FF92CF93D2
:1000C000DF93EC01298D3A8D4B8D5C8DAFE1B0E073
:1000D0000E941F086B017C01CE0102960E94B003B2
:1000E0004497092E000CAA0BBB0B8C0D9D1DAE1D59
:1000F000BF1D25E0B695A795979587952A95D1F7C9
:100100008D3221E09207A105B10520F08CE291E04B
:10011000A0E0B0E0898F9A8FAB8FBC8F698D7A8D0C
:100120008B8D9C8D2AE030E040E050E00E94FD077E
:10013000622FCE014496DF91CF91FF90EF90DF9038
:10014000CF900C94C307FC0183819481009719F030
:10015000019739F00895DD9A81E090E094838383DC
:100160000895DD98148213820895CF93DF93CDB75D
:10017000DEB7A2970FB6F894DEBF0FBECDBF8AE6FA
:1001800090E09F8F8E8FD59A1AA219A284E790E0F3
:100190009A838983CE0103960E94AE03CE014596D1
:1001A0000E94AB0760E0CE0145960E94C3076CEA4F
:1001B00070E0CE0103960E9432051A8E1B8E1C8EB3
:1001C0001D8EBB98C39ABA98C29A48EC50E0BE0103
:1001D000625E7F4F80EB90E00E94010744E150E0B7
:1001E000BE016F5F7F4F80EB90E00E94010780EBC4
:1001F00090E00E942307FBCFCF93DF93EC0184E7CD
:1002000090E099838883CE0144960E949007CE01A6
:100210000296DF91CF910C94AF03CF93DF93EC0163
:100220000E94FC00CE01DF91CF910C94E50610BC3A
:1002300080E489B980B5866880BD8AB188618AB951
:10024000089508950F931F93CF93DF9300D01F92CB
:10025000CDB7DEB78C01DC01ED91FC910190F0810E
:10026000E02D2B834A8369830995D801ED91FC9198
:100270000480F581E02D6981C8010995D801ED91CF
:10028000FC910480F581E02D4A81642FC801099515
:10029000D801ED91FC910480F581E02D2B81622F36
:1002A000C8010995D801ED91FC910280F381E02D00
:1002B000C8010F900F900F90DF91CF911F910F9178
:1002C00009940F931F93CF93DF9300D000D0CDB745
:1002D000DEB78C01DC01ED91FC910190F081E02D05
:1002E0002C833B834A8369830995D801ED91FC9166
:1002F0000480F581E02D6981C8010995D801ED914F
:10030000FC910480F581E02D4A81642FC801099594
:10031000D801ED91FC910480F581E02D3B81632FA4
:10032000C8010995D801ED91FC910480F581E02D7B
:100330002C81622FC8010995D801ED91FC910280B2
:10034000F381E02DC8010F900F900F900F90DF9177
:10035000CF911F910F910994CF92DF92EF92FF926C
:100360000F931F93CF93DF9300D000D0CDB7DEB7AC
:100370006C01DC01ED91FC910190F081E02D2B836B
:100380003C834A8369830995D601ED91FC910480F1
:10039000F581E02D6981C6010995D601ED91FC91A9
:1003A0000480F581E02D4A81642FC60109952B81D7
:1003B000E22E3C81F32E0E0D1F1DD601ED91FC9116
:1003C000E016F10649F0D7016D917D010480F581B9
:1003D000E02DC6010995F1CF0280F381E02DC60121
:1003E0000F900F900F900F90DF91CF911F910F9171
:1003F000FF90EF90DF90CF900994EF92FF921F93C0
:10040000CF93DF931F92CDB7DEB77C01162FDC01AF
:10041000ED91FC910190F081E02D49830995D70180
:10042000ED91FC910480F581E02D612FC7010995C4
:10043000D701ED91FC910480F581E02D4981642F75
:10044000C7010995D701ED91FC910190F081E02D54
:10045000C7010995D701ED91FC91612F616004807E
:10046000F581E02DC7010995D701ED91FC9106803A
:10047000F781E02D60E0C7010995182FD701ED91B4
:10048000FC910280F381E02DC7010995812F0F9027
:10049000DF91CF911F91FF90EF900895EF92FF921F
:1004A0000F931F93CF93DF931F92CDB7DEB77C01DD
:1004B000162FDC01ED91FC910190F081E02D498334
:1004C0000995D701ED91FC910480F581E02D612F14
:1004D000C7010995D701ED91FC910480F581E02DCC
:1004E0004981642FC7010995D701ED91FC910190D5
:1004F000F081E02DC7010995D701ED91FC91612FA5
:1005000061600480F581E02DC7010995D701ED9167
:10051000FC910680F781E02D61E0C7010995082F65
:1005200010E0102F0027D701ED91FC910680F78194
:10053000E02D60E0C7010995082BD701ED91FC91F2
:100540000280F381E02DC7010995C8010F90DF916A
:10055000CF911F910F91FF90EF900895CF92DF926E
:10056000EF92FF920F931F93CF93DF9300D01F92D0
:10057000CDB7DEB76C01F62EDC01ED91FC91019058
:10058000F081E02D2A833B8349830995D601ED91C3
:10059000FC910480F581E02D6F2DC6010995D601EF
:1005A000ED91FC910480F581E02D4981642FC60115
:1005B0000995D601ED91FC910190F081E02DC601E5
:1005C0000995D601ED91FC916F2D61600480F58154
:1005D000E02DC60109952A81E22E3B81F32E0E0DF6
:1005E0001F1DD601ED91FC91E016F10651F0068039
:1005F000F781E02D61E0C6010995F70181937F0144
:10060000F0CF0280F381E02DC6010F900F900F9084
:10061000DF91CF911F910F91FF90EF90DF90CF90DE
:100620000994882321F0BF98823019F00895BF9A69
:100630000895C79A08950000000008951F93CF936E
:10064000DF93162FBD9880E00E9411030E941B03C8
:10065000D8E0C0E0CC0F81E00E9411030E941B0390
:10066000B599C16080E00E9411030E941B03D15024
:1006700089F7112311F0BD9A01C0BD980E941B0398
:1006800081E00E9411030E941B0380E00E9411037D
:100690000E941B03BD980E941B038C2FDF91CF91FA
:1006A0001F910895CF93DF93D62FC8E080E00E947A
:1006B00011030E941B03D7FF02C0BD9801C0BD9A61
:1006C0000E941B0381E00E9411030E941B03DD0FA7
:1006D000C15061F780E00E9411030E941B03BD9886
:1006E0000E941B0381E00E9411030E941B03C6B3FA
:1006F00080E00E9411030E941B03C5FBCC27C0F9B8
:1007000081E08C27DF91CF91089581E00E94110351
:10071000BD9881E00E941103BD9A80E00E94110300
:10072000BD980C941B0380E00E941103BD9A81E0E8
:100730000E941103BD9A81E00E941103BD980C94A0
:100740001B038EE790E09093AD008093AC00BD98C2
:1007500081E00E941103C598C798089508950895EF
:100760000F931F93CF93DF93EC0188899989DC0164
:10077000ED91FC910084F185E02D21E04BE062E5F4
:10078000099588899989DC01ED91FC919E012E5F84
:100790003F4F0288F389E02D0EE010E044E162E56E
:1007A00009952C8530E0322F22278D85282BC90111
:1007B00006978A3F934080F48881998143E0880FAF
:1007C000991F4A95E1F7820F931F69E070E00E943C
:1007D000E9077983688304C080E094E09983888383
:1007E00088819981DF91CF911F910F910895AF92E8
:1007F000BF92CF92DF92EF92FF920F931F93CF930E
:10080000DF93EC018B015A01DB011C9288899989E5
:10081000DC01ED91FC910084F185E02D21E040E8C0
:1008200062E5099588899989DC01ED91FC91008444
:10083000F185E02D21E04FEF62E5099588899989DE
:10084000DC01ED91FC910084F185E02D20E040E099
:1008500062E5099588899989DC01ED91FC91008414
:10086000F185E02D26E04FEF62E5099588899989A9
:10087000FC01A081B1811896ED90FC9019971E960D
:10088000ED91FC911F9743E862E50995282F2460BC
:1008900043E862E588899989F701099588899989EA
:1008A000DC01ED91FC910084F185E02D27E04FEF14
:1008B00062E5099588899989DC01ED91FC910084B4
:1008C000F185E02D21E041E862E509958889998963
:1008D000DC01ED91FC910084F185E02D21E040E800
:1008E00062E5099588899989DC01ED91FC91008484
:1008F000F185E02D2BE644E962E50995888999891F
:10090000DC01ED91FC910084F185E02D20E043E8CD
:1009100062E5099581E4C82E82E4D82E8FE0E82EA6
:10092000F12C88899989DC01ED91FC910684F78589
:10093000E02D43E862E50995811108C0B1E0CB1ACA
:10094000D108E108F10869F780E081C088899989B8
:10095000DC01ED91FC910084F185E02D21E043E87C
:1009600062E5099588899989DC01ED91FC910684FD
:10097000F785E02D42E962E50995982F9F77F80108
:100980009083982F991F9927991FD5019C93888947
:100990009989DC01ED91FC910084F185E02D20E046
:1009A00041E862E5099588899989DC01ED91FC911E
:1009B0000084F185E02D26E04FEF62E509958889F6
:1009C0009989FC01A081B18118960D911C9119970C
:1009D0001E96ED91FC911F9743E862E50995282F3B
:1009E00043E862E588899989F80109958889998998
:1009F000DC01ED91FC910084F185E02D21E04FEFC9
:100A000062E5099588899989DC01ED91FC91008462
:100A1000F185E02D21E040E062E50995888999891A
:100A2000DC01ED91FC910084F185E02D20E04FEF99
:100A300062E5099588899989DC01ED91FC91008432
:100A4000F185E02D20E040E862E5099581E0DF9145
:100A5000CF911F910F91FF90EF90DF90CF90BF90BB
:100A6000AF900895EF92FF920F931F93CF93DF9370
:100A7000CDB7DEB728970FB6F894DEBF0FBECDBF57
:100A80007C01CB01D70151967C936E93509720E067
:100A900030E22D933C93FB01A081B18118960D911A
:100AA0001C9119971E96ED91FC911F9749E862E5FC
:100AB0000995282F216049E862E5D70150968D916C
:100AC0009C915197F8010995D70150968D919C9171
:100AD0005197DC01ED91FC910684F785E02D40EC07
:100AE00062E509958E3E09F061C1F701808991891F
:100AF000DC01ED91FC910084F185E02D21E04FEBCC
:100B000062E5099581EA96E8A1E0B0E00197A109C4
:100B1000B10911F00000FACFF70180899189DC0159
:100B2000ED91FC910084F185E02D20E048E862E53C
:100B30000995F70180899189DC01ED91FC91008490
:100B4000F185E02D21E040E862E50995F701808913
:100B50009189DC01ED91FC910084F185E02D21E08B
:100B60004FEF62E50995F70180899189DC01ED91EC
:100B7000FC910084F185E02D20E040E062E50995DC
:100B8000F70180899189DC01ED91FC910684F7855C
:100B9000E02D41E962E50995F70180899189DC0141
:100BA000ED91FC910084F185E02D21E040E062E5CB
:100BB0000995F70180899189DC01ED91FC91008410
:100BC000F185E02D20E04FEF62E50995F70180897E
:100BD0009189DC01ED91FC910084F185E02D20E00C
:100BE00040E862E509951886AE01495F5F4FBE0196
:100BF000685F7F4FC7010E94F703F70180899189E1
:100C0000DC01ED91FC910288F389E02D06E010E013
:100C10009E012F5F3F4F40EB62E50995F701808908
:100C20009189DC01ED91FC910084F185E02D21E0BA
:100C30004FEF62E50995F70180899189DC01ED911B
:100C4000FC910084F185E02D20E04FE462E50995F8
:100C5000F70180899189DC01ED91FC910084F18597
:100C6000E02D2CE24EE462E50995F7018089918937
:100C7000DC01ED91FC910084F185E02D20E04FEF47
:100C800062E50995F70180899189DC01ED91FC917C
:100C90000084F185E02D24EB46EB62E509958F8118
:100CA000811102C040E001C04CE0A88580E090E0E6
:100CB00061E070E0282F269526952695582F5770CD
:100CC000E1E0F0E0EC0FFD1FE20FF11D841710F0E2
:100CD0009A130AC09B0101C0220F5A95EAF720958A
:100CE00030812323208309C0208130E002C0359564
:100CF00027955A95E2F720FD9F5F8F5F8033D1F6ED
:100D0000F70180899189DC01ED91FC910484F585DE
:100D1000E02D06E010E09E012F5F3F4F40EB62E5C3
:100D20000995F70180899189DC01ED91FC91068498
:100D3000F785E02D44E862E50995182FF7018089D1
:100D40009189DC01ED91FC910084F185E02D24E096
:100D50004AE062E50995F70180899189DC01ED910E
:100D6000FC91212F2F7E0084F185E02D44E862E57F
:100D70000995F70180899189DC01ED91FC9100844E
:100D8000F185E02D21E04BE062E50995F7018089CE
:100D90009189DC01ED91FC910084F185E02D22E048
:100DA00040E062E5099580E090E002C08EEF9FEFA1
:100DB00028960FB6F894DEBF0FBECDBFDF91CF915E
:100DC0001F910F91FF90EF9008950C94E808E1EBCC
:100DD000F0E0118210821382128215821482168230
:100DE000379680E0E93EF807A1F783B7886083BFB4
:100DF0008BE98CBF83E083BF89B7826089BF789419
:100E00000895F894E1EBF0E080E090E020813181FA
:100E1000232B81F427E0289FF001299FF00D112456
:100E2000EF54FF4F71836083538342835583448320
:100E3000168207C0019637968830910539F78FEFF3
:100E40009FEF78940895CF93DF93C7EBD0E0FE0136
:100E5000369780819181009759F02881222341F0B3
:100E60001882DC01ED91FC910480F581E02D09955B
:100E70002796B0E0CF3EDB0751F7DF91CF91089581
:100E80001F920F920FB60F9211248F939F93AF93DF
:100E9000BF93EF93FF93E1EBF0E0A7EBB0E0848129
:100EA0009581009721F001979583848309C0828101
:100EB0009381958384838C918F3F11F08F5F8C9306
:100EC0003796179680E0E93EF80749F78091E900E8
:100ED0009091EA00A091EB00B091EC000196A11D69
:100EE000B11D8093E9009093EA00A093EB00B093CA
:100EF000EC00FF91EF91BF91AF919F918F910F9077
:100F00000FBE0F901F90189580EB90E00C94E706B1
:100F10008DEE90E00C9417018DEE90E00C94210181
:100F20000895FC018281882319F0813051F00895E1
:100F300088B3836088BB838185BBC09881E082834E
:100F4000089588B3836088BB848185BBC198128271
:100F500008950C94E506FC0186EA90E09183808375
:100F600012828FEF8383848397B3936097BB98B388
:100F7000936098BB85BB84BB45E050E0BF0180EB2C
:100F800090E00C940107DC01862F643608F083E6BC
:100F90006AE00E94DD07E82FF0E0EE56FF4F208167
:100FA000209513962C931397E92FF0E0EE56FF4F00
:100FB0009081909514969C930895991B79E004C0B4
:100FC000991F961708F0961B881F7A95C9F7809588
:100FD000089597FB072E16F4009407D077FD09D0EB
:100FE0000E942A0807FC05D03EF4909581959F4FFA
:100FF0000895709561957F4F0895A1E21A2EAA1B5E
:10100000BB1BFD010DC0AA1FBB1FEE1FFF1FA217B8
:10101000B307E407F50720F0A21BB30BE40BF50BB5
:10102000661F771F881F991F1A9469F7609570953E
:10103000809590959B01AC01BD01CF0108950E9460
:101040004408A59F900DB49F900DA49F800D911D05
:1010500011240895AA1BBB1B51E107C0AA1FBB1F87
:10106000A617B70710F0A61BB70B881F991F5A9534
:10107000A9F780959095BC01CD010895EE0FFF1F53
:101080000590F491E02D0994A29FB001B39FC00197
:10109000A39F700D811D1124911DB29F700D811DA4
:1010A0001124911D0895CF93DF938230910510F4A0
:1010B00082E090E0E091F000F091F10020E030E07B
:1010C000C0E0D0E0309711F14081518148175907B5
:1010D000C0F04817590761F482819381209719F075
:1010E0009B838A832BC09093F1008093F00026C0ED
:1010F0002115310519F04217530718F49A01BE0162
:10110000DF01EF010280F381E02DDCCF21153105F5
:1011100009F1281B390B2430310590F412968D917A
:101120009C9113976115710521F0FB0193838283D4
:1011300004C09093F1008093F000FD01329644C00A
:10114000FD01E20FF31F81939193225031092D93FA
:101150003C933AC02091EE003091EF00232B41F4F4
:1011600020916200309163003093EF002093EE00F5
:1011700020916000309161002115310541F42DB7B7
:101180003EB74091640050916500241B350BE091FF
:10119000EE00F091EF00E217F307A0F42E1B3F0BD7
:1011A0002817390778F0AC014E5F5F4F24173507D9
:1011B00048F04E0F5F1F5093EF004093EE00819375
:1011C000919302C0E0E0F0E0CF01DF91CF9108956C
:1011D0000F931F93CF93DF93009709F48CC0FC010A
:1011E0003297138212820091F0001091F1000115E4
:1011F000110581F420813181820F931F2091EE002F
:101200003091EF002817390779F5F093EF00E0935C
:10121000EE0071C0D80140E050E0AE17BF0750F4B7
:1012200012962D913C911397AD012115310509F1CD
:10123000D901F3CF9D01DA0133832283608171816B
:10124000860F971F8217930769F4EC012881398173
:10125000260F371F2E5F3F4F318320838A819B816A
:1012600093838283452B29F4F093F100E093F000FF
:1012700042C01396FC93EE931297ED014991599158
:101280009E01240F351FE217F30771F480819181CD
:10129000840F951F029611969C938E938281938161
:1012A00013969C938E931297E0E0F0E0D80112968B
:1012B0008D919C911397009719F0F8018C01F6CF4E
:1012C0008D919C9198012E5F3F4F820F931F20912B
:1012D000EE003091EF002817390769F4309729F4B0
:1012E0001092F1001092F00002C01382128210934B
:1012F000EF000093EE00DF91CF911F910F910895C1
:1013000010E0CDE2D0E004C0FE010E943E0821962C
:0A131000CE32D107C9F7F894FFCFE1
:10131A000000F20020000000000058005900A3005D
:10132A0000000000FC000D015B00000000008503C6
:10133A00930352031E0322016101AC01FD014E0217
:10134A00AE023F065B4F666D7D077F6F777C395E25
:0C135A007971000000009007A9079107BE
:00000001FF
