:100000000C9439000C9461000C9461000C94610014
:100010000C9461000C9461000C9461000C946100DC
:100020000C9461000C9461000C9461000C946100CC
:100030000C9461000C9461000C9468040C946100B1
:100040000C9461000C9461000C9461000C946100AC
:100050000C9461000C9461000C9461000C9461009C
:100060000C9461000C9461005103C103D2046B062F
:100070006F0611241FBECFEFD8E0DEBFCDBF11E069
:10008000A0E0B1E0EEE8FDE002C005900D92AE32D6
:10009000B107D9F721E0AEE2B1E001C01D92AA3765
:1000A000B207E1F710E0C8E3D0E004C02197FE01F9
:1000B0000E94B406C433D107C9F70E9475030C949B
:1000C000BA060C94000082E300008150E9F708951D
:1000D0000F931F93CF93DF9300D01F92CDB7DEB75E
:1000E0008C01DC01ED91FC910190F081E02D2B83DE
:1000F0004A8369830995D801ED91FC910480F581CB
:10010000E02D6981C8010995D801ED91FC91048029
:10011000F581E02D4A81642FC8010995D801ED9140
:10012000FC910480F581E02D2B81622FC801099597
:10013000D801ED91FC910280F381E02DC8010F9070
:100140000F900F90DF91CF911F910F910994FC01B7
:1001500011821082138212821582148227E045E1F7
:1001600062ED8EE291E00E94680028E146E162EDD6
:100170008EE291E00C946800399838983998389A52
:10018000399A38980C9463000F931F93CF93DF93A1
:100190001F92CDB7DEB7062F18E0399A0E94630090
:1001A00007FF02C0389801C0389A0E94630039984E
:1001B0000E946300000F115081F7399A0E9463007A
:1001C00038980E94630039980E94630086B1809538
:1001D0008170399A89830E94630089810F90DF9131
:1001E000CF911F910F910895399A389A3998389A7A
:1001F000399838980C9463001F93CF93DF93162F90
:100200003898399A0E946300D8E0C0E0CC0F399842
:100210000E9463003099C160399A0E946300D150F6
:10022000A9F7112311F0389A01C038980E94630091
:1002300039980E946300399A0E94630038980E949E
:1002400063008C2FDF91CF911F910895CF93DF939F
:10025000EC018EE291E00E94BC0062ED8EE291E042
:100260000E94C4006DE18EE291E00E94C4008EE223
:1002700091E00E94F4008EE291E00E94BC0063EDE8
:100280008EE291E00E94C40061E08EE291E00E9463
:10029000FC001882898361E08EE291E00E94FC00FC
:1002A00028813981282B3983288361E08EE291E00F
:1002B0000E94FC001A828B8361E08EE291E00E9432
:1002C000FC002A813B81282B3B832A8361E08EE25C
:1002D00091E00E94FC001C828D8360E08EE291E040
:1002E0000E94FC002C813D81282B3D832C838EE2D3
:1002F00091E0DF91CF910C94F4001092C50087E655
:100300008093C400E2ECF0E0808186608083E1ECC1
:10031000F0E0808188618083089508956093C6002D
:100320008091C00085FD02C00000FACF08950F93B0
:100330001F93CF93DF9300D000D0CDB7DEB78C01F1
:10034000DC01ED91FC910190F081E02D2C833B8349
:100350004A8369830995D801ED91FC910480F58168
:10036000E02D6981C8010995D801ED91FC910480C7
:10037000F581E02D4A81642FC8010995D801ED91DE
:10038000FC910480F581E02D3B81632FC801099524
:10039000D801ED91FC910480F581E02D2C81622F34
:1003A000C8010995D801ED91FC910280F381E02DFF
:1003B000C8010F900F900F900F90DF91CF911F9178
:1003C0000F910994CF92DF92EF92FF920F931F93B8
:1003D000CF93DF9300D000D0CDB7DEB76C01DC0146
:1003E000ED91FC910190F081E02D2B833C834A83B9
:1003F00069830995D601ED91FC910480F581E02D8A
:100400006981C6010995D601ED91FC910480F581C1
:10041000E02D4A81642FC60109952B81E22E3C8193
:10042000F32E0E0D1F1DD601ED91FC91E016F10685
:1004300049F0D7016D917D010480F581E02DC60161
:100440000995F1CF0280F381E02DC6010F900F9046
:100450000F900F90DF91CF911F910F91FF90EF9030
:10046000DF90CF900994EF92FF921F93CF93DF9389
:100470001F92CDB7DEB77C01162FDC01ED91FC9108
:100480000190F081E02D49830995D701ED91FC9110
:100490000480F581E02D612FC7010995D701ED9109
:1004A000FC910480F581E02D4981642FC7010995F5
:1004B000D701ED91FC910190F081E02DC7010995E4
:1004C000D701ED91FC91612F61600480F581E02DF1
:1004D000C7010995D701ED91FC910680F781E02DC8
:1004E00060E0C7010995182FD701ED91FC910280BA
:1004F000F381E02DC7010995812F0F90DF91CF91F6
:100500001F91FF90EF900895EF92FF920F931F932A
:10051000CF93DF931F92CDB7DEB77C01162FDC019E
:10052000ED91FC910190F081E02D49830995D7016F
:10053000ED91FC910480F581E02D612FC7010995B3
:10054000D701ED91FC910480F581E02D4981642F64
:10055000C7010995D701ED91FC910190F081E02D43
:10056000C7010995D701ED91FC91612F616004806D
:10057000F581E02DC7010995D701ED91FC91068029
:10058000F781E02D61E0C7010995082F10E0102FD9
:100590000027D701ED91FC910680F781E02D60E006
:1005A000C7010995082BD701ED91FC910280F381D9
:1005B000E02DC7010995C8010F90DF91CF911F91E0
:1005C0000F91FF90EF900895CF92DF92EF92FF92FC
:1005D0000F931F93CF93DF9300D01F92CDB7DEB759
:1005E0006C01F62EDC01ED91FC910190F081E02D83
:1005F0002A833B8349830995D601ED91FC910480C0
:10060000F581E02D6F2DC6010995D601ED91FC9184
:100610000480F581E02D4981642FC6010995D6013A
:10062000ED91FC910190F081E02DC6010995D60174
:10063000ED91FC916F2D61600480F581E02DC60184
:1006400009952A81E22E3B81F32E0E0D1F1DD60146
:10065000ED91FC91E016F10651F00680F781E02D56
:1006600061E0C6010995F70181937F01F0CF028017
:10067000F381E02DC6010F900F900F90DF91CF9185
:100680001F910F91FF90EF90DF90CF9009948823F6
:1006900021F03998823019F00895399A0895419AD5
:1006A000089584E091E090932F0180932E01389873
:1006B00081E00E944703409841980895809132015B
:1006C00090913301009719F0019749F008952D9A00
:1006D00081E090E0909333018093320108952D984A
:1006E00010923301109232010895CF93DF9300D01E
:1006F00000D000D0CDB7DEB7CE0101960E94A70092
:1007000020E042E350E06EE573E088E791E00E946C
:10071000EF0388E191E09F938F9389E791E09F93A6
:100720008F930E94E1050F900F900F900F9083E23E
:10073000E82E81E0F82E09E711E0CE0101960E9433
:1007400026018E818F938D818F938C818F938B81E6
:100750008F938A818F9389818F93FF92EF921F935A
:100760000F930E94E10544E650E060E070E088E706
:1007700091E00E9434040FB6F894DEBF0FBECDBFE7
:10078000DCCF259A089580E090E0FC0123E0EE0F95
:10079000FF1F2A95E1F7EC5CFE4F11821082138255
:1007A0001282158214821682178201968830910572
:1007B00061F71092740110927501109276011092F7
:1007C000770184B5826084BD89EF87BD83E085BDF4
:1007D00080916E00826080936E007894089580E02E
:1007E00090E0EFEFDC0133E0AA0FBB1F3A95E1F791
:1007F000AC5CBE4F0D90BC91A02DAB2B09F4E82F43
:1008000001968830910571F7EF3F71F088E0E802BA
:10081000F0011124EC5CFE4F7183608353834283AB
:1008200055834483168227830895CF93DF9300D0A6
:1008300000D0CDB7DEB7F894809174019091750126
:10084000A0917601B091770189839A83AB83BC83B1
:10085000789469817A818B819C810F900F900F90A1
:100860000F90DF91CF910895CF92DF92EF92FF9298
:100870000F931F93CF93DF9300D000D0CDB7DEB797
:100880008C016A017B010E941504C60ED71EE81E6A
:10089000F91EC982DA82EB82FC82C8010E9415042B
:1008A000C980DA80EB80FC806C157D058E059F0584
:1008B00010F40000F2CF0F900F900F900F90DF9187
:1008C000CF911F910F91FF90EF90DF90CF900895FF
:1008D0001F920F920FB60F9211242F933F934F93B5
:1008E0005F936F937F938F939F93AF93BF93CF93B8
:1008F000DF93EF93FF93C0E0D0E0CE0123E0880FB9
:10090000991F2A95E1F7FC01EC5CFE4F24813581AB
:10091000232B31F08481958101979583848318C0BE
:10092000228133813583248326812F3F19F026814C
:100930002F5F2683FC01EC5CFE4F8781811108C08C
:1009400080819181892B21F00190F081E02D099522
:100950002196C830D10589F6809174019091750176
:10096000A0917601B09177010196A11DB11D8093F0
:10097000740190937501A0937601B0937701FF9174
:10098000EF91DF91CF91BF91AF919F918F917F9127
:100990006F915F914F913F912F910F900FBE0F90EC
:1009A0001F90189588E791E00C94C3030F931F9351
:1009B000CF93DF938C01EB016991662321F0C8018D
:1009C0000E948E01F9CFDF91CF911F910F91089571
:1009D0008F929F92AF92BF92CF92DF92EF92FF924F
:1009E0000F931F93CF93DF93CDB7DEB72C970FB63E
:1009F000F894DEBF0FBECDBF7C0177FF09C07095B4
:100A00006095509541955F4F6F4F7F4F01E001C05A
:100A100000E01C861AE09AE0892E912CA12CB12CC2
:100A2000CC24C394D12CCC0EDD1EC10ED11CCB0125
:100A3000BA01A50194010E949506942F852F605D4F
:100A4000F6016083A901692F782F8FEF810F41157F
:100A500051056105710511F0182FE2CF002349F00F
:100A6000E1E0F0E0EC0FFD1FE80FF11D9DE2908347
:100A7000182F61E070E06C0F7D1F610F711DC701C1
:100A80000E94D6042C960FB6F894DEBF0FBECDBFE1
:100A9000DF91CF911F910F91FF90EF90DF90CF905A
:100AA000BF90AF909F908F9008958F929F92AF923A
:100AB000BF92CF92DF92EF92FF921F93CF93DF937B
:100AC000CDB7DEB72C970FB6F894DEBF0FBECDBF03
:100AD0006C011C861AE09AE0892E912CA12CB12C75
:100AE000EE24E394F12CEC0EFD1EE10EF11CCB0183
:100AF000BA01A50194010E947306942F852F605DB1
:100B0000F7016083A901692F782F11504115510514
:100B10006105710529F7B701C6010E94D6042C961C
:100B20000FB6F894DEBF0FBECDBFDF91CF911F91FE
:100B3000FF90EF90DF90CF90BF90AF909F908F90FD
:100B40000895EF92FF92CF93DF93CDB7DEB72C9746
:100B50000FB6F894DEBF0FBECDBFFC011C862AE0A5
:100B6000942F9F70E22EF12CA1E0B0E0AC0FBD1FDE
:100B7000AE0DBF1D9A3014F4905D01C0995A9C933C
:100B800084E076956795579547958A95D1F72150DA
:100B9000411551056105710519F761E070E06C0FB1
:100BA0007D1F6E0D7F1DCF010E94D6042C960FB6BF
:100BB000F894DEBF0FBECDBFDF91CF91FF90EF90D5
:100BC0000895AF92BF92CF92DF92EF92FF920F9370
:100BD0001F93CF93DF93CDB7DEB7ED84FE848E01F4
:100BE0000F5E1F4FC12CD12CEF85F889EC0DFD1D38
:100BF0006081662309F464C0653239F0C7010E9440
:100C00008E018FEFC81AD80AEFCF8181893611F192
:100C100084F4853209F44CC0833609F04DC0580184
:100C2000F2E0AF0EB11CF8016081C7010E948E0195
:100C30002EC08537F1F0883761F18337E9F5580127
:100C4000F2E0AF0EB11CF80160817181C7010E9412
:100C5000D6041DC0580192E0A90EB11CF8014081D4
:100C60005181052E000C660B770BC7010E94E8042A
:100C70000EC05801F2E0AF0EB11CF8014081518165
:100C8000052E000C660B770BC7010E9455058501E8
:100C900013C05801F2E0AF0EB11CF8014081518140
:100CA000052E000C660B770BC7010E94A105EFCF44
:100CB00065E2C7010E948E01F2E0CF0ED11C94CFF5
:100CC000DF91CF911F910F91FF90EF90DF90CF9028
:100CD000BF90AF90089589E791E00C947D0189E77A
:100CE00091E00C948D01A1E21A2EAA1BBB1BFD0101
:100CF0000DC0AA1FBB1FEE1FFF1FA217B307E407FB
:100D0000F50720F0A21BB30BE40BF50B661F771F52
:100D1000881F991F1A9469F7609570958095909532
:100D20009B01AC01BD01CF010895052E97FB1EF478
:100D300000940E94AC0657FD07D00E94730607FC82
:100D400003D04EF40C94AC06509540953095219507
:100D50003F4F4F4F5F4F08959095809570956195E7
:100D60007F4F8F4F9F4F0895EE0FFF1F0590F49117
:100D7000E02D099410E0C8E3D0E004C0FE010E9419
:0E0D8000B4062196C933D107C9F7F894FFCF06
:100D8E0000000000BC00F400C400FC0068009701E5
:100D9E00E20133028402E402696E697420646F6EAC
:0E0DAE00650A0025692025692025690A0000D4
:00000001FF
