:100000000C942F000C9457000C9457000C9457003C
:100010000C9457000C9457000C9457000C94570004
:100020000C9457000C9457000C9457000C945700F4
:100030000C9457000C9457000C9457000C945700E4
:100040000C9457000C9457000C9457000C94FD0628
:100050000C9457002F0325046707FA08FE081124A3
:100060001FBECFE5D4E0DEBFCDBF10E0A0E6B0E01C
:10007000E8EEF5E102C005900D92A639B107D9F777
:1000800020E0A6E9B0E001C01D92A23EB207E1F770
:1000900010E0CEE2D0E004C02197FE010E944309A7
:1000A000CA32D107C9F70E94FD030C94E70A0C94E9
:1000B000000010BC80E489B980B5866880BD8AB133
:1000C00088618AB9089508956CB95D9902C00000ED
:1000D000FCCF089580EF81BB959881EA8FBD82E0C7
:1000E0008EBD1BBC1ABC19BC18BC08956F3F7105AE
:1000F00009F03CF461308FEF78072CF461E07FEF7A
:1001000002C06FEF70E04F3F510509F044F44130F9
:100110008FEF58076CF0141615061CF005C04FEF52
:1001200050E04ABD969A0BC04115510539F002C006
:1001300041E05FEF41954ABD969801C01ABC161682
:1001400017061CF468BD979808956115710521F094
:10015000619568BD979A089518BC08950F931F93F1
:10016000CF93DF9300D01F92CDB7DEB78C01DC01B7
:10017000ED91FC910190F081E02D2B834A836983FE
:100180000995D801ED91FC910480F581E02D6981FC
:10019000C8010995D801ED91FC910480F581E02D0D
:1001A0004A81642FC8010995D801ED91FC91048022
:1001B000F581E02D2B81622FC8010995D801ED91C1
:1001C000FC910280F381E02DC8010F900F900F90F9
:1001D000DF91CF911F910F9109940F931F93CF93AC
:1001E000DF9300D000D0CDB7DEB78C01DC01ED91FC
:1001F000FC910190F081E02D2C833B834A8369833D
:100200000995D801ED91FC910480F581E02D69817B
:10021000C8010995D801ED91FC910480F581E02D8C
:100220004A81642FC8010995D801ED91FC910480A1
:10023000F581E02D3B81632FC8010995D801ED912F
:10024000FC910480F581E02D2C81622FC801099575
:10025000D801ED91FC910280F381E02DC8010F904F
:100260000F900F900F90DF91CF911F910F910994F4
:10027000CF92DF92EF92FF920F931F93CF93DF9372
:1002800000D000D0CDB7DEB76C01DC01ED91FC9160
:100290000190F081E02D2B833C834A83698309958B
:1002A000D601ED91FC910480F581E02D6981C601B4
:1002B0000995D601ED91FC910480F581E02D4A81EC
:1002C000642FC60109952B81E22E3C81F32E0E0D81
:1002D0001F1DD601ED91FC91E016F10649F0D70102
:1002E0006D917D010480F581E02DC6010995F1CF66
:1002F0000280F381E02DC6010F900F900F900F90B8
:10030000DF91CF911F910F91FF90EF90DF90CF90F1
:100310000994EF92FF921F93CF93DF931F92CDB773
:10032000DEB77C01162FDC01ED91FC910190F0818C
:10033000E02D49830995D701ED91FC910480F58169
:10034000E02D612FC7010995D701ED91FC91048043
:10035000F581E02D4981642FC7010995D701ED9101
:10036000FC910190F081E02DC7010995D701ED9135
:10037000FC91612F61600480F581E02DC701099532
:10038000D701ED91FC910680F781E02D60E0C70177
:100390000995182FD701ED91FC910280F381E02D92
:1003A000C7010995812F0F90DF91CF911F91FF9089
:1003B000EF900895EF92FF920F931F93CF93DF93E7
:1003C0001F92CDB7DEB77C01162FDC01ED91FC91B9
:1003D0000190F081E02D49830995D701ED91FC91C1
:1003E0000480F581E02D612FC7010995D701ED91BA
:1003F000FC910480F581E02D4981642FC7010995A6
:10040000D701ED91FC910190F081E02DC701099594
:10041000D701ED91FC91612F61600480F581E02DA1
:10042000C7010995D701ED91FC910680F781E02D78
:1004300061E0C7010995082F10E0102F0027D701B0
:10044000ED91FC910680F781E02D60E0C7010995F0
:10045000082BD701ED91FC910280F381E02DC701BB
:100460000995C8010F90DF91CF911F910F91FF90D7
:10047000EF900895CF92DF92EF92FF920F931F9328
:10048000CF93DF9300D01F92CDB7DEB76C01F62E6D
:10049000DC01ED91FC910190F081E02D2A833B83FA
:1004A00049830995D601ED91FC910480F581E02DF9
:1004B0006F2DC6010995D601ED91FC910480F5815F
:1004C000E02D4981642FC6010995D601ED91FC917B
:1004D0000190F081E02DC6010995D601ED91FC91C6
:1004E0006F2D61600480F581E02DC60109952A8198
:1004F000E22E3B81F32E0E0D1F1DD601ED91FC91D6
:10050000E016F10651F00680F781E02D61E0C601AA
:100510000995F70181937F01F0CF0280F381E02DEF
:10052000C6010F900F900F90DF91CF911F910F9107
:10053000FF90EF90DF90CF900994882321F0BF982F
:10054000823019F00895BF9A0895C79A089584E1FA
:1005500000008150E9F708951F93CF93DF93162F82
:10056000BD9880E00E949D020E94A702D8E0C0E0F2
:10057000CC0F81E00E949D020E94A702B599C16044
:1005800080E00E949D020E94A702D15089F71123AA
:1005900011F0BD9A01C0BD980E94A70281E00E949F
:1005A0009D020E94A70280E00E949D020E94A70275
:1005B000BD980E94A7028C2FDF91CF911F910895C3
:1005C000CF93DF93D62FC8E080E00E949D020E9467
:1005D000A702D7FF02C0BD9801C0BD9A0E94A70222
:1005E00081E00E949D020E94A702DD0FC15061F7C9
:1005F00080E00E949D020E94A702BD980E94A7026F
:1006000081E00E949D020E94A702C6B380E00E9482
:100610009D020E94A702C5FBCC27C0F981E08C2770
:10062000DF91CF91089581E00E949D02BD9881E005
:100630000E949D02BD9A80E00E949D02BD980C948C
:10064000A70280E00E949D02BD9A81E00E949D0267
:10065000BD9A81E00E949D02BD980C94A70284E699
:1006600090E09093970080939600BD9881E00E945F
:100670009D02C598C798089580919A0090919B001B
:10068000009719F0019749F00895DD9A81E090E014
:1006900090939B0080939A000895DD9810929B00A0
:1006A00010929A000895CF93DF93CDB7DEB7AE973F
:1006B0000FB6F894DEBF0FBECDBF8CA7CE018796D4
:1006C0000E946A009E012F5F3F4F5901C9010E949D
:1006D000270466E970E0C5010E947305C12CD12C86
:1006E000760118A619A61AA61BA600E010E0212C78
:1006F000312CADA6BEA660E08DA59EA50E94280463
:100700003CA53323C1F08D899E89AF89B88D9C01AA
:10071000AD0166277727CB01621B730B840B950B0A
:100720000E94EE092DEC3CEC4CEC5DE30E947A0A51
:100730009B01AC0103C020E030E0A90160E070E063
:10074000CB010E9449094B015C0120E030E044E00C
:1007500052E40E947A0A2B013C0120E030E04CE791
:1007600052ECB801C1010E947A0A9B01AC01C3019D
:10077000B2010E944A092B013C0120E030E040EF29
:1007800051E468A579A58AA59BA50E947A0A9B01D8
:10079000AC01C301B2010E944A099B01AC01C7012F
:1007A000B6010E944A096B017C019B01AC0160E02B
:1007B00070E0CB010E9449090E94B6092B013C015F
:1007C00020E030E0A901C701B6010E944A090E9459
:1007D000B609A201CE0187960E94760042E050E061
:1007E00060E070E080EE90E00E94C90608A719A7BB
:1007F0002AA63BA6840115017ECFBB98C39ABA985E
:10080000C29A20E048EC50E06CE373E080EE90E0A8
:100810000E94840683E890E09F938F9381EE90E09E
:100820009F938F930E9476080F900F900F900F90D8
:10083000B39B04C0B29B02C00000FACFB39903C0BF
:1008400081E00E94530380E0FCCFD59A089508957B
:100850004F925F926F927F928F929F92AF92BF92D0
:10086000CF92DF92EF92FF920F931F93CF93DF937C
:10087000EC01B62E8CA19DA1DC01ED91FC910190C3
:10088000F081E02D09958CA19DA1DC01ED91FC91F9
:100890000480F581E02D60ED09958CA19DA1DC011E
:1008A000ED91FC910480F581E02D63E409958CA124
:1008B0009DA1DC01ED91FC910280F381E02D099571
:1008C0008CA19DA1DC01ED91FC910190F081E02DC6
:1008D00009958CA19DA1DC01ED91FC910480F5812D
:1008E000E02D61ED09958CA19DA1DC01ED91FC91BC
:1008F0000680F781E02D61E00995082F8CA19DA16C
:10090000DC01ED91FC910680F781E02D61E0099515
:1009100010E0102F0027082B8CA19DA1DC01ED9188
:10092000FC910680F781E02D61E00995E82E8CA10D
:100930009DA1DC01ED91FC910680F781E02D61E045
:100940000995F12CFE2CEE24E82A8CA19DA1DC0156
:10095000ED91FC910680F781E02D61E00995C82EAC
:100960008CA19DA1DC01ED91FC910680F781E02D29
:1009700060E00995D12CDC2CCC24C82A8CA19DA147
:10098000DC01ED91FC910280F381E02D0995C80115
:10099000110FAA0BBB0B2701FF0C660877080D2C63
:1009A000000CEE08FF08BB2021F1088D198D2A8D5F
:1009B0003B8D080F191F2A1F3B1F088F198F2A8F85
:1009C0003B8F0C8D1D8D2E8D3F8D040D151D261D0D
:1009D000371D0C8F1D8F2E8F3F8F08A119A12AA1C3
:1009E0003BA10C0D1D1D2E1D3F1D08A319A32AA3FD
:1009F0003BA3088D198D2A8D3B8DBC01CD01601B59
:100A0000710B820B930B688379838A839B830C8D94
:100A10001D8D2E8D3F8D53014201801A910AA20A2D
:100A2000B30A8C829D82AE82BF8208A119A12AA13D
:100A30003BA1C01AD10AE20AF30AC886D986EA861F
:100A4000FB8624E6422E512C612C712CA3019201CD
:100A50000E9424098C859D85AE85BF85820F931FDA
:100A6000A41FB51F8C879D87AE87BF87C501B401C2
:100A7000A30192010E94240988899989AA89BB89C6
:100A8000820F931FA41FB51F888B998BAA8BBB8BDA
:100A9000C701B601A30192010E9424098C899D8996
:100AA000AE89BF89820F931FA41FB51F8C8B9D8BAE
:100AB000AE8BBF8BDF91CF911F910F91FF90EF9085
:100AC000DF90CF90BF90AF909F908F907F906F906E
:100AD0005F904F900895415051096109710910F0DC
:100AE0000000F9CF0895CF92DF92EF92FF921F930B
:100AF000CF93DF93EC017DA36CA3188219821A8235
:100B00001B821C821D821E821F82188619861A86ED
:100B10001B86188E198E1A8E1B8E1C8E1D8E1E8E95
:100B20001F8E18A219A21AA21BA21C861D861E8641
:100B30001F86188A198A1A8A1B8A1C8A1D8A1E8A8D
:100B40001F8A40E157E260E070E00E946B058CA1D3
:100B50009DA1DC01ED91FC910084F185E02D21E067
:100B60004BE660ED09958CA19DA1DC01ED91FC9116
:100B70000084F185E02D23E04AE160ED09958CA128
:100B80009DA1DC01ED91FC910084F185E02D24E034
:100B900049E160ED09958CA19DA1DC01ED91FC91ED
:100BA0000684F785E02D4BE160ED0995182F8CA1A7
:100BB0009DA1DC01ED91FC91212F2F710084F18525
:100BC000E02D4BE160ED09958CA19DA1DC01ED913B
:100BD000FC91212F277E0084F185E02D4BE160ED13
:100BE00009958CA19DA1DC01ED91FC91212F206143
:100BF0000084F185E02D4BE160ED099540E157E27D
:100C000060E070E0CE010E946B0560E0CE010E94C2
:100C10002804E12CF12C61E0CE010E94280448EE6A
:100C200053E060E070E0CE010E946B05BFEFEB1A6D
:100C3000FB0A88ECE816F10471F7688D798D8A8DCE
:100C40009B8D28ECC22ED12CE12CF12CA701960112
:100C50000E942409288F398F4A8F5B8F6C8D7D8D80
:100C60008E8D9F8DA70196010E9424092C8F3D8FA8
:100C70004E8F5F8F68A179A18AA19BA1A7019601E0
:100C80000E94240928A339A34AA35BA31C861D86BE
:100C90001E861F86188A198A1A8A1B8A1C8A1D8A30
:100CA0001E8A1F8ADF91CF911F91FF90EF90DF90F6
:100CB000CF90089580E090E0FC0123E0EE0FFF1F4D
:100CC0002A95E1F7E456FF4F1182108213821282B7
:100CD000158214821682178201968830910561F779
:100CE0001092DC001092DD001092DE001092DF0006
:100CF00083B7886083BF8BE98CBF83E083BF89B7EC
:100D0000826089BF7894089580E090E0EFEFDC0185
:100D100033E0AA0FBB1F3A95E1F7A456BF4F0D90E1
:100D2000BC91A02DAB2B09F4E82F019688309105DA
:100D300071F7EF3F71F088E0E802F0011124E4560A
:100D4000FF4F7183608353834283558344831682AC
:100D500027830895CF93DF9300D000D0CDB7DEB7BF
:100D6000F8948091DC009091DD00A091DE00B091BC
:100D7000DF0089839A83AB83BC83789469817A810D
:100D80008B819C810F900F900F900F90DF91CF91EE
:100D90000895CF92DF92EF92FF920F931F93CF931C
:100DA000DF9300D000D0CDB7DEB78C016A017B01A4
:100DB0000E94AA06C60ED71EE81EF91EC982DA8254
:100DC000EB82FC82C8010E94AA06C980DA80EB800F
:100DD000FC806C157D058E059F0510F40000F2CF98
:100DE0000F900F900F900F90DF91CF911F910F9167
:100DF000FF90EF90DF90CF9008951F920F920FB663
:100E00000F9211242F933F934F935F936F937F9390
:100E10008F939F93AF93BF93CF93DF93EF93FF9302
:100E2000C0E0D0E0CE0123E0880F991F2A95E1F7BA
:100E3000FC01E456FF4F24813581232B31F084815E
:100E4000958101979583848318C0228133813583EE
:100E5000248326812F3F19F026812F5F2683FC01F2
:100E6000E456FF4F8781811108C080819181892BD1
:100E700021F00190F081E02D09952196C830D1052F
:100E800089F68091DC009091DD00A091DE00B091A8
:100E9000DF000196A11DB11D8093DC009093DD0061
:100EA000A093DE00B093DF00FF91EF91DF91CF912F
:100EB000BF91AF919F918F917F916F915F914F9172
:100EC0003F912F910F900FBE0F901F90189580EEBD
:100ED00090E00C945A060F931F93CF93DF938C01ED
:100EE000EB016991662321F0C8010E946400F9CFEB
:100EF000DF91CF911F910F9108958F929F92AF92A2
:100F0000BF92CF92DF92EF92FF920F931F93CF93F6
:100F1000DF93CDB7DEB72C970FB6F894DEBF0FBEC8
:100F2000CDBF7C0177FF09C07095609550954195C4
:100F30005F4F6F4F7F4F01E001C000E01C861AE059
:100F40009AE0892E912CA12CB12CCC24C394D12CC5
:100F5000CC0EDD1EC10ED11CCB01BA01A50194013E
:100F60000E942409942F852F605DF6016083A901FA
:100F7000692F782F8FEF810F41155105610571059C
:100F800011F0182FE2CF002349F0E1E0F0E0EC0F80
:100F9000FD1FE80FF11D9DE29083182F61E070E0C6
:100FA0006C0F7D1F610F711DC7010E946B072C968E
:100FB0000FB6F894DEBF0FBECDBFDF91CF911F916A
:100FC0000F91FF90EF90DF90CF90BF90AF909F90E8
:100FD0008F9008958F929F92AF92BF92CF92DF929F
:100FE000EF92FF921F93CF93DF93CDB7DEB72C978D
:100FF0000FB6F894DEBF0FBECDBF6C011C861AE0A1
:101000009AE0892E912CA12CB12CEE24E394F12CA2
:10101000EC0EFD1EE10EF11CCB01BA01A5019401FD
:101020000E940209942F852F605DF7016083A9015A
:10103000692F782F1150411551056105710529F768
:10104000B701C6010E946B072C960FB6F894DEBF5D
:101050000FBECDBFDF91CF911F91FF90EF90DF903A
:10106000CF90BF90AF909F908F900895EF92FF9296
:10107000CF93DF93CDB7DEB72C970FB6F894DEBFD2
:101080000FBECDBFFC011C862AE0942F9F70E22E7C
:10109000F12CA1E0B0E0AC0FBD1FAE0DBF1D9A302A
:1010A00014F4905D01C0995A9C9384E076956795FD
:1010B000579547958A95D1F72150411551056105FE
:1010C000710519F761E070E06C0F7D1F6E0D7F1DDB
:1010D000CF010E946B072C960FB6F894DEBF0FBEAF
:1010E000CDBFDF91CF91FF90EF900895AF92BF9267
:1010F000CF92DF92EF92FF920F931F93CF93DF93E4
:10110000CDB7DEB7ED84FE848E010F5E1F4FC12C7C
:10111000D12CEF85F889EC0DFD1D6081662309F463
:101120005EC0653239F0C7010E9464008FEFC81AB3
:10113000D80AEFCF8181893611F184F4853209F420
:1011400046C0833609F047C05801F2E0AF0EB11C2B
:10115000F8016081C7010E9464002AC08537E1F070
:10116000883741F18337B9F55801F2E0AF0EB11C71
:10117000F80160817181C7010E946B0719C0580195
:1011800094E0A90EB11CF801408151816281738104
:10119000C7010E947D070CC05801F4E0AF0EB11CDE
:1011A000F8014081518162817381C7010E94EA0781
:1011B000850111C05801F4E0AF0EB11CF801408167
:1011C000518162817381C7010E943608F1CF65E2C7
:1011D000C7010E946400F2E0CF0ED11C9ACFDF91CC
:1011E000CF911F910F91FF90EF90DF90CF90BF9024
:1011F000AF90089581EE90E00C94590081EE90E05C
:101200000C946300A1E21A2EAA1BBB1BFD010DC0AA
:10121000AA1FBB1FEE1FFF1FA217B307E407F507A6
:1012200020F0A21BB30BE40BF50B661F771F881F82
:10123000991F1A9469F760957095809590959B0118
:10124000AC01BD01CF010895052E97FB1EF400945B
:101250000E943B0957FD07D00E94020907FC03D0FA
:101260004EF40C943B0950954095309521953F4F95
:101270004F4F5F4F089590958095709561957F4F82
:101280008F4F9F4F0895EE0FFF1F0590F491E02DB3
:1012900009945058BB27AA270E9461090C94400A60
:1012A0000E94320A38F00E94390A20F039F49F3F38
:1012B00019F426F40C942F0A0EF4E095E7FB0C9435
:1012C000290AE92F0E94510A58F3BA1762077307D7
:1012D0008407950720F079F4A6F50C94730A0EF4B0
:1012E000E0950B2EBA2FA02D0B01B90190010C0136
:1012F000CA01A0011124FF27591B99F0593F50F44E
:10130000503E68F11A16F040A22F232F342F4427A5
:10131000585FF3CF469537952795A795F04053959D
:10132000C9F77EF41F16BA0B620B730B840BBAF06D
:101330009150A1F0FF0FBB1F661F771F881FC2F7D8
:101340000EC0BA0F621F731F841F48F487957795EC
:101350006795B795F7959E3F08F0B0CF9395880FA6
:1013600008F09927EE0F9795879508950E94BD097B
:101370006894B1110C94740A08950E94590A88F077
:101380009F5798F0B92F9927B751B0F0E1F0660F49
:10139000771F881F991F1AF0BA95C9F714C0B1308A
:1013A00091F00E94730AB1E008950C94730A672FBC
:1013B000782F8827B85F39F0B93FCCF386957795B9
:1013C0006795B395D9F73EF49095809570956195A2
:1013D0007F4F8F4F9F4F0895E89409C097FB3EF4CD
:1013E00090958095709561957F4F8F4F9F4F992372
:1013F000A9F0F92F96E9BB279395F69587957795F0
:101400006795B795F111F8CFFAF4BB0F11F460FFAF
:101410001BC06F5F7F4F8F4F9F4F16C0882311F007
:1014200096E911C0772321F09EE8872F762F05C01B
:10143000662371F096E8862F70E060E02AF09A95B6
:10144000660F771F881FDAF7880F9695879597F9AB
:10145000089597F99F6780E870E060E008959FEF36
:1014600080EC089500240A9416161706180609063B
:10147000089500240A94121613061406050608950A
:10148000092E0394000C11F4882352F0BB0F40F492
:10149000BF2B11F460FF04C06F5F7F4F8F4F9F4FD2
:1014A000089557FD9058440F551F59F05F3F71F054
:1014B0004795880F97FB991F61F09F3F79F08795BB
:1014C0000895121613061406551FF2CF4695F1DF44
:1014D00008C0161617061806991FF1CF86957105D4
:1014E000610508940895E894BB2766277727CB0108
:1014F00097F908950E948D0A0C94400A0E94320ABE
:1015000038F00E94390A20F0952311F00C94290A32
:101510000C942F0A11240C94740A0E94510A70F33F
:10152000959FC1F3950F50E0551F629FF001729F88
:10153000BB27F00DB11D639FAA27F00DB11DAA1F97
:10154000649F6627B00DA11D661F829F2227B00DE4
:10155000A11D621F739FB00DA11D621F839FA00D6F
:10156000611D221F749F3327A00D611D231F849FBF
:10157000600D211D822F762F6A2F11249F57504016
:101580009AF0F1F088234AF0EE0FFF1FBB1F661F91
:10159000771F881F91505040A9F79E3F510580F05A
:1015A0000C94290A0C94740A5F3FE4F3983ED4F338
:1015B000869577956795B795F795E7959F5FC1F7FE
:1015C000FE2B880F911D9695879597F9089510E049
:1015D000CEE2D0E004C0FE010E9443092196CF3242
:0815E000D107C9F7F894FFCF11
:1015E8000000000013032103E002AC02AE00ED008E
:1015F80038018901DA013A0225692025692025691F
:10160800203A000A7465726D696E616C20726561BA
:0616180064790A0A0000DB
:00000001FF
