:100000000C942E000C9456000C9456000C94560040
:100010000C9456000C9456000C9456000C94560008
:100020000C9456000C9456000C9456000C945600F8
:100030000C9456000C9456000C9456000C945600E8
:100040000C9456000C9456000C9456000C94E50544
:100050000C945600340526069B08380511241FBE53
:10006000CFE5D4E0DEBFCDBF10E0A0E6B0E0EAEE21
:10007000F7E102C005900D92AC3AB107D9F720E044
:10008000ACEAB0E001C01D92A23FB207E1F710E078
:10009000CDE2D0E004C02197FE010E94F508CA32EB
:1000A000D107C9F70E9409020C94E80B0C940000D8
:1000B000FC01108211821282138214821582168230
:1000C0001782108611861286138614861586168668
:1000D0001786108A118A128A138A148A158A168A38
:1000E000178A80E090E0A0E0B0E8808F918FA28F27
:1000F000B38F148E158E168E178E089508952F9235
:100100003F924F925F926F927F928F929F92AF92A7
:10011000BF92CF92DF92EF92FF920F931F93CF93F4
:10012000DF93CDB7DEB73C011A012B01FC01108231
:1001300011821282138284829582A682B7821086EF
:100140001186128613861486158616861786108ADF
:10015000118A128A138AA9019801C201B1010E9471
:10016000FC08A70196010E94FC08F301648B758BC3
:10017000868B978B52014101B7FAB094B7F8B094CF
:10018000A7019601C701B6010E94FC089B01AC01C2
:10019000C501B4010E94FB08F301608F718F828F4B
:1001A000938FC48ED58EE68EF78EDF91CF911F91FF
:1001B0000F91FF90EF90DF90CF90BF90AF909F9006
:1001C0008F907F906F905F904F903F902F90089509
:1001D0004F925F926F927F928F929F92AF92BF9257
:1001E000CF92DF92EF92FF92CF93DF93EC01CB019E
:1001F000BA01CC84DD84EE84FF84C88AD98AEA8A75
:10020000FB8A88849984AA84BB848C869D86AE866A
:10021000BF86688779878A879B872C893D894E8925
:100220005F890E945A0A2B013C01288D398D4A8D25
:100230005B8DC501B4010E945A0A9B01AC01C30148
:10024000B2010E94FC084B015C012C8D3D8D4E8D4E
:100250005F8DC701B6010E945A0A9B01AC01C5011E
:10026000B4010E94FC08288139814A815B810E9487
:10027000FC08688379838A839B83CC80DD80EE8051
:10028000FF80A70196010E94550A181624F4C8821F
:10029000D982EA82FB82F7FAF094F7F8F094A7018A
:1002A0009601688179818A819B810E94680987FF14
:1002B00004C0C882D982EA82FB82688179818A81FE
:1002C0009B81DF91CF91FF90EF90DF90CF90BF9017
:1002D000AF909F908F907F906F905F904F90089518
:1002E0008F929F92AF92BF92CF92DF92EF92FF9246
:1002F000CF93DF93EC0160E003960E94A2028F8D02
:1003000098A1A9A1BAA19C01AD0166277727CB01CD
:10031000621B730B840B950B0E94A5092DEC3CEC22
:100320004CEC5DE30E945A0A9B01AC0160E070E076
:10033000CB010E94FB08AB01BC01CE01CD960E940F
:10034000E8006B017C019B01AC0160E070E0CB0137
:100350000E94FB080E946D094B015C0120E030E027
:10036000A901C701B6010E94FC080E946D09A40101
:10037000CE010296DF91CF91FF90EF90DF90CF906A
:10038000BF90AF909F908F900C944B05CF93DF93CD
:10039000EC0184E790E099838883CE01CD960E949A
:1003A0007E00CE0103960E94A102CE010296DF914B
:1003B000CF910C944A05CF93DF93EC010E94C601C4
:1003C000CE01DF91CF910C943C05CF93DF93EC01EC
:1003D0008B819C81009781F00197C1F4DD986A853B
:1003E000CE0105960E945D061C821B828A859B8534
:1003F00001969B878A870AC0DD9A68E5CE0105963B
:100400000E945D0681E090E09C838B83DF91CF9119
:100410000895CF93DF93CDB7DEB7C956D1090FB694
:10042000F894DEBF0FBECDBF8AE690E0A0969FAFE6
:100430008EAFA097D59A8EE590E08C0F9D1F059604
:100440000E944506A3961FAE1EAEA397AA961FAEA6
:100450001EAEAA9748EC50E0BE01625A7F4F8DEA6B
:1004600090E00E94A80584E790E09A838983CE01FA
:1004700003960E943E05CE0104960E94A002CE0182
:10048000CE960E9458006AEE70E0CE0104960E945B
:100490002E04812C912C2FE7A22E23E4B22EC12C06
:1004A000D12C76019701860143E353E363E37FE3B5
:1004B000CE01CE960E947F00BB98C39ABA98C29A8A
:1004C000B39B07C0B29B05C08DEA90E00E94CA05AD
:1004D000F7CFB39915C0812C912C8FE7A82E83E418
:1004E000B82EC12CD12C90E8E92E9FE3F92E00E024
:1004F00010E09801B701A601CE01CE960E947F00C0
:100500004AE050E0BE016F5F7F4F8DEA90E00E94AD
:10051000A8058DEA90E00E94CA05FBCF2AE630E0EC
:10052000FC013183208305960C942A06CF93DF9338
:10053000EC010E948E02CE01DF91CF910C943C051C
:10054000089508954F925F926F927F928F929F923B
:10055000AF92BF92CF92DF92EF92FF920F931F93D1
:10056000CF93DF93EC01B62E88AD99ADDC01ED9110
:10057000FC910684F785E02D4FE064ED09958836FF
:1005800049F481E090E0A0E0B0E088AB99ABAAAB81
:10059000BBAB04C018AA19AA1AAA1BAA88AD99ADA8
:1005A000DC01ED91FC910684F785E02D49E164EDD5
:1005B0000995082F10E0102F002788AD99ADDC01B8
:1005C000ED91FC910684F785E02D48E164ED0995F5
:1005D000082B88AD99ADDC01ED91FC910684F7857F
:1005E000E02D4BE164ED0995E82EF12CFE2CEE2474
:1005F00088AD99ADDC01ED91FC910684F785E02D85
:100600004AE164ED0995E82A88AD99ADDC01ED91E8
:10061000FC910684F785E02D4DE164ED0995C82E27
:10062000D12CDC2CCC2488AD99ADDC01ED91FC9172
:100630000684F785E02D4CE164ED0995C82AC801D0
:10064000110FAA0BBB0B2701FF0C660877080D2CB6
:10065000000CEE08FF08BB2021F10CA11DA12EA16A
:100660003FA1080F191F2A1F3B1F0CA31DA32EA378
:100670003FA308A519A52AA53BA5040D151D261DF8
:10068000371D08A719A72AA73BA70CA51DA52EA5AE
:100690003FA50C0D1D1D2E1D3F1D0CA71DA72EA730
:1006A0003FA70CA11DA12EA13FA1BC01CD01601B44
:1006B000710B820B930B6C877D878E879F8708A5B4
:1006C00019A52AA53BA553014201801A910AA20A45
:1006D000B30A888A998AAA8ABB8A0CA51DA52EA569
:1006E0003FA5C01AD10AE20AF30ACC8ADD8AEE8A53
:1006F000FF8A29E1422E512C612C712CA301920119
:100700000E94D608888D998DAA8DBB8D820F931F6C
:10071000A41FB51F888F998FAA8FBB8FC501B40105
:10072000A30192010E94D6088C8D9D8DAE8DBF8D48
:10073000820F931FA41FB51F8C8F9D8FAE8FBF8F0D
:10074000C701B601A30192010E94D60888A199A110
:10075000AAA1BBA1820F931FA41FB51F88A399A3B1
:10076000AAA3BBA388AD99ADDC01ED91FC910684F1
:10077000F785E02D49E264ED0995082F10E0102F70
:10078000002788AD99ADDC01ED91FC910684F785D9
:10079000E02D48E264ED09956801C82A88AD99AD5D
:1007A000DC01ED91FC910684F785E02D4BE264EDD0
:1007B0000995082F10E0102F002788AD99ADDC01B6
:1007C000ED91FC910684F785E02D4AE264ED0995F0
:1007D000082B88AD99ADDC01ED91FC910684F7857D
:1007E000E02D4DE264ED099590E0F82EEE2488AD01
:1007F00099ADDC01ED91FC910684F785E02D4CE28A
:1008000064ED0995A601DD0C660B770B48835983CF
:100810006A837B83012E000C220B330B0C831D8318
:100820002E833F839701282BC901092E000CAA0BA8
:10083000BB0B88879987AA87BB87DF91CF911F91D0
:100840000F91FF90EF90DF90CF90BF90AF909F906F
:100850008F907F906F905F904F900895CF92DF922E
:10086000EF92FF92CF93DF93EC01CB0179AF68AFAA
:100870001C861D861E861F86188A198A1A8A1B8A5C
:100880001C8A1D8A1E8A1F8A1CA21DA21EA21FA2CC
:1008900018A619A61AA61BA61CA61DA61EA61FA64C
:1008A000188E198E1A8E1B8E1C8E1D8E1E8E1F8EFC
:1008B00018A219A21AA21BA220E030E02F5F3F4F1E
:1008C000213147E2340711F00000F8CF18AA19AA25
:1008D0001AAA1BAADC01ED91FC910684F785E02D94
:1008E0004FE064ED0995883641F481E090E0A0E0A6
:1008F000B0E088AB99ABAAABBBAB88AD99ADDC01DE
:10090000ED91FC910084F185E02D28EA40E164ED51
:10091000099588AD99ADDC01ED91FC910084F185DC
:10092000E02D28E34EE164ED099588AD99ADDC0139
:10093000ED91FC910084F185E02D20E04EE264ED24
:10094000099588AD99ADDC01ED91FC910084F185AC
:10095000E02D20E042E164ED099588AD99ADDC0120
:10096000ED91FC910084F185E02D20E640E264EDFC
:10097000099588AD99ADDC01ED91FC910084F1857C
:10098000E02D28E34FE164ED099580E090E00196C9
:100990008131B7E29B0711F00000F9CF60E0CE0192
:1009A0000E94A2021CAA1DAA1EAA1FAAE12CF12CB9
:1009B00061E0CE010E94A20280E090E00196893EB3
:1009C00023E0920711F00000F9CF4FEFE41AF40A88
:1009D00088ECE816F10461F76CA17DA18EA19FA1BE
:1009E00028ECC22ED12CE12CF12CA70196010E94FB
:1009F000D6082CA33DA34EA35FA368A579A58AA51D
:100A00009BA5A70196010E94D60828A739A74AA747
:100A10005BA76CA57DA58EA59FA5A70196010E9449
:100A2000D6082CA73DA74EA75FA7188E198E1A8E41
:100A30001B8E1C8E1D8E1E8E1F8E18A219A21AA22E
:100A40001BA2188219821A821B821C821D821E829E
:100A50001F82188619861A861B86DF91CF91FF9018
:100A6000EF90DF90CF9008958CEA90E00C9483058E
:100A70008CEA90E00C948D050C945F0B80EF81BBA9
:100A8000959881EA8FBD81E08EBD1BBC1ABC19BC54
:100A900018BC089508956F3F710509F03CF461306A
:100AA0008FEF78072CF461E07FEF02C06FEF70E00A
:100AB0004F3F510509F044F441308FEF58076CF077
:100AC000141615061CF005C04FEF50E04ABD969A6B
:100AD0000BC04115510539F002C041E05FEF41956F
:100AE0004ABD969801C01ABC161617061CF468BDBC
:100AF000979808956115710521F0619568BD979AE1
:100B0000089518BC089510BC80E489B980B5866842
:100B100080BD8AB188618AB908950895EEEAF0E04F
:100B200011821082138212821582148216823796E5
:100B300080E0E63EF807A1F783B7886083BF8BE9C2
:100B40008CBF83E083BF89B7826089BF78940895A2
:100B5000F894EEEAF0E080E090E020813181232BF0
:100B600081F427E0289FF001299FF00D1124E25520
:100B7000FF4F71836083538342835583448316827E
:100B800007C0019637968830910539F78FEF9FEFB0
:100B900078940895CF93DF93CEEAD0E0888199814D
:100BA000009759F02E81222341F01E82DC01ED9145
:100BB000FC910480F581E02D09952796B0E0C63EB2
:100BC000DB0761F7DF91CF9108951F920F920FB667
:100BD0000F9211248F939F93AF93BF93EF93FF9343
:100BE000EEEAF0E084819581009721F001979583EA
:100BF000848309C0828193819583848386818F3F1A
:100C000011F08F5F8683379680E0E63EF80751F754
:100C10008091E6009091E700A091E800B091E90092
:100C20000196A11DB11D8093E6009093E700A0936B
:100C3000E800B093E900FF91EF91BF91AF919F91D0
:100C40008F910F900FBE0F901F9018958DEA90E036
:100C50000C948E050895FC018281882319F081305F
:100C600051F0089588B3836088BB838185BBC098A9
:100C700081E08283089588B3836088BB848185BBCB
:100C8000C198128208950C943C05FC018EE890E016
:100C90009183808312828FEF8383848397B39360E1
:100CA00097BB98B3936098BB85BB84BB45E050E08D
:100CB000BF018DEA90E00C94A805DC01862F643614
:100CC00008F083E66AE00E94A808E82FF0E0E65802
:100CD000FF4F8081809513968C931397E92FF0E056
:100CE000E658FF4F8081809514968C930895FF926B
:100CF0000F931F93CF93DF93EC01F62E042F122F47
:100D0000E881F9810190F081E02D0995E881F98170
:100D10000480F581E02D6F2DCE010995E881F981E0
:100D20000480F581E02D602FCE010995E881F981DD
:100D30000480F581E02D612FCE010995E881F981CC
:100D40000280F381E02DCE01DF91CF911F910F91B1
:100D5000FF900994EF92FF920F931F93CF93DF932D
:100D6000EC01E62EF42E122F032FE881F981019079
:100D7000F081E02D0995E881F9810480F581E02D6D
:100D80006E2DCE010995E881F9810480F581E02D71
:100D90006F2DCE010995E881F9810480F581E02D60
:100DA000602FCE010995E881F9810480F581E02D5D
:100DB000612FCE010995E881F9810280F381E02D50
:100DC000CE01DF91CF911F910F91FF90EF90099489
:100DD000CF92DF92EF92FF920F931F93CF93DF9307
:100DE000EC01E62EF42E6901E881F9810190F08191
:100DF000E02D0995E881F9810480F581E02D6E2DC3
:100E0000CE010995E881F9810480F581E02D6F2DEF
:100E1000CE01099576010C0D1D1DE881F981E016C2
:100E2000F10649F0D7016D917D010480F581E02D37
:100E3000CE010995F2CF0280F381E02DCE01DF9142
:100E4000CF911F910F91FF90EF90DF90CF90099479
:100E50000F931F93CF93DF93EC01162F042FE8819C
:100E6000F9810190F081E02D0995E881F9810480F4
:100E7000F581E02D612FCE010995E881F98104808B
:100E8000F581E02D602FCE010995E881F98101906F
:100E9000F081E02DCE010995612F6160E881F98133
:100EA0000480F581E02DCE010995E881F981068065
:100EB000F781E02D60E0CE010995182FE881F981D6
:100EC0000280F381E02DCE010995812FDF91CF9132
:100ED0001F910F9108950F931F93CF93DF93EC0110
:100EE000162F042FE881F9810190F081E02D0995FA
:100EF000E881F9810480F581E02D612FCE0109950B
:100F0000E881F9810480F581E02D602FCE010995FB
:100F1000E881F9810190F081E02DCE010995612FE2
:100F20006160E881F9810480F581E02DCE010995A9
:100F3000E881F9810680F781E02D61E0CE01099515
:100F4000082F10E0102F0027E881F9810680F78133
:100F5000E02D60E0CE010995082BE881F98102803F
:100F6000F381E02DCE010995C801DF91CF911F914A
:100F70000F910895CF92DF92EF92FF920F931F93FC
:100F8000CF93DF93EC01F62EE42E6901E881F9811D
:100F90000190F081E02D0995E881F9810480F581C7
:100FA000E02D6F2DCE010995E881F9810480F5814E
:100FB000E02D6E2DCE010995E881F9810190F08137
:100FC000E02DCE0109956F2D6160E881F9810480E3
:100FD000F581E02DCE01099576010C0D1D1DE881EE
:100FE000F981E016F10651F00680F781E02D61E00D
:100FF000CE010995F70181937F01F1CF0280F38142
:10100000E02DCE01DF91CF911F910F91FF90EF90D6
:10101000DF90CF900994882321F0BF98823019F097
:101020000895BF9A0895C79A089500000000089592
:1010300081E00E940B08BD9881E00E940B08BD9AD8
:1010400080E00E940B08BD980C94150880E00E9477
:101050000B08BD9A81E00E940B08BD9A81E00E94B6
:101060000B08BD980C941508CF93DF93D62FC8E0DA
:1010700080E00E940B080E941508D7FF02C0BD98AF
:1010800001C0BD9A0E94150881E00E940B080E94D1
:101090001508DD0FC15061F780E00E940B080E9427
:1010A0001508BD980E94150881E00E940B080E9457
:1010B0001508C6B380E00E940B080E941508C5FB06
:1010C000CC27C0F981E08C27DF91CF9108951F9341
:1010D000CF93DF93162FBD9880E00E940B080E94EB
:1010E0001508D8E0C0E0CC0F81E00E940B080E94F8
:1010F0001508B599C16080E00E940B080E94150890
:10110000D15089F7112311F0BD9A01C0BD980E94FA
:10111000150881E00E940B080E94150880E00E94DB
:101120000B080E941508BD980E9415088C2FDF91AE
:10113000CF911F91089588E990E09093EB00809300
:10114000EA00BD9881E00E940B08C598C7980895F1
:10115000991B79E004C0991F961708F0961B881F09
:101160007A95C9F780950895A1E21A2EAA1BBB1B98
:10117000FD010DC0AA1FBB1FEE1FFF1FA217B30763
:10118000E407F50720F0A21BB30BE40BF50B661F79
:10119000771F881F991F1A9469F76095709580953D
:1011A00090959B01AC01BD01CF010895052E97FBE1
:1011B0001EF400940E94ED0857FD07D00E94B40869
:1011C00007FC03D04EF40C94ED08509540953095F3
:1011D00021953F4F4F4F5F4F0895909580957095A3
:1011E00061957F4F8F4F9F4F0895EE0FFF1F059022
:1011F000F491E02D09945058BB27AA270E941309A7
:101200000C941B0A0E940D0A38F00E94140A20F068
:1012100039F49F3F19F426F40C940A0A0EF4E09571
:10122000E7FB0C94040AE92F0E942C0A58F3BA1722
:10123000620773078407950720F079F4A6F50C94EC
:101240004E0A0EF4E0950B2EBA2FA02D0B01B9011A
:1012500090010C01CA01A0011124FF27591B99F02C
:10126000593F50F4503E68F11A16F040A22F232F38
:10127000342F4427585FF3CF469537952795A79588
:10128000F0405395C9F77EF41F16BA0B620B730B2F
:10129000840BBAF09150A1F0FF0FBB1F661F771FA0
:1012A000881FC2F70EC0BA0F621F731F841F48F455
:1012B000879577956795B795F7959E3F08F0B0CFDE
:1012C0009395880F08F09927EE0F979587950895C5
:1012D0000E94E00908F481E008950E94740968946E
:1012E000B1110C944F0A08950E94340A88F09F5758
:1012F00098F0B92F9927B751B0F0E1F0660F771F3A
:10130000881F991F1AF0BA95C9F714C0B13091F02F
:101310000E944E0AB1E008950C944E0A672F782F70
:101320008827B85F39F0B93FCCF3869577956795F4
:10133000B395D9F73EF490958095709561957F4F60
:101340008F4F9F4F0895E89409C097FB3EF4909506
:101350008095709561957F4F8F4F9F4F9923A9F08E
:10136000F92F96E9BB279395F6958795779567951D
:10137000B795F111F8CFFAF4BB0F11F460FF1BC061
:101380006F5F7F4F8F4F9F4F16C0882311F096E9F4
:1013900011C0772321F09EE8872F762F05C06623A2
:1013A00071F096E8862F70E060E02AF09A95660F5B
:1013B000771F881FDAF7880F9695879597F9089514
:1013C000990F0008550FAA0BE0E8FEEF1616170656
:1013D000E807F907C0F012161306E407F50798F0BE
:1013E000621B730B840B950B39F40A2661F0232BD7
:1013F000242B252B21F408950A2609F4A140A69553
:101400008FEF811D811D089597F99F6780E870E037
:1014100060E008959FEF80EC089500240A9416166A
:10142000170618060906089500240A9412161306D2
:10143000140605060895092E0394000C11F4882360
:1014400052F0BB0F40F4BF2B11F460FF04C06F5F7C
:101450007F4F8F4F9F4F089557FD9058440F551F52
:1014600059F05F3F71F04795880F97FB991F61F026
:101470009F3F79F087950895121613061406551F9D
:10148000F2CF4695F1DF08C0161617061806991F09
:10149000F1CF86957105610508940895E894BB27FE
:1014A00066277727CB0197F908950E94E00908F491
:1014B0008FEF08950E946D0A0C941B0A0E940D0A7A
:1014C00038F00E94140A20F0952311F00C94040ABD
:1014D0000C940A0A11240C944F0A0E942C0A70F3EF
:1014E000959FC1F3950F50E0551F629FF001729FC9
:1014F000BB27F00DB11D639FAA27F00DB11DAA1FD8
:10150000649F6627B00DA11D661F829F2227B00D24
:10151000A11D621F739FB00DA11D621F839FA00DAF
:10152000611D221F749F3327A00D611D231F849FFF
:10153000600D211D822F762F6A2F11249F57504056
:101540009AF0F1F088234AF0EE0FFF1FBB1F661FD1
:10155000771F881F91505040A9F79E3F510580F09A
:101560000C94040A0C944F0A5F3FE4F3983ED4F3C2
:10157000869577956795B795F795E7959F5FC1F73E
:10158000FE2B880F911D9695879597F908950F93D7
:101590001F93CF93DF938230910510F482E090E0A7
:1015A000E091F000F091F10020E030E0A0E0B0E048
:1015B000309719F1408151810281138148175907F1
:1015C000C8F08417950769F4109731F012960C93C0
:1015D000129713961C9327C00093F0001093F1000C
:1015E00022C02115310519F04217530718F49A014A
:1015F000BD01EF01DF01F801DBCF21153105F9F065
:10160000281B390B2430310580F48A819B816115B8
:10161000710521F0FB019383828304C09093F10054
:101620008093F000FE01329644C0FE01E20FF31FEA
:101630008193919322503109398328833AC02091B4
:10164000EE003091EF00232B41F4209162003091A5
:1016500063003093EF002093EE0020916000309102
:1016600061002115310541F42DB73EB7409164006A
:1016700050916500241B350BE091EE00F091EF00D6
:10168000E217F307A0F42E1B3F0B2817390778F059
:10169000AC014E5F5F4F2417350748F04E0F5F1FB8
:1016A0005093EF004093EE008193919302C0E0E0ED
:1016B000F0E0CF01DF91CF911F910F910895CF936B
:1016C000DF93009709F481C0FC01329713821282E4
:1016D000A091F000B091F100109781F42081318148
:1016E000820F931F2091EE003091EF0028173907E9
:1016F00051F5F093EF00E093EE0067C0ED0120E0BC
:1017000030E0CE17DF0740F44A815B819E0141152E
:101710005105F1F0EA01F5CFD383C28340815181B5
:10172000840F951FC817D90759F488819981840FB0
:10173000951F0296918380838A819B819383828304
:101740002115310529F4F093F100E093F0003DC03C
:10175000E901FB83EA8349915991C40FD51FEC1726
:10176000FD0761F480819181840F951F0296E90144
:1017700099838883828193819B838A83E0E0F0E070
:1017800012968D919C911397009719F0FD01DC0141
:10179000F7CF8D919C9111979D012E5F3F4F820F46
:1017A000931F2091EE003091EF002817390769F45C
:1017B000309729F41092F1001092F00002C01382C9
:1017C0001282B093EF00A093EE00DF91CF910895C5
:1017D00010E0CDE2D0E004C0FE010E94F5082196A1
:0A17E000CE32D107C9F7F894FFCF0D
:1017EA000000F2002000000000008E029602E501CF
:1017FA0000000000C601DB0170013F065B4F666D09
:10180A007D077F6F777C395E7971000000002A06B8
:10181A0043062B060000000018082608340867084B
:0C182A007706AA06E80628076B07BA0735
:00000001FF
