:100000000C9431000C9459000C9459000C94590034
:100010000C9459000C9459000C9459000C945900FC
:100020000C9459000C9459000C9459000C945900EC
:100030000C9459000C9459000C9459000C945900DC
:100040000C9459000C9459000C9459000C94CD0256
:100050000C94590000025102110370080E0A5F024D
:10006000120A11241FBECFE5D4E0DEBFCDBF10E0E1
:10007000A0E6B0E0E6ECFAE102C005900D92A43AE9
:10008000B107D9F721E0A4EAB0E001C01D92A43580
:10009000B207E1F710E0CFE2D0E004C02197FE0103
:1000A0000E94570ACA32D107C9F70E9417020C945E
:1000B000560D0C940000CF93DF93EC018AE690E09C
:1000C00099838883CE018C599F4F0E942103CE01D2
:1000D0008A96DF91CF910C945B03CF93DF93EC0171
:1000E0000E945B00CE01DF91CF910C947D084F926E
:1000F0005F926F927F928F929F92AF92BF92CF92B8
:10010000DF92EF92FF92CF93DF93EC0160E08A964B
:100110000E945C03FE01EA5BFF4F80819181A28116
:10012000B3819C01AD0166277727CB01621B730B5E
:10013000840B950B0E94070B2DEC3CEC4CEC5DE323
:100140000E94BC0B9B01AC01CE8CDF8CE8A0F9A017
:10015000CAA2DBA2ECA2FDA28A8C9B8CAC8CBD8CCB
:100160008E8E9F8EA8A2B9A260E070E0CB010E94A3
:100170005D0A6A8F7B8F8C8F9D8F2E853F85488986
:1001800059890E94BC0B2B013C012A893B894C896F
:100190005D89C501B4010E94BC0B9B01AC01C30188
:1001A000B2010E945E0A4B015C012E893F89488D95
:1001B000598DC701B6010E94BC0B9B01AC01C50162
:1001C000B4010E945E0A2EA13FA148A559A50E9434
:1001D0005E0A4B015C016EA37FA388A799A720E06C
:1001E00030E0A9010E945E0A6B017C0120E030E052
:1001F00040E853EC0E94CA0A87FD11C020E030E0BD
:1002000040E853E4C701B6010E94B70B18166CF41E
:10021000C12CD12C30E8E32E33E4F32E06C0C12CE0
:10022000D12C20E8E22E23ECF22EC701B6010E9469
:10023000CF0A2B013C01A501940160E070E0CB01E5
:100240000E945D0A6B017C0120E030E040E853EC45
:100250000E94CA0A87FD11C020E030E040E853E464
:10026000C701B6010E94B70B18166CF4C12CD12C33
:1002700090E8E92E93E4F92E06C0C12CD12C80E839
:10028000E82E83ECF82EC701B6010E94CF0AAB011D
:10029000B201CE018C599F4FDF91CF91FF90EF902B
:1002A000DF90CF90BF90AF909F908F907F906F9096
:1002B0005F904F900C942203CF93DF93EC018AE67A
:1002C00090E099838883CE018A960E945A03CE01DA
:1002D0008C599F4F0E941503DE9ADF91CF910895AC
:1002E0008F929F92AF92BF92CF92DF92EF92FF9246
:1002F000CF93DF93EC01F62E6BE471E08A960E94B7
:10030000F204FE01E65AFF4F80819181A281B38100
:10031000892B8A2B8B2B11F0DE9801C0DE9AFF20EF
:10032000A9F080E090E0A0ECBFE38A839B83AC83DC
:10033000BD831E821F821886198680E090E0A0EAA5
:10034000B0E48A879B87AC87BD8710C080E090E0CF
:10035000A0E8BFE38A839B83AC83BD831E821F8298
:10036000188619861A861B861C861D868A809B80A5
:10037000AC80BD80CA84DB84EC84FD8420E030E066
:10038000A901C501B4010E945E0AA70196010E945D
:100390005E0A6E877F87888B998BB7FAB094B7F81F
:1003A000B094A7019601C701B6010E945E0A9B01A5
:1003B000AC01C501B4010E945D0A6A8B7B8B8C8BFA
:1003C0009D8BCE8ADF8AE88EF98E1A8E1B8E1C8E4C
:1003D0001D8E1E8E1F8E18A219A21AA21BA21CA26D
:1003E0001DA21EA21FA218A619A6DF91CF91FF90F1
:1003F000EF90DF90CF90BF90AF909F908F90089537
:10040000D69A089508950C947D08FC018381948107
:10041000009719F0019739F00895DD9A81E090E096
:10042000948383830895DD98148213820895BB9882
:10043000C39ABA98C29A80E790E09F938F938FE413
:1004400091E09F938F930E948A0948EC50E064EA00
:1004500070E08EE091E00E948E020F900F900F905E
:100460000F90B39B07C0B29B05C08EE091E00E9445
:10047000B002F7CF66B363FB662760F981E06827B7
:1004800089EA90E00E9470014AE050E069EA70E079
:100490008EE091E00E948E028EE091E00E94B00218
:1004A000FBCF89EA90E00E945C01E4EAF0E086E894
:1004B00090E091838083D59A14821382089589EA0B
:1004C00090E00C945B0010BC80E489B980B586682C
:1004D00080BD8AB188618AB9089508956CB95D9923
:1004E00002C00000FCCF0895EFE0F1E0118210821D
:1004F00013821282158214821682379681E0E734C5
:10050000F807A1F783B7886083BF8BE98CBF83E0CE
:1005100083BF89B7826089BF78940895F894EFE02B
:10052000F1E080E090E020813181232B81F427E00D
:10053000289FF001299FF00D1124E15FFE4F718388
:1005400060835383428355834483168207C0019698
:1005500037968830910539F78FEF9FEF789408959B
:10056000CF93DF93C5E1D1E0FE0136978081918181
:10057000009759F02881222341F01882DC01ED9187
:10058000FC910480F581E02D09952796B1E0CD34EA
:10059000DB0751F7DF91CF9108951F920F920FB6AD
:1005A0000F9211248F939F93AF93BF93EF93FF9379
:1005B000EFE0F1E0A5E1B1E084819581009721F0C1
:1005C00001979583848309C0828193819583848375
:1005D0008C918F3F11F08F5F8C933796179681E047
:1005E000E734F80749F78091470190914801A091BD
:1005F0004901B0914A010196A11DB11D80934701A7
:1006000090934801A0934901B0934A01FF91EF9163
:10061000BF91AF919F918F910F900FBE0F901F9040
:1006200018958EE091E00C94740280EF81BB959850
:1006300081EA8FBD81E08EBD1BBC1ABC19BC18BC01
:10064000089508956F3F710509F03CF461308FEF14
:1006500078072CF461E07FEF02C06FEF70E04F3F4E
:10066000510509F044F441308FEF58076CF014162F
:1006700015061CF005C04FEF50E04ABD969A0BC01E
:100680004115510539F002C041E05FEF41954ABD87
:10069000969801C01ABC161617061CF468BD9798E8
:1006A00008956115710521F0619568BD979A0895C7
:1006B00018BC0895089508954F925F926F927F92AB
:1006C0008F929F92AF92BF92CF92DF92EF92FF9262
:1006D0000F931F93CF93DF93EC01F62E88AD99AD66
:1006E000DC01ED91FC910684F785E02D4FE066ED8D
:1006F0000995883649F481E090E0A0E0B0E088AB4D
:1007000099ABAAABBBAB04C018AA19AA1AAA1BAA18
:1007100088AD99ADDC01ED91FC910684F785E02D63
:1007200049E166ED0995A82EB12CBA2CAA2488AD12
:1007300099ADDC01ED91FC910684F785E02D48E14F
:1007400066ED0995A82A88AD99ADDC01ED91FC9183
:100750000684F785E02D4BE166ED0995082F10E042
:10076000102F002788AD99ADDC01ED91FC91068436
:10077000F785E02D4AE166ED0995082B88AD99AD26
:10078000DC01ED91FC910684F785E02D4DE166EDED
:100790000995C82ED12CDC2CCC2488AD99ADDC0178
:1007A000ED91FC910684F785E02D4CE166ED09950D
:1007B000C82AC501BB0CAA0BBB0B012E000C220BD7
:1007C000330B4601DD0CAA08BB08FF2021F1CCA0A9
:1007D000DDA0EEA0FFA0C80ED91EEA1EFB1ECCA213
:1007E000DDA2EEA2FFA2C8A4D9A4EAA4FBA4C00E75
:1007F000D11EE21EF31EC8A6D9A6EAA6FBA6CCA46B
:10080000DDA4EEA4FFA4C80CD91CEA1CFB1CCCA6DA
:10081000DDA6EEA6FFA6CCA0DDA0EEA0FFA0BC0149
:10082000CD016C197D098E099F096C877D878E87A4
:100830009F87C8A4D9A4EAA4FBA4280139014C18B5
:100840005D086E087F08488A598A6A8A7B8A0CA5E7
:100850001DA52EA53FA575016401C01AD10AE20AA3
:10086000F30ACC8ADD8AEE8AFF8A29E1822E912C56
:10087000A12CB12CA50194010E94380A888D998D74
:10088000AA8DBB8D820F931FA41FB51F888F998FD0
:10089000AA8FBB8FC301B201A50194010E94380A3F
:1008A0008C8D9D8DAE8DBF8D820F931FA41FB51FA4
:1008B0008C8F9D8FAE8FBF8FC701B601A5019401AC
:1008C0000E94380A88A199A1AAA1BBA1820F931FF7
:1008D000A41FB51F88A399A3AAA3BBA388AD99ADF4
:1008E000DC01ED91FC910684F785E02D49E266ED8F
:1008F0000995082F10E0102F002788AD99ADDC0175
:10090000ED91FC910684F785E02D48E266ED0995AE
:100910006801C82A88AD99ADDC01ED91FC9106848F
:10092000F785E02D4BE266ED0995082F10E0102FBA
:10093000002788AD99ADDC01ED91FC910684F78527
:10094000E02D4AE266ED0995082B88AD99ADDC01F2
:10095000ED91FC910684F785E02D4DE266ED099559
:1009600090E0F82EEE2488AD99ADDC01ED91FC917C
:100970000684F785E02D4CE266ED0995A601DD0CB5
:10098000660B770B488359836A837B83012E000CA7
:10099000220B330B0C831D832E833F839701282B5F
:1009A000C901092E000CAA0BBB0B88879987AA875F
:1009B000BB87DF91CF911F910F91FF90EF90DF9058
:1009C000CF90BF90AF909F908F907F906F905F90EF
:1009D0004F900895415051096109710910F00000CC
:1009E000F9CF0895CF92DF92EF92FF92CF93DF93EA
:1009F000EC0179AF68AF1C861D861E861F86188A9B
:100A0000198A1A8A1B8A1C8A1D8A1E8A1F8A1CA29E
:100A10001DA21EA21FA218A619A61AA61BA61CA6D6
:100A20001DA61EA61FA6188E198E1A8E1B8E1C8E32
:100A30001D8E1E8E1F8E18A219A21AA21BA240E1A3
:100A400057E260E070E00E94EA0418AA19AA1AAA04
:100A50001BAA88AD99ADDC01ED91FC910684F78568
:100A6000E02D4FE066ED0995883641F481E090E095
:100A7000A0E0B0E088AB99ABAAABBBAB88AD99ADB9
:100A8000DC01ED91FC910084F185E02D28EA40E144
:100A900066ED099588AD99ADDC01ED91FC9100847E
:100AA000F185E02D28E34EE166ED099588AD99AD1D
:100AB000DC01ED91FC910084F185E02D20E04EE217
:100AC00066ED099588AD99ADDC01ED91FC9100844E
:100AD000F185E02D20E042E166ED099588AD99AD04
:100AE000DC01ED91FC910084F185E02D20E640E2EF
:100AF00066ED099588AD99ADDC01ED91FC9100841E
:100B0000F185E02D28E34FE166ED099540E157E2DC
:100B100060E070E0CE010E94EA0460E0CE010E9435
:100B20005C031CAA1DAA1EAA1FAAE12CF12C61E0DD
:100B3000CE010E945C0348EE53E060E070E0CE011D
:100B40000E94EA04BFEFEB1AFB0A88ECE816F104F6
:100B500071F76CA17DA18EA19FA128ECC22ED12C92
:100B6000E12CF12CA70196010E94380A2CA33DA389
:100B70004EA35FA368A579A58AA59BA5A7019601A9
:100B80000E94380A28A739A74AA75BA76CA57DA5AC
:100B90008EA59FA5A70196010E94380A2CA73DA704
:100BA0004EA75FA7188E198E1A8E1B8E1C8E1D8E57
:100BB0001E8E1F8E18A219A21AA21BA218821982B9
:100BC0001A821B821C821D821E821F821886198631
:100BD0001A861B86DF91CF91FF90EF90DF90CF9028
:100BE00008950F931F93CF93DF9300D01F92CDB73B
:100BF000DEB78C01DC01ED91FC910190F081E02DDC
:100C00002B834A8369830995D801ED91FC91048077
:100C1000F581E02D6981C8010995D801ED91FC911C
:100C20000480F581E02D4A81642FC8010995D8011F
:100C3000ED91FC910480F581E02D2B81622FC8019C
:100C40000995D801ED91FC910280F381E02DC80156
:100C50000F900F900F90DF91CF911F910F910994FA
:100C60000F931F93CF93DF9300D000D0CDB7DEB7A3
:100C70008C01DC01ED91FC910190F081E02D2C8341
:100C80003B834A8369830995D801ED91FC910480E7
:100C9000F581E02D6981C8010995D801ED91FC919C
:100CA0000480F581E02D4A81642FC8010995D8019F
:100CB000ED91FC910480F581E02D3B81632FC8010B
:100CC0000995D801ED91FC910480F581E02D2C81EE
:100CD000622FC8010995D801ED91FC910280F38142
:100CE000E02DC8010F900F900F900F90DF91CF91E2
:100CF0001F910F910994CF92DF92EF92FF920F9381
:100D00001F93CF93DF9300D000D0CDB7DEB76C0137
:100D1000DC01ED91FC910190F081E02D2B833C836F
:100D20004A8369830995D601ED91FC910480F58190
:100D3000E02D6981C6010995D601ED91FC910480F1
:100D4000F581E02D4A81642FC60109952B81E22EA1
:100D50003C81F32E0E0D1F1DD601ED91FC91E01686
:100D6000F10649F0D7016D917D010480F581E02DF8
:100D7000C6010995F1CF0280F381E02DC6010F90E5
:100D80000F900F900F90DF91CF911F910F91FF90D7
:100D9000EF90DF90CF900994EF92FF921F93CF9343
:100DA000DF931F92CDB7DEB77C01162FDC01ED91EA
:100DB000FC910190F081E02D49830995D701ED91D7
:100DC000FC910480F581E02D612FC7010995D701C1
:100DD000ED91FC910480F581E02D4981642FC701DC
:100DE0000995D701ED91FC910190F081E02DC701AB
:100DF0000995D701ED91FC91612F61600480F58127
:100E0000E02DC7010995D701ED91FC910680F7818E
:100E1000E02D60E0C7010995182FD701ED91FC91F5
:100E20000280F381E02DC7010995812F0F90DF919A
:100E3000CF911F91FF90EF900895EF92FF920F9343
:100E40001F93CF93DF931F92CDB7DEB77C01162F90
:100E5000DC01ED91FC910190F081E02D4983099531
:100E6000D701ED91FC910480F581E02D612FC70140
:100E70000995D701ED91FC910480F581E02D498120
:100E8000642FC7010995D701ED91FC910190F08184
:100E9000E02DC7010995D701ED91FC91612F6160AB
:100EA0000480F581E02DC7010995D701ED91FC91F2
:100EB0000680F781E02D61E0C7010995082F10E059
:100EC000102F0027D701ED91FC910680F781E02DCE
:100ED00060E0C7010995082BD701ED91FC910280D4
:100EE000F381E02DC7010995C8010F90DF91CF91E3
:100EF0001F910F91FF90EF900895CF92DF92EF92A4
:100F0000FF920F931F93CF93DF9300D01F92CDB723
:100F1000DEB76C01F62EDC01ED91FC910190F081C1
:100F2000E02D2A833B8349830995D601ED91FC91FD
:100F30000480F581E02D6F2DC6010995D601ED9154
:100F4000FC910480F581E02D4981642FC60109954B
:100F5000D601ED91FC910190F081E02DC60109953B
:100F6000D601ED91FC916F2D61600480F581E02D3B
:100F7000C60109952A81E22E3B81F32E0E0D1F1D1D
:100F8000D601ED91FC91E016F10651F00680F78153
:100F9000E02D61E0C6010995F70181937F01F0CF53
:100FA0000280F381E02DC6010F900F900F90DF912A
:100FB000CF911F910F91FF90EF90DF90CF90099408
:100FC000882321F0BF98823019F00895BF9A0895C0
:100FD000C79A08950000000008951F93CF93DF93F0
:100FE000162FBD9880E00E94E0070E94EA07D8E033
:100FF000C0E0CC0F81E00E94E0070E94EA07B599AB
:10100000C16080E00E94E0070E94EA07D15089F7A2
:10101000112311F0BD9A01C0BD980E94EA0781E03A
:101020000E94E0070E94EA0780E00E94E0070E9419
:10103000EA07BD980E94EA078C2FDF91CF911F919C
:101040000895CF93DF93D62FC8E080E00E94E00799
:101050000E94EA07D7FF02C0BD9801C0BD9A0E9456
:10106000EA0781E00E94E0070E94EA07DD0FC15015
:1010700061F780E00E94E0070E94EA07BD980E94A5
:10108000EA0781E00E94E0070E94EA07C6B380E019
:101090000E94E0070E94EA07C5FBCC27C0F981E067
:1010A0008C27DF91CF91089581E00E94E007BD98E1
:1010B00081E00E94E007BD9A80E00E94E007BD98B1
:1010C0000C94EA0780E00E94E007BD9A81E00E944C
:1010D000E007BD9A81E00E94E007BD980C94EA0702
:1010E00080E990E090934C0180934B01BD9881E0A2
:1010F0000E94E007C598C79808950C94BE0C0F9302
:101100001F93CF93DF938C01EB016991662321F04C
:10111000C8010E946E02F9CFDF91CF911F910F910C
:1011200008958F929F92AF92BF92CF92DF92EF92EB
:10113000FF920F931F93CF93DF93CDB7DEB72C971A
:101140000FB6F894DEBF0FBECDBF7C0177FF09C09C
:1011500070956095509541955F4F6F4F7F4F01E0BF
:1011600001C000E01C861AE09AE0892E912CA12C87
:10117000B12CCC24C394D12CCC0EDD1EC10ED11CBD
:10118000CB01BA01A50194010E94380A942F852F42
:10119000605DF6016083A901692F782F8FEF810FC1
:1011A000411551056105710511F0182FE2CF00239B
:1011B00049F0E1E0F0E0EC0FFD1FE80FF11D9DE2CA
:1011C0009083182F61E070E06C0F7D1F610F711D1F
:1011D000C7010E947F082C960FB6F894DEBF0FBEA1
:1011E000CDBFDF91CF911F910F91FF90EF90DF90D6
:1011F000CF90BF90AF909F908F9008958F929F92C5
:10120000AF92BF92CF92DF92EF92FF921F93CF9354
:10121000DF93CDB7DEB72C970FB6F894DEBF0FBEC5
:10122000CDBF6C011C861AE09AE0892E912CA12C6E
:10123000B12CEE24E394F12CEC0EFD1EE10EF11C1A
:10124000CB01BA01A50194010E94160A942F852FA3
:10125000605DF7016083A901692F782F1150411556
:1012600051056105710529F7B701C6010E947F0884
:101270002C960FB6F894DEBF0FBECDBFDF91CF9195
:101280001F91FF90EF90DF90CF90BF90AF909F9015
:101290008F900895EF92FF92CF93DF93CDB7DEB793
:1012A0002C970FB6F894DEBF0FBECDBFFC011C8695
:1012B0002AE0942F9F70E22EF12CA1E0B0E0AC0F59
:1012C000BD1FAE0DBF1D9A3014F4905D01C0995A38
:1012D0009C9384E076956795579547958A95D1F7C5
:1012E0002150411551056105710519F761E070E064
:1012F0006C0F7D1F6E0D7F1DCF010E947F082C9605
:101300000FB6F894DEBF0FBECDBFDF91CF91FF9037
:10131000EF900895AF92BF92CF92DF92EF92FF923B
:101320000F931F93CF93DF93CDB7DEB7ED84FE8489
:101330008E010F5E1F4FC12CD12CEF85F889EC0D6B
:10134000FD1D6081662309F45EC0653239F0C70176
:101350000E946E028FEFC81AD80AEFCF81818936BA
:1013600011F184F4853209F446C0833609F047C090
:101370005801F2E0AF0EB11CF8016081C7010E9474
:101380006E022AC08537E1F0883741F18337B9F51D
:101390005801F2E0AF0EB11CF80160817181C70104
:1013A0000E947F0819C0580194E0A90EB11CF801F1
:1013B0004081518162817381C7010E9491080CC0F4
:1013C0005801F4E0AF0EB11CF801408151816281F7
:1013D0007381C7010E94FE08850111C05801F4E025
:1013E000AF0EB11CF8014081518162817381C70148
:1013F0000E944A09F1CF65E2C7010E946E02F2E045
:10140000CF0ED11C9ACFDF91CF911F910F91FF90FA
:10141000EF90DF90CF90BF90AF9008958FE491E070
:101420000C9463028FE491E00C946D02A1E21A2EF9
:10143000AA1BBB1BFD010DC0AA1FBB1FEE1FFF1F78
:10144000A217B307E407F50720F0A21BB30BE40BC8
:10145000F50B661F771F881F991F1A9469F760950F
:101460007095809590959B01AC01BD01CF010895C9
:10147000052E97FB1EF400940E944F0A57FD07D0DB
:101480000E94160A07FC03D04EF40C944F0A5095A4
:101490004095309521953F4F4F4F5F4F0895909560
:1014A0008095709561957F4F8F4F9F4F0895EE0FF8
:1014B000FF1F0590F491E02D09945058BB27AA27EF
:1014C0000E94750A0C947D0B0E946F0B38F00E94ED
:1014D000760B20F039F49F3F19F426F40C946C0B32
:1014E0000EF4E095E7FB0C94660BE92F0E948E0B3F
:1014F00058F3BA17620773078407950720F079F449
:10150000A6F50C94B00B0EF4E0950B2EBA2FA02D7F
:101510000B01B90190010C01CA01A0011124FF27A0
:10152000591B99F0593F50F4503E68F11A16F0409B
:10153000A22F232F342F4427585FF3CF469537959A
:101540002795A795F0405395C9F77EF41F16BA0B5F
:10155000620B730B840BBAF09150A1F0FF0FBB1F0D
:10156000661F771F881FC2F70EC0BA0F621F731F56
:10157000841F48F4879577956795B795F7959E3FB3
:1015800008F0B0CF9395880F08F09927EE0F979544
:10159000879508950E94420B08F481E008950E9407
:1015A000D60A6894B1110C94B10B08950E94960B61
:1015B00088F09F5798F0B92F9927B751B0F0E1F014
:1015C000660F771F881F991F1AF0BA95C9F714C0C4
:1015D000B13091F00E94B00BB1E008950C94B00BC3
:1015E000672F782F8827B85F39F0B93FCCF38695FD
:1015F00077956795B395D9F73EF49095809570955A
:1016000061957F4F8F4F9F4F0895E89409C097FBD6
:101610003EF490958095709561957F4F8F4F9F4FC9
:101620009923A9F0F92F96E9BB279395F69587950D
:1016300077956795B795F111F8CFFAF4BB0F11F4D0
:1016400060FF1BC06F5F7F4F8F4F9F4F16C0882377
:1016500011F096E911C0772321F09EE8872F762FAD
:1016600005C0662371F096E8862F70E060E02AF0EE
:101670009A95660F771F881FDAF7880F96958795DA
:1016800097F90895990F0008550FAA0BE0E8FEEFAF
:1016900016161706E807F907C0F012161306E40736
:1016A000F50798F0621B730B840B950B39F40A262F
:1016B00061F0232B242B252B21F408950A2609F40D
:1016C000A140A6958FEF811D811D089597F99F6711
:1016D00080E870E060E008959FEF80EC08950024BA
:1016E0000A941616170618060906089500240A9487
:1016F00012161306140605060895092E0394000C0D
:1017000011F4882352F0BB0F40F4BF2B11F460FF9B
:1017100004C06F5F7F4F8F4F9F4F089557FD9058C4
:10172000440F551F59F05F3F71F04795880F97FBA5
:10173000991F61F09F3F79F087950895121613065F
:101740001406551FF2CF4695F1DF08C0161617068E
:101750001806991FF1CF86957105610508940895C3
:10176000E894BB2766277727CB0197F908950E9455
:10177000420B08F48FEF08950E94CF0B0C947D0B61
:101780000E946F0B38F00E94760B20F0952311F029
:101790000C94660B0C946C0B11240C94B10B0E94EE
:1017A0008E0B70F3959FC1F3950F50E0551F629F0C
:1017B000F001729FBB27F00DB11D639FAA27F00DAA
:1017C000B11DAA1F649F6627B00DA11D661F829FD1
:1017D0002227B00DA11D621F739FB00DA11D621FB6
:1017E000839FA00D611D221F749F3327A00D611DD3
:1017F000231F849F600D211D822F762F6A2F1124B5
:101800009F5750409AF0F1F088234AF0EE0FFF1FE7
:10181000BB1F661F771F881F91505040A9F79E3F3E
:10182000510580F00C94660B0C94B10B5F3FE4F310
:10183000983ED4F3869577956795B795F795E79594
:101840009F5FC1F7FE2B880F911D9695879597F99D
:101850000895CF93DF938230910510F482E090E0F9
:10186000E0915201F091530120E030E0C0E0D0E07F
:10187000309711F14081518148175907C0F048173E
:10188000590761F482819381209719F09B838A83A1
:101890002BC0909353018093520126C0211531052E
:1018A00019F04217530718F49A01BE01DF01EF0146
:1018B0000280F381E02DDCCF2115310509F1281BD1
:1018C000390B2430310590F412968D919C91139729
:1018D0006115710521F0FB019383828304C090930D
:1018E000530180935201FD01329644C0FD01E20F85
:1018F000F31F81939193225031092D933C933AC069
:101900002091500130915101232B41F4209162002C
:101910003091630030935101209350012091600079
:10192000309161002115310541F42DB73EB740914A
:10193000640050916500241B350BE0915001F0913B
:101940005101E217F307A0F42E1B3F0B28173907AC
:1019500078F0AC014E5F5F4F2417350748F04E0F0B
:101960005F1F50935101409350018193919302C0A6
:10197000E0E0F0E0CF01DF91CF9108950F931F9346
:10198000CF93DF93009709F48CC0FC013297138248
:10199000128200915201109153010115110581F439
:1019A00020813181820F931F20915001309151018C
:1019B0002817390779F5F0935101E093500171C070
:1019C000D80140E050E0AE17BF0750F412962D91B9
:1019D0003C911397AD012115310509F1D901F3CFE0
:1019E0009D01DA013383228360817181860F971F05
:1019F0008217930769F4EC0128813981260F371F7C
:101A00002E5F3F4F318320838A819B819383828322
:101A1000452B29F4F0935301E093520142C01396F1
:101A2000FC93EE931297ED01499159919E01240F79
:101A3000351FE217F30771F480819181840F951FA0
:101A4000029611969C938E938281938113969C9318
:101A50008E931297E0E0F0E0D80112968D919C9160
:101A60001397009719F0F8018C01F6CF8D919C9196
:101A700098012E5F3F4F820F931F209150013091AC
:101A800051012817390769F4309729F4109253014E
:101A90001092520102C013821282109351010093DE
:101AA0005001DF91CF911F910F91089510E0CFE287
:101AB000D0E004C0FE010E94570A2196C133D1072D
:061AC000C9F7F894FFCF06
:101AC600000054012000000000005B006D0077005C
:101AD6000A7465726D696E616C2072656164790A5B
:101AE6000A000000000002020302050200000000D6
:101AF600540862082108ED07F10530067B06CC067E
:041B06001D077D0733
:00000001FF
