:100000000C9431000C9459000C9459000C94590034
:100010000C9459000C9459000C9459000C945900FC
:100020000C9459000C9459000C9459000C945900EC
:100030000C9459000C9459000C9459000C945900DC
:100040000C9459000C9459000C9459000C946208BB
:100050000C94590007025D023D05CC085F0A62025C
:10006000630A11241FBECFE5D4E0DEBFCDBF10E090
:10007000A0E6B0E0EEE0F9E102C005900D92A639ED
:10008000B107D9F721E0A6E9B0E001C01D92A7347D
:10009000B207E1F710E0CFE2D0E004C02197FE0103
:1000A0000E94A80ACA32D107C9F70E9424020C9400
:1000B0007A0C0C9400008091960090919700009724
:1000C00019F0019749F00895DE9A81E090E090934D
:1000D0009700809396000895DE98109297001092F2
:1000E00096000895CF93DF93EC0188960E944A050D
:1000F000CE018E599F4FDF91CF910C947702CF9311
:10010000DF93EC018E599F4F0E948302CE018896A7
:10011000DF91CF910C944B058F929F92AF92BF923B
:10012000CF92DF92EF92FF92CF93DF93EC01F62E06
:100130006DEF70E088960E94E206FE01E85AFF4FDC
:1001400080819181A281B381892B8A2B8B2B49F0ED
:1001500020E042E350E06BE570E085E491E00E942E
:100160000B08FF20A9F086E696E6A6EEBFE388839B
:100170009983AA83BB831C821D821E821F8280E01A
:1001800090E0A0E2B1E488879987AA87BB8710C076
:1001900080E090E0A0E8BFE388839983AA83BB83D3
:1001A0001C821D821E821F82188619861A861B8653
:1001B00088809980AA80BB80C884D984EA84FB8423
:1001C00020E030E0A901C501B4010E94AF0AA701F7
:1001D00096010E94AF0A6C877D878E879F87B7FA4A
:1001E000B094B7F8B094A7019601C701B6010E9478
:1001F000AF0A9B01AC01C501B4010E94AE0A688B35
:10020000798B8A8B9B8BCC8ADD8AEE8AFF8A188E4B
:10021000198E1A8E1B8E1C8E1D8E1E8E1F8E18A27E
:1002200019A21AA21BA21CA21DA21EA21FA2DF912C
:10023000CF91FF90EF90DF90CF90BF90AF909F90C5
:100240008F9008954F925F926F927F928F929F92BC
:10025000AF92BF92CF92DF92EF92FF92CF93DF9354
:10026000EC0160E088960E944C05FE01EC5BFF4FBC
:1002700080819181A281B3819C01AD01662777279E
:10028000CB01621B730B840B950B0E94580B2DEC5A
:100290003CEC4CEC5DE30E940D0C9B01AC01CC8C62
:1002A000DD8CEE8CFF8CC8A2D9A2EAA2FBA2888CBE
:1002B000998CAA8CBB8C8C8E9D8EAE8EBF8E60E08E
:1002C00070E0CB010E94AE0A688F798F8A8F9B8F76
:1002D0002C853D854E855F850E940D0C2B013C01D0
:1002E000288939894A895B89C501B4010E940D0CAE
:1002F0009B01AC01C301B2010E94AF0A4B015C013A
:100300002C893D894E895F89C701B6010E940D0C79
:100310009B01AC01C501B4010E94AF0A2CA13DA113
:100320004EA15FA10E94AF0A4B015C016CA37DA3AB
:100330008EA39FA320E030E0A9010E94AF0A6B01C9
:100340007C0120E030E040E853EC0E941B0B87FD6D
:1003500011C020E030E040E853E4C701B6010E943C
:10036000080C18166CF4C12CD12C30E8E32E33E4C1
:10037000F32E06C0C12CD12C20E8E22E23ECF22E65
:10038000C701B6010E94200B2B013C01A50194017D
:1003900060E070E0CB010E94AE0A6B017C0120E0BE
:1003A00030E040E853EC0E941B0B87FD11C020E0B9
:1003B00030E040E853E4C701B6010E94080C18166B
:1003C0006CF4C12CD12C90E8E92E93E4F92E06C0F0
:1003D000C12CD12C80E8E82E83ECF82EC701B601A1
:1003E0000E94200BAB01B201CE018E599F4FDF91CD
:1003F000CF91FF90EF90DF90CF90BF90AF909F9004
:100400008F907F906F905F904F900C948402D69A5B
:1004100008958AE990E00C942201809198009091CF
:100420009900009719F0019749F00895DD9A81E04D
:1004300090E090939900809398000895DD98109231
:100440009900109298000895BB98C39ABA98C29ADE
:1004500020E048EC50E06DE072E085E491E00E941D
:100460000B088BE690E09F938F9386E491E09F9337
:100470008F930E94DB090F900F900F900F90B39B0A
:1004800004C0B29B02C00000FACF66B363FB6627CC
:1004900060F981E068278AE990E00E948C0021E001
:1004A00045E050E069E072E085E491E00E940B08CD
:1004B00085E491E00E944208FBCFD59A8AE990E05A
:1004C0000C9472008AE990E00C947F0010BC80E4E8
:1004D00089B980B5866880BD8AB188618AB9089576
:1004E00008956CB95D9902C00000FCCF089580EFBB
:1004F00081BB959881EA8FBD81E08EBD1BBC1ABC83
:1005000019BC18BC089508956F3F710509F03CF4BB
:1005100061308FEF78072CF461E07FEF02C06FEF5E
:1005200070E04F3F510509F044F441308FEF580718
:100530006CF0141615061CF005C04FEF50E04ABDD4
:10054000969A0BC04115510539F002C041E05FEFAA
:1005500041954ABD969801C01ABC161617061CF4A0
:1005600068BD979808956115710521F0619568BD82
:10057000979A089518BC08950F931F93CF93DF9314
:1005800000D01F92CDB7DEB78C01DC01ED91FC915C
:100590000190F081E02D2B834A8369830995D8016E
:1005A000ED91FC910480F581E02D6981C8010995E8
:1005B000D801ED91FC910480F581E02D4A81642FF2
:1005C000C8010995D801ED91FC910480F581E02DD9
:1005D0002B81622FC8010995D801ED91FC91028011
:1005E000F381E02DC8010F900F900F90DF91CF9114
:1005F0001F910F9109940F931F93CF93DF9300D016
:1006000000D0CDB7DEB78C01DC01ED91FC910190FB
:10061000F081E02D2C833B834A8369830995D801BF
:10062000ED91FC910480F581E02D6981C801099567
:10063000D801ED91FC910480F581E02D4A81642F71
:10064000C8010995D801ED91FC910480F581E02D58
:100650003B81632FC8010995D801ED91FC9104807D
:10066000F581E02D2C81622FC8010995D801ED910B
:10067000FC910280F381E02DC8010F900F900F9044
:100680000F90DF91CF911F910F910994CF92DF923C
:10069000EF92FF920F931F93CF93DF9300D000D080
:1006A000CDB7DEB76C01DC01ED91FC910190F081DA
:1006B000E02D2B833C834A8369830995D601ED9114
:1006C000FC910480F581E02D6981C6010995D60170
:1006D000ED91FC910480F581E02D4A81642FC601E3
:1006E00009952B81E22E3C81F32E0E0D1F1DD601A4
:1006F000ED91FC91E016F10649F0D7016D917D0175
:100700000480F581E02DC6010995F1CF0280F381C7
:10071000E02DC6010F900F900F900F90DF91CF91B9
:100720001F910F91FF90EF90DF90CF900994EF927F
:10073000FF921F93CF93DF931F92CDB7DEB77C015B
:10074000162FDC01ED91FC910190F081E02D4983A1
:100750000995D701ED91FC910480F581E02D612F81
:10076000C7010995D701ED91FC910480F581E02D39
:100770004981642FC7010995D701ED91FC91019042
:10078000F081E02DC7010995D701ED91FC91612F12
:1007900061600480F581E02DC7010995D701ED91D5
:1007A000FC910680F781E02D60E0C7010995182FC4
:1007B000D701ED91FC910280F381E02DC7010995ED
:1007C000812F0F90DF91CF911F91FF90EF900895AF
:1007D000EF92FF920F931F93CF93DF931F92CDB7AA
:1007E000DEB77C01162FDC01ED91FC910190F081C8
:1007F000E02D49830995D701ED91FC910480F581A5
:10080000E02D612FC7010995D701ED91FC9104807E
:10081000F581E02D4981642FC7010995D701ED913C
:10082000FC910190F081E02DC7010995D701ED9170
:10083000FC91612F61600480F581E02DC70109956D
:10084000D701ED91FC910680F781E02D61E0C701B1
:100850000995082F10E0102F0027D701ED91FC918A
:100860000680F781E02D60E0C7010995082BD701CC
:10087000ED91FC910280F381E02DC7010995C8013B
:100880000F90DF91CF911F910F91FF90EF900895FE
:10089000CF92DF92EF92FF920F931F93CF93DF934C
:1008A00000D01F92CDB7DEB76C01F62EDC01ED91C2
:1008B000FC910190F081E02D2A833B8349830995C7
:1008C000D601ED91FC910480F581E02D6F2DC601DC
:1008D0000995D601ED91FC910480F581E02D4981C7
:1008E000642FC6010995D601ED91FC910190F0812C
:1008F000E02DC6010995D601ED91FC916F2D616047
:100900000480F581E02DC60109952A81E22E3B8104
:10091000F32E0E0D1F1DD601ED91FC91E016F10690
:1009200051F00680F781E02D61E0C6010995F701DD
:1009300081937F01F0CF0280F381E02DC6010F90FB
:100940000F900F90DF91CF911F910F91FF90EF903B
:10095000DF90CF900994882321F0BF98823019F05E
:100960000895BF9A0895C79A08958AE000008150BB
:10097000E9F708951F93CF93DF93162FBD9880E07A
:100980000E94AB040E94B504D8E0C0E0CC0F81E027
:100990000E94AB040E94B504B599C16080E00E943A
:1009A000AB040E94B504D15089F7112311F0BD9A10
:1009B00001C0BD980E94B50481E00E94AB040E9472
:1009C000B50480E00E94AB040E94B504BD980E946B
:1009D000B5048C2FDF91CF911F910895CF93DF93B2
:1009E000D62FC8E080E00E94AB040E94B504D7FF78
:1009F00002C0BD9801C0BD9A0E94B50481E00E946A
:100A0000AB040E94B504DD0FC15061F780E00E9485
:100A1000AB040E94B504BD980E94B50481E00E9419
:100A2000AB040E94B504C6B380E00E94AB040E94F0
:100A3000B504C5FBCC27C0F981E08C27DF91CF91AD
:100A4000089581E00E94AB04BD9881E00E94AB0450
:100A5000BD9A80E00E94AB04BD980C94B50480E080
:100A60000E94AB04BD9A81E00E94AB04BD9A81E074
:100A70000E94AB04BD980C94B50481E890E090937B
:100A8000FE008093FD00BD9881E00E94AB04C598F4
:100A9000C7980895089508954F925F926F927F923C
:100AA0008F929F92AF92BF92CF92DF92EF92FF927E
:100AB0000F931F93CF93DF93EC01F62E88AD99AD82
:100AC000DC01ED91FC910684F785E02D4FE066EDA9
:100AD0000995883649F481E090E0A0E0B0E088AB69
:100AE00099ABAAABBBAB04C018AA19AA1AAA1BAA35
:100AF00088AD99ADDC01ED91FC910684F785E02D80
:100B000049E166ED0995A82EB12CBA2CAA2488AD2E
:100B100099ADDC01ED91FC910684F785E02D48E16B
:100B200066ED0995A82A88AD99ADDC01ED91FC919F
:100B30000684F785E02D4BE166ED0995082F10E05E
:100B4000102F002788AD99ADDC01ED91FC91068452
:100B5000F785E02D4AE166ED0995082B88AD99AD42
:100B6000DC01ED91FC910684F785E02D4DE166ED09
:100B70000995C82ED12CDC2CCC2488AD99ADDC0194
:100B8000ED91FC910684F785E02D4CE166ED099529
:100B9000C82AC501BB0CAA0BBB0B012E000C220BF3
:100BA000330B4601DD0CAA08BB08FF2021F1CCA0C5
:100BB000DDA0EEA0FFA0C80ED91EEA1EFB1ECCA22F
:100BC000DDA2EEA2FFA2C8A4D9A4EAA4FBA4C00E91
:100BD000D11EE21EF31EC8A6D9A6EAA6FBA6CCA487
:100BE000DDA4EEA4FFA4C80CD91CEA1CFB1CCCA6F7
:100BF000DDA6EEA6FFA6CCA0DDA0EEA0FFA0BC0166
:100C0000CD016C197D098E099F096C877D878E87C0
:100C10009F87C8A4D9A4EAA4FBA4280139014C18D1
:100C20005D086E087F08488A598A6A8A7B8A0CA503
:100C30001DA52EA53FA575016401C01AD10AE20ABF
:100C4000F30ACC8ADD8AEE8AFF8A22E3822E912C77
:100C5000A12CB12CA50194010E94890A888D998D3F
:100C6000AA8DBB8D820F931FA41FB51F888F998FEC
:100C7000AA8FBB8FC301B201A50194010E94890A0A
:100C80008C8D9D8DAE8DBF8D820F931FA41FB51FC0
:100C90008C8F9D8FAE8FBF8FC701B601A5019401C8
:100CA0000E94890A88A199A1AAA1BBA1820F931FC2
:100CB000A41FB51F88A399A3AAA3BBA388AD99AD10
:100CC000DC01ED91FC910684F785E02D49E266EDAB
:100CD0000995082F10E0102F002788AD99ADDC0191
:100CE000ED91FC910684F785E02D48E266ED0995CB
:100CF0006801C82A88AD99ADDC01ED91FC910684AC
:100D0000F785E02D4BE266ED0995082F10E0102FD6
:100D1000002788AD99ADDC01ED91FC910684F78543
:100D2000E02D4AE266ED0995082B88AD99ADDC010E
:100D3000ED91FC910684F785E02D4DE266ED099575
:100D400090E0F82EEE2488AD99ADDC01ED91FC9198
:100D50000684F785E02D4CE266ED0995A601DD0CD1
:100D6000660B770B488359836A837B83012E000CC3
:100D7000220B330B0C831D832E833F839701282B7B
:100D8000C901092E000CAA0BBB0B88879987AA877B
:100D9000BB87DF91CF911F910F91FF90EF90DF9074
:100DA000CF90BF90AF909F908F907F906F905F900B
:100DB0004F900895415051096109710910F00000E8
:100DC000F9CF0895CF92DF92EF92FF92CF93DF9306
:100DD000EC0179AF68AF1C861D861E861F86188AB7
:100DE000198A1A8A1B8A1C8A1D8A1E8A1F8A1CA2BB
:100DF0001DA21EA21FA218A619A61AA61BA61CA6F3
:100E00001DA61EA61FA6188E198E1A8E1B8E1C8E4E
:100E10001D8E1E8E1F8E18A219A21AA21BA240E1BF
:100E200057E260E070E00E94DA0618AA19AA1AAA2E
:100E30001BAA88AD99ADDC01ED91FC910684F78584
:100E4000E02D4FE066ED0995883641F481E090E0B1
:100E5000A0E0B0E088AB99ABAAABBBAB88AD99ADD5
:100E6000DC01ED91FC910084F185E02D28EA40E160
:100E700066ED099588AD99ADDC01ED91FC9100849A
:100E8000F185E02D28E34EE166ED099588AD99AD39
:100E9000DC01ED91FC910084F185E02D20E04EE233
:100EA00066ED099588AD99ADDC01ED91FC9100846A
:100EB000F185E02D20E042E166ED099588AD99AD20
:100EC000DC01ED91FC910084F185E02D20E640E20B
:100ED00066ED099588AD99ADDC01ED91FC9100843A
:100EE000F185E02D28E34FE166ED099540E157E2F9
:100EF00060E070E0CE010E94DA0660E0CE010E9460
:100F00004C051CAA1DAA1EAA1FAAE12CF12C61E007
:100F1000CE010E944C0548EE53E060E070E0CE0147
:100F20000E94DA06BFEFEB1AFB0A88ECE816F10420
:100F300071F76CA17DA18EA19FA128ECC22ED12CAE
:100F4000E12CF12CA70196010E94890A2CA33DA354
:100F50004EA35FA368A579A58AA59BA5A7019601C5
:100F60000E94890A28A739A74AA75BA76CA57DA577
:100F70008EA59FA5A70196010E94890A2CA73DA7CF
:100F80004EA75FA7188E198E1A8E1B8E1C8E1D8E73
:100F90001E8E1F8E18A219A21AA21BA218821982D5
:100FA0001A821B821C821D821E821F82188619864D
:100FB0001A861B86DF91CF91FF90EF90DF90CF9044
:100FC000089580E090E0FC0123E0EE0FFF1F2A95DA
:100FD000E1F7EF5FFE4F11821082138212821582B9
:100FE00014821682178201968830910561F710925B
:100FF000410110924201109243011092440183B7C3
:10100000886083BF8BE98CBF83E083BF89B7826030
:1010100089BF7894089580E090E0EFEFDC0133E041
:10102000AA0FBB1F3A95E1F7AF5FBE4F0D90BC9181
:10103000A02DAB2B09F4E82F01968830910571F7AC
:10104000EF3F71F088E0E802F0011124EF5FFE4FFE
:10105000718360835383428355834483168227833D
:101060000895F89488E0689FF0011124EF5FFE4F27
:101070008681882319F08681168201C080E07894E9
:1010800090E008957C01C0E088E0C89F80011124B1
:101090000F5F1E4FD80117968C91882379F06C2F23
:1010A000C7010E943108892B49F0F80180819181A4
:1010B000892B21F00190F081E02D0995CF5FC83098
:1010C00018F3E1CF1F920F920FB60F9211242F93B6
:1010D0003F934F935F936F937F938F939F93AF93C0
:1010E000BF93CF93DF93EF93FF93C0E0D0E0CE01A7
:1010F00023E0880F991F2A95E1F7FC01EF5FFE4F6F
:1011000024813581232B31F084819581019795834A
:10111000848318C0228133813583248326812F3F25
:1011200019F026812F5F2683FC01EF5FFE4F878138
:10113000811108C080819181892B21F00190F0817B
:10114000E02D09952196C830D10589F6809141019D
:1011500090914201A0914301B09144010196A11DDB
:10116000B11D8093410190934201A0934301B0933C
:101170004401FF91EF91DF91CF91BF91AF919F918A
:101180008F917F916F915F914F913F912F910F9030
:101190000FBE0F901F90189585E491E00C94E10725
:1011A0000F931F93CF93DF938C01EB01699166231B
:1011B00021F0C8010E947102F9CFDF91CF911F91F8
:1011C0000F9108958F929F92AF92BF92CF92DF922C
:1011D000EF92FF920F931F93CF93DF93CDB7DEB7BC
:1011E0002C970FB6F894DEBF0FBECDBF7C0177FF02
:1011F00009C070956095509541955F4F6F4F7F4F37
:1012000001E001C000E01C861AE09AE0892E912CD2
:10121000A12CB12CCC24C394D12CCC0EDD1EC10E3C
:10122000D11CCB01BA01A50194010E94890A942F17
:10123000852F605DF6016083A901692F782F8FEFFC
:10124000810F411551056105710511F0182FE2CF8D
:10125000002349F0E1E0F0E0EC0FFD1FE80FF11D85
:101260009DE29083182F61E070E06C0F7D1F610F8D
:10127000711DC7010E94D0082C960FB6F894DEBFEE
:101280000FBECDBFDF91CF911F910F91FF90EF90D7
:10129000DF90CF90BF90AF909F908F9008958F92E6
:1012A0009F92AF92BF92CF92DF92EF92FF921F93E5
:1012B000CF93DF93CDB7DEB72C970FB6F894DEBF90
:1012C0000FBECDBF6C011C861AE09AE0892E912CCE
:1012D000A12CB12CEE24E394F12CEC0EFD1EE10EBA
:1012E000F11CCB01BA01A50194010E94670A942F59
:1012F000852F605DF7016083A901692F782F115058
:10130000411551056105710529F7B701C6010E9414
:10131000D0082C960FB6F894DEBF0FBECDBFDF917C
:10132000CF911F91FF90EF90DF90CF90BF90AF9043
:101330009F908F900895EF92FF92CF93DF93CDB758
:10134000DEB72C970FB6F894DEBF0FBECDBFFC0101
:101350001C862AE0942F9F70E22EF12CA1E0B0E0D1
:10136000AC0FBD1FAE0DBF1D9A3014F4905D01C0CF
:10137000995A9C9384E076956795579547958A95F9
:10138000D1F72150411551056105710519F761E04B
:1013900070E06C0F7D1F6E0D7F1DCF010E94D00885
:1013A0002C960FB6F894DEBF0FBECDBFDF91CF9164
:1013B000FF90EF900895AF92BF92CF92DF92EF929D
:1013C000FF920F931F93CF93DF93CDB7DEB7ED84DA
:1013D000FE848E010F5E1F4FC12CD12CEF85F88942
:1013E000EC0DFD1D6081662309F45EC0653239F0A5
:1013F000C7010E9471028FEFC81AD80AEFCF81810E
:10140000893611F184F4853209F446C0833609F037
:1014100047C05801F2E0AF0EB11CF8016081C7016E
:101420000E9471022AC08537E1F0883741F1833785
:10143000B9F55801F2E0AF0EB11CF801608171817D
:10144000C7010E94D00819C0580194E0A90EB11C30
:10145000F8014081518162817381C7010E94E208D5
:101460000CC05801F4E0AF0EB11CF801408151816D
:1014700062817381C7010E944F09850111C0580123
:10148000F4E0AF0EB11CF80140815181628173819B
:10149000C7010E949B09F1CF65E2C7010E9471025A
:1014A000F2E0CF0ED11C9ACFDF91CF911F910F9117
:1014B000FF90EF90DF90CF90BF90AF90089586E4BB
:1014C00091E00C94660286E491E00C947002A1E233
:1014D0001A2EAA1BBB1BFD010DC0AA1FBB1FEE1FAE
:1014E000FF1FA217B307E407F50720F0A21BB30BF9
:1014F000E40BF50B661F771F881F991F1A9469F775
:1015000060957095809590959B01AC01BD01CF01D0
:101510000895052E97FB1EF400940E94A00A57FD23
:1015200007D00E94670A07FC03D04EF40C94A00A6F
:1015300050954095309521953F4F4F4F5F4F0895FF
:1015400090958095709561957F4F8F4F9F4F08952F
:10155000EE0FFF1F0590F491E02D09945058BB2722
:10156000AA270E94C60A0C94CE0B0E94C00B38F02A
:101570000E94C70B20F039F49F3F19F426F40C9415
:10158000BD0B0EF4E095E7FB0C94B70BE92F0E941E
:10159000DF0B58F3BA17620773078407950720F02B
:1015A00079F4A6F50C94010C0EF4E0950B2EBA2FED
:1015B000A02D0B01B90190010C01CA01A001112459
:1015C000FF27591B99F0593F50F4503E68F11A1605
:1015D000F040A22F232F342F4427585FF3CF469596
:1015E00037952795A795F0405395C9F77EF41F16B8
:1015F000BA0B620B730B840BBAF09150A1F0FF0F82
:10160000BB1F661F771F881FC2F70EC0BA0F621F6D
:10161000731F841F48F4879577956795B795F7955D
:101620009E3F08F0B0CF9395880F08F09927EE0FF2
:101630009795879508950E94930B08F481E008958B
:101640000E94270B6894B1110C94020C08950E941B
:10165000E70B88F09F5798F0B92F9927B751B0F052
:10166000E1F0660F771F881F991F1AF0BA95C9F726
:1016700014C0B13091F00E94010CB1E008950C94B7
:10168000010C672F782F8827B85F39F0B93FCCF36A
:10169000869577956795B395D9F73EF490958095A3
:1016A000709561957F4F8F4F9F4F0895E89409C0C3
:1016B00097FB3EF490958095709561957F4F8F4F85
:1016C0009F4F9923A9F0F92F96E9BB279395F6959B
:1016D000879577956795B795F111F8CFFAF4BB0F19
:1016E00011F460FF1BC06F5F7F4F8F4F9F4F16C07D
:1016F000882311F096E911C0772321F09EE8872F07
:10170000762F05C0662371F096E8862F70E060E0C2
:101710002AF09A95660F771F881FDAF7880F96953B
:10172000879597F90895990F0008550FAA0BE0E8DF
:10173000FEEF16161706E807F907C0F01216130693
:10174000E407F50798F0621B730B840B950B39F4D3
:101750000A2661F0232B242B252B21F408950A2639
:1017600009F4A140A6958FEF811D811D089597F979
:101770009F6780E870E060E008959FEF80EC089537
:1017800000240A9416161706180609060895002460
:101790000A9412161306140605060895092E0394DA
:1017A000000C11F4882352F0BB0F40F4BF2B11F44E
:1017B00060FF04C06F5F7F4F8F4F9F4F089557FDAD
:1017C0009058440F551F59F05F3F71F04795880FAF
:1017D00097FB991F61F09F3F79F087950895121646
:1017E00013061406551FF2CF4695F1DF08C01616F2
:1017F00017061806991FF1CF8695710561050894A3
:101800000895E894BB2766277727CB0197F90895B9
:101810000E94930B08F48FEF08950E94200C0C9403
:10182000CE0B0E94C00B38F00E94C70B20F095230E
:1018300011F00C94B70B0C94BD0B11240C94020CFA
:101840000E94DF0B70F3959FC1F3950F50E0551F79
:10185000629FF001729FBB27F00DB11D639FAA2705
:10186000F00DB11DAA1F649F6627B00DA11D661F54
:10187000829F2227B00DA11D621F739FB00DA11D75
:10188000621F839FA00D611D221F749F3327A00D2F
:10189000611D231F849F600D211D822F762F6A2FCB
:1018A00011249F5750409AF0F1F088234AF0EE0F30
:1018B000FF1FBB1F661F771F881F91505040A9F75D
:1018C0009E3F510580F00C94B70B0C94020C5F3FC7
:1018D000E4F3983ED4F3869577956795B795F79599
:1018E000E7959F5FC1F7FE2B880F911D9695879511
:1018F00097F9089510E0CFE2D0E004C0FE010E9405
:0E190000A80A2196C133D107C9F7F894FFCF8A
:10190E002569202569202569203A000A7465726DC3
:10191E00696E616C2072656164790A0A00000000CC
:10192E000021052F05EE04BA04BC02FB0246039704
:06193E0003E80348040069
:00000001FF
