:100000000C942E000C9456000C9456000C94560040
:100010000C9456000C9456000C9456000C94560008
:100020000C9456000C9456000C9456000C945600F8
:100030000C9456000C9456000C9456000C945600E8
:100040000C9456000C9456000C9456000C947008B6
:100050000C9456007105B408B808BC0811241FBEE2
:10006000CFE5D4E0DEBFCDBF10E0A0E6B0E0ECEC21
:10007000F8E102C005900D92AC3AB107D9F720E043
:10008000ACEAB0E001C01D92A23FB207E1F710E078
:10009000CDE2D0E004C02197FE010E945A09CA3285
:1000A000D107C9F70E94F1000C94590C0C94000080
:1000B0008F929F92AF92BF92CF92DF92EF92FF9278
:1000C000CF93DF93EC0160E003960E9482058F8D51
:1000D00098A1A9A1BAA19C01AD0166277727CB0100
:1000E000621B730B840B950B0E940A0A2DEC3CECEF
:1000F0004CEC5DE30E94BF0A9B01AC0160E070E044
:10010000CB010E946009AB01BC01CE01CD960E94DB
:100110001A026B017C019B01AC0160E070E0CB0135
:100120000E9460090E94D2094B015C0120E030E08E
:10013000A901C701B6010E9461090E94D209A40168
:10014000CE010296DF91CF91FF90EF90DF90CF909C
:10015000BF90AF909F908F900C94BA02CF93DF9393
:10016000EC0184E790E099838883CE01CD960E94CC
:10017000B001CE0103960E948105CE010296DF9167
:10018000CF910C94B902CF93DF93EC010E94AE00A3
:10019000CE01DF91CF910C947E05CF93DF93EC01DC
:1001A0008B819C81009781F00197C1F4DD986A856D
:1001B000CE0105960E94F3081C821B828A859B85CE
:1001C00001969B878A870AC0DD9A68E5CE0105966D
:1001D0000E94F30881E090E09C838B83DF91CF91B4
:1001E0000895CF93DF93CDB7DEB7C956D1090FB6C7
:1001F000F894DEBF0FBECDBF8AE690E0A0969FAF19
:100200008EAFA097D59A8EE590E08C0F9D1F059636
:100210000E94DB08A3961FAE1EAEA397AA961FAE40
:100220001EAEAA9748EC50E0BE01625A7F4F80EBA9
:1002300090E00E94310884E790E09A838983CE01A0
:1002400003960E94AD02CE0104960E948005CE0165
:10025000CE960E948A016CEA70E0CE0104960E945C
:100260001807812C912C2FE7A22E23E4B22EC12C4B
:10027000D12C76019701860140E050E060E87FE3F1
:10028000CE01CE960E94B101BB98C39ABA98C29A89
:10029000B39B07C0B29B05C080EB90E00E9453085F
:1002A000F7CFB39917C0812C912C8FE7A82E83E448
:1002B000B82EC12CD12C90EAE92E90E4F92E00E062
:1002C00010E0980140E050E060EC7FE3CE01CE9674
:1002D0000E94B1014AE050E0BE016F5F7F4F80EBAA
:1002E00090E00E94310880EB90E00E945308FBCF21
:1002F0002AE630E0FC013183208305960C94C00887
:10030000CF93DF93EC010E947801CE01DF91CF9172
:100310000C947E05FC0110821182128213821482D9
:10032000158216821782108611861286138614860D
:10033000158616861786108A118A128A138A148ADD
:10034000158A168A178A80E090E0A0E0B0E8808FD6
:10035000918FA28FB38F148E158E168E178E0895DF
:1003600008952F923F924F925F926F927F928F9259
:100370009F92AF92BF92CF92DF92EF92FF920F9334
:100380001F93CF93DF93CDB7DEB73C011A012B014A
:10039000FC01108211821282138284829582A682CD
:1003A000B7821086118612861386148615861686E5
:1003B0001786108A118A128A138AA9019801C2012C
:1003C000B1010E946109A70196010E946109F30130
:1003D000648B758B868B978B52014101B7FAB09471
:1003E000B7F8B094A7019601C701B6010E94610950
:1003F0009B01AC01C501B4010E946009F301608F4B
:10040000718F828F938FC48ED58EE68EF78EDF919B
:10041000CF911F910F91FF90EF90DF90CF90BF9001
:10042000AF909F908F907F906F905F904F903F9094
:100430002F9008954F925F926F927F928F929F922A
:10044000AF92BF92CF92DF92EF92FF92CF93DF9362
:10045000EC01CB01BA01CC84DD84EE84FF84C88A30
:10046000D98AEA8AFB8A88849984AA84BB848C8688
:100470009D86AE86BF86688779878A879B872C8909
:100480003D894E895F890E94BF0A2B013C01288D5E
:10049000398D4A8D5B8DC501B4010E94BF0A9B0155
:1004A000AC01C301B2010E9461094B015C012C8DBA
:1004B0003D8D4E8D5F8DC701B6010E94BF0A9B0125
:1004C000AC01C501B4010E946109288139814A81CA
:1004D0005B810E946109688379838A839B83CC80D6
:1004E000DD80EE80FF80A70196010E94BA0A1816EF
:1004F00024F4C882D982EA82FB82F7FAF094F7F8F2
:10050000F094A7019601688179818A819B810E947C
:10051000CD0987FF04C0C882D982EA82FB82688144
:1005200079818A819B81DF91CF91FF90EF90DF905D
:10053000CF90BF90AF909F908F907F906F905F9083
:100540004F90089510BC80E489B980B5866880BD5D
:100550008AB188618AB90895089580EF81BB959822
:1005600081EA8FBD81E08EBD1BBC1ABC19BC18BCD2
:10057000089508956F3F710509F03CF461308FEFE5
:1005800078072CF461E07FEF02C06FEF70E04F3F1F
:10059000510509F044F441308FEF58076CF0141600
:1005A00015061CF005C04FEF50E04ABD969A0BC0EF
:1005B0004115510539F002C041E05FEF41954ABD58
:1005C000969801C01ABC161617061CF468BD9798B9
:1005D00008956115710521F0619568BD979A089598
:1005E00018BC08950F931F93CF93DF9300D01F92F1
:1005F000CDB7DEB78C01DC01ED91FC910190F0816B
:10060000E02D2B834A8369830995D801ED91FC91F4
:100610000480F581E02D6981C8010995D801ED912B
:10062000FC910480F581E02D4A81642FC801099571
:10063000D801ED91FC910480F581E02D2B81622F92
:10064000C8010995D801ED91FC910280F381E02D5C
:10065000C8010F900F900F90DF91CF911F910F91D4
:1006600009940F931F93CF93DF9300D000D0CDB7A1
:10067000DEB78C01DC01ED91FC910190F081E02D61
:100680002C833B834A8369830995D801ED91FC91C2
:100690000480F581E02D6981C8010995D801ED91AB
:1006A000FC910480F581E02D4A81642FC8010995F1
:1006B000D801ED91FC910480F581E02D3B81632F01
:1006C000C8010995D801ED91FC910480F581E02DD8
:1006D0002C81622FC8010995D801ED91FC9102800F
:1006E000F381E02DC8010F900F900F900F90DF91D4
:1006F000CF911F910F910994CF92DF92EF92FF92C9
:100700000F931F93CF93DF9300D000D0CDB7DEB708
:100710006C01DC01ED91FC910190F081E02D2B83C7
:100720003C834A8369830995D601ED91FC9104804D
:10073000F581E02D6981C6010995D601ED91FC9105
:100740000480F581E02D4A81642FC60109952B8133
:10075000E22E3C81F32E0E0D1F1DD601ED91FC9172
:10076000E016F10649F0D7016D917D010480F58115
:10077000E02DC6010995F1CF0280F381E02DC6017D
:100780000F900F900F900F90DF91CF911F910F91CD
:10079000FF90EF90DF90CF900994EF92FF921F931C
:1007A000CF93DF931F92CDB7DEB77C01162FDC010C
:1007B000ED91FC910190F081E02D49830995D701DD
:1007C000ED91FC910480F581E02D612FC701099521
:1007D000D701ED91FC910480F581E02D4981642FD2
:1007E000C7010995D701ED91FC910190F081E02DB1
:1007F000C7010995D701ED91FC91612F61600480DB
:10080000F581E02DC7010995D701ED91FC91068096
:10081000F781E02D60E0C7010995182FD701ED9110
:10082000FC910280F381E02DC7010995812F0F9083
:10083000DF91CF911F91FF90EF900895EF92FF927B
:100840000F931F93CF93DF931F92CDB7DEB77C0139
:10085000162FDC01ED91FC910190F081E02D498390
:100860000995D701ED91FC910480F581E02D612F70
:10087000C7010995D701ED91FC910480F581E02D28
:100880004981642FC7010995D701ED91FC91019031
:10089000F081E02DC7010995D701ED91FC91612F01
:1008A00061600480F581E02DC7010995D701ED91C4
:1008B000FC910680F781E02D61E0C7010995082FC2
:1008C00010E0102F0027D701ED91FC910680F781F1
:1008D000E02D60E0C7010995082BD701ED91FC914F
:1008E0000280F381E02DC7010995C8010F90DF91C7
:1008F000CF911F910F91FF90EF900895CF92DF92CB
:10090000EF92FF920F931F93CF93DF9300D01F922C
:10091000CDB7DEB76C01F62EDC01ED91FC910190B4
:10092000F081E02D2A833B8349830995D601ED911F
:10093000FC910480F581E02D6F2DC6010995D6014B
:10094000ED91FC910480F581E02D4981642FC60171
:100950000995D601ED91FC910190F081E02DC60141
:100960000995D601ED91FC916F2D61600480F581B0
:10097000E02DC60109952A81E22E3B81F32E0E0D52
:100980001F1DD601ED91FC91E016F10651F0068095
:10099000F781E02D61E0C6010995F70181937F01A0
:1009A000F0CF0280F381E02DC6010F900F900F90E1
:1009B000DF91CF911F910F91FF90EF90DF90CF903B
:1009C0000994882321F0BF98823019F00895BF9AC6
:1009D0000895C79A08950000000008951F93CF93CB
:1009E000DF93162FBD9880E00E94E1040E94EB0483
:1009F000D8E0C0E0CC0F81E00E94E1040E94EB044B
:100A0000B599C16080E00E94E1040E94EB04D150DE
:100A100089F7112311F0BD9A01C0BD980E94EB0423
:100A200081E00E94E1040E94EB0480E00E94E10466
:100A30000E94EB04BD980E94EB048C2FDF91CF91B4
:100A40001F910895CF93DF93D62FC8E080E00E94D6
:100A5000E1040E94EB04D7FF02C0BD9801C0BD9A1B
:100A60000E94EB0481E00E94E1040E94EB04DD0F90
:100A7000C15061F780E00E94E1040E94EB04BD9840
:100A80000E94EB0481E00E94E1040E94EB04C6B3E3
:100A900080E00E94E1040E94EB04C5FBCC27C0F972
:100AA00081E08C27DF91CF91089581E00E94E104DD
:100AB000BD9881E00E94E104BD9A80E00E94E104BB
:100AC000BD980C94EB0480E00E94E104BD9A81E0A3
:100AD0000E94E104BD9A81E00E94E104BD980C945B
:100AE000EB048EE790E09093AD008093AC00BD984E
:100AF00081E00E94E104C598C79808950C94C10B49
:100B0000089508954F925F926F927F928F929F9275
:100B1000AF92BF92CF92DF92EF92FF920F931F930B
:100B2000CF93DF93EC01F62E88AD99ADDC01ED910A
:100B3000FC910684F785E02D4FE064ED0995883639
:100B400049F481E090E0A0E0B0E088AB99ABAAABBB
:100B5000BBAB04C018AA19AA1AAA1BAA88AD99ADE2
:100B6000DC01ED91FC910684F785E02D49E164ED0F
:100B70000995A82EB12CBA2CAA2488AD99ADDC0118
:100B8000ED91FC910684F785E02D48E164ED09952F
:100B9000A82A88AD99ADDC01ED91FC910684F7851A
:100BA000E02D4BE164ED0995082F10E0102F002790
:100BB00088AD99ADDC01ED91FC910684F785E02DBF
:100BC0004AE164ED0995082B88AD99ADDC01ED9102
:100BD000FC910684F785E02D4DE164ED0995C82E62
:100BE000D12CDC2CCC2488AD99ADDC01ED91FC91AD
:100BF0000684F785E02D4CE164ED0995C82AC5010E
:100C0000BB0CAA0BBB0B012E000C220B330B4601B5
:100C1000DD0CAA08BB08FF2021F1CCA0DDA0EEA0CE
:100C2000FFA0C80ED91EEA1EFB1ECCA2DDA2EEA2BA
:100C3000FFA2C8A4D9A4EAA4FBA4C00ED11EE21E40
:100C4000F31EC8A6D9A6EAA6FBA6CCA4DDA4EEA4F2
:100C5000FFA4C80CD91CEA1CFB1CCCA6DDA6EEA682
:100C6000FFA6CCA0DDA0EEA0FFA0BC01CD016C19B9
:100C70007D098E099F096C877D878E879F87C8A411
:100C8000D9A4EAA4FBA4280139014C185D086E0818
:100C90007F08488A598A6A8A7B8A0CA51DA52EA5D9
:100CA0003FA575016401C01AD10AE20AF30ACC8A91
:100CB000DD8AEE8AFF8A29E1822E912CA12CB12CAB
:100CC000A50194010E943B09888D998DAA8DBB8D49
:100CD000820F931FA41FB51F888F998FAA8FBB8F78
:100CE000C301B201A50194010E943B098C8D9D8D29
:100CF000AE8DBF8D820F931FA41FB51F8C8F9D8F4C
:100D0000AE8FBF8FC701B601A50194010E943B09B8
:100D100088A199A1AAA1BBA1820F931FA41FB51FEF
:100D200088A399A3AAA3BBA388AD99ADDC01ED91DB
:100D3000FC910684F785E02D49E264ED0995082FC2
:100D400010E0102F002788AD99ADDC01ED91FC91EA
:100D50000684F785E02D48E264ED09956801C82A0C
:100D600088AD99ADDC01ED91FC910684F785E02D0D
:100D70004BE264ED0995082F10E0102F002788AD95
:100D800099ADDC01ED91FC910684F785E02D4AE2F6
:100D900064ED0995082B88AD99ADDC01ED91FC91CE
:100DA0000684F785E02D4DE264ED099590E0F82E7C
:100DB000EE2488AD99ADDC01ED91FC910684F785B8
:100DC000E02D4CE264ED0995A601DD0C660B770B76
:100DD000488359836A837B83012E000C220B330BDB
:100DE0000C831D832E833F839701282BC901092E75
:100DF000000CAA0BBB0B88879987AA87BB87DF915A
:100E0000CF911F910F91FF90EF90DF90CF90BF9007
:100E1000AF909F908F907F906F905F904F900895CC
:100E2000415051096109710910F00000F9CF08958E
:100E3000CF92DF92EF92FF92CF93DF93EC0179AFE5
:100E400068AF1C861D861E861F86188A198A1A8A14
:100E50001B8A1C8A1D8A1E8A1F8A1CA21DA21EA212
:100E60001FA218A619A61AA61BA61CA61DA61EA67A
:100E70001FA6188E198E1A8E1B8E1C8E1D8E1E8E0E
:100E80001F8E18A219A21AA21BA240E157E260E02D
:100E900070E00E94100718AA19AA1AAA1BAA88AD06
:100EA00099ADDC01ED91FC910684F785E02D4FE0D2
:100EB00064ED0995883641F481E090E0A0E0B0E06F
:100EC00088AB99ABAAABBBAB88AD99ADDC01ED911A
:100ED000FC910084F185E02D28EA40E164ED09955C
:100EE00088AD99ADDC01ED91FC910084F185E02D98
:100EF00028E34EE164ED099588AD99ADDC01ED91F3
:100F0000FC910084F185E02D20E04EE264ED09952E
:100F100088AD99ADDC01ED91FC910084F185E02D67
:100F200020E042E164ED099588AD99ADDC01ED91D9
:100F3000FC910084F185E02D20E640E264ED099506
:100F400088AD99ADDC01ED91FC910084F185E02D37
:100F500028E34FE164ED099540E157E260E070E07D
:100F6000CE010E94100760E0CE010E9482051CAAFB
:100F70001DAA1EAA1FAAE12CF12C61E0CE010E943D
:100F8000820548EE53E060E070E0CE010E94100759
:100F9000BFEFEB1AFB0A88ECE816F10471F76CA1BD
:100FA0007DA18EA19FA128ECC22ED12CE12CF12C89
:100FB000A70196010E943B092CA33DA34EA35FA36A
:100FC00068A579A58AA59BA5A70196010E943B0962
:100FD00028A739A74AA75BA76CA57DA58EA59FA5C5
:100FE000A70196010E943B092CA73DA74EA75FA72A
:100FF000188E198E1A8E1B8E1C8E1D8E1E8E1F8EA5
:1010000018A219A21AA21BA2188219821A821B8284
:101010001C821D821E821F82188619861A861B86D4
:10102000DF91CF91FF90EF90DF90CF900895E1EBAB
:10103000F0E01182108213821282158214821682CD
:10104000379680E0E93EF807A1F783B7886083BF51
:101050008BE98CBF83E083BF89B7826089BF7894B6
:101060000895F894E1EBF0E080E090E02081318198
:10107000232B81F427E0289FF001299FF00D1124F4
:10108000EF54FF4F718360835383428355834483BE
:10109000168207C0019637968830910539F78FEF91
:1010A0009FEF78940895CF93DF93C7EBD0E0FE01D4
:1010B000369780819181009759F02881222341F051
:1010C0001882DC01ED91FC910480F581E02D0995F9
:1010D0002796B0E0CF3EDB0751F7DF91CF9108951F
:1010E0001F920F920FB60F9211248F939F93AF937D
:1010F000BF93EF93FF93E1EBF0E0A7EBB0E08481C7
:101100009581009721F001979583848309C082819E
:101110009381958384838C918F3F11F08F5F8C93A3
:101120003796179680E0E93EF80749F78091E90085
:101130009091EA00A091EB00B091EC000196A11D06
:10114000B11D8093E9009093EA00A093EB00B09367
:10115000EC00FF91EF91BF91AF919F918F910F9014
:101160000FBE0F901F90189580EB90E00C9417081D
:101170008DEE90E00C94A2028DEE90E00C94AC0207
:101180000895FC018281882319F0813051F008957F
:1011900088B3836088BB838185BBC09881E08283EC
:1011A000089588B3836088BB848185BBC19812820F
:1011B00008950C947E05FC0186EA90E0918380837B
:1011C00012828FEF8383848397B3936097BB98B326
:1011D000936098BB85BB84BB45E050E0BF0180EBCA
:1011E00090E00C943108DC01862F643608F083E629
:1011F0006AE00E940D09E82FF0E0EE56FF4F2081D3
:10120000209513962C931397E92FF0E0EE56FF4F9D
:101210009081909514969C930895991B79E004C051
:10122000991F961708F0961B881F7A95C9F7809525
:101230000895A1E21A2EAA1BBB1BFD010DC0AA1F17
:10124000BB1FEE1FFF1FA217B307E407F50720F02F
:10125000A21BB30BE40BF50B661F771F881F991FAA
:101260001A9469F760957095809590959B01AC01F3
:10127000BD01CF010895052E97FB1EF400940E9436
:10128000520957FD07D00E94190907FC03D04EF4FC
:101290000C94520950954095309521953F4F4F4FF2
:1012A0005F4F089590958095709561957F4F8F4F12
:1012B0009F4F0895EE0FFF1F0590F491E02D0994C4
:1012C0005058BB27AA270E9478090C94800A0E94D4
:1012D000720A38F00E94790A20F039F49F3F19F41D
:1012E00026F40C946F0A0EF4E095E7FB0C94690A5F
:1012F000E92F0E94910A58F3BA176207730784070F
:10130000950720F079F4A6F50C94B30A0EF4E09555
:101310000B2EBA2FA02D0B01B90190010C01CA01AF
:10132000A0011124FF27591B99F0593F50F4503E5A
:1013300068F11A16F040A22F232F342F4427585F4C
:10134000F3CF469537952795A795F0405395C9F764
:101350007EF41F16BA0B620B730B840BBAF091501C
:10136000A1F0FF0FBB1F661F771F881FC2F70EC0BB
:10137000BA0F621F731F841F48F48795779567958E
:10138000B795F7959E3F08F0B0CF9395880F08F07A
:101390009927EE0F9795879508950E94450A08F4BE
:1013A00081E008950E94D9096894B1110C94B40A9F
:1013B00008950E94990A88F09F5798F0B92F9927AD
:1013C000B751B0F0E1F0660F771F881F991F1AF030
:1013D000BA95C9F714C0B13091F00E94B30AB1E0D8
:1013E00008950C94B30A672F782F8827B85F39F0D7
:1013F000B93FCCF3869577956795B395D9F73EF4C9
:1014000090958095709561957F4F8F4F9F4F089570
:10141000E89409C097FB3EF490958095709561958E
:101420007F4F8F4F9F4F9923A9F0F92F96E9BB2744
:101430009395F695879577956795B795F111F8CFC0
:10144000FAF4BB0F11F460FF1BC06F5F7F4F8F4F2B
:101450009F4F16C0882311F096E911C0772321F021
:101460009EE8872F762F05C0662371F096E8862FB9
:1014700070E060E02AF09A95660F771F881FDAF710
:10148000880F9695879597F90895990F0008550F3D
:10149000AA0BE0E8FEEF16161706E807F907C0F0FA
:1014A00012161306E407F50798F0621B730B840B02
:1014B000950B39F40A2661F0232B242B252B21F4DC
:1014C00008950A2609F4A140A6958FEF811D811D7C
:1014D000089597F99F6780E870E060E008959FEFB6
:1014E00080EC089500240A941616170618060906BB
:1014F000089500240A94121613061406050608958A
:10150000092E0394000C11F4882352F0BB0F40F411
:10151000BF2B11F460FF04C06F5F7F4F8F4F9F4F51
:10152000089557FD9058440F551F59F05F3F71F0D3
:101530004795880F97FB991F61F09F3F79F087953A
:101540000895121613061406551FF2CF4695F1DFC3
:1015500008C0161617061806991FF1CF8695710553
:10156000610508940895E894BB2766277727CB0187
:1015700097F908950E94450A08F48FEF08950E9494
:10158000D20A0C94800A0E94720A38F00E94790AEA
:1015900020F0952311F00C94690A0C946F0A112421
:1015A0000C94B40A0E94910A70F3959FC1F3950FB1
:1015B00050E0551F629FF001729FBB27F00DB11DD7
:1015C000639FAA27F00DB11DAA1F649F6627B00D67
:1015D000A11D661F829F2227B00DA11D621F739F50
:1015E000B00DA11D621F839FA00D611D221F749F5E
:1015F0003327A00D611D231F849F600D211D822FA5
:10160000762F6A2F11249F5750409AF0F1F08823CB
:101610004AF0EE0FFF1FBB1F661F771F881F9150F8
:101620005040A9F79E3F510580F00C94690A0C9434
:10163000B40A5F3FE4F3983ED4F3869577956795B7
:10164000B795F795E7959F5FC1F7FE2B880F911D22
:101650009695879597F90895CF93DF9382309105FA
:1016600010F482E090E0E091F000F091F10020E0D1
:1016700030E0C0E0D0E0309711F14081518148174F
:101680005907C0F04817590761F482819381209768
:1016900019F09B838A832BC09093F1008093F00014
:1016A00026C02115310519F04217530718F49A0185
:1016B000BE01DF01EF010280F381E02DDCCF2115B7
:1016C000310509F1281B390B2430310590F41296AD
:1016D0008D919C9113976115710521F0FB01938306
:1016E000828304C09093F1008093F000FD01329654
:1016F00044C0FD01E20FF31F819391932250310901
:101700002D933C933AC02091EE003091EF00232BB3
:1017100041F420916200309163003093EF002093F8
:10172000EE0020916000309161002115310541F4F7
:101730002DB73EB74091640050916500241B350BD6
:10174000E091EE00F091EF00E217F307A0F42E1BFA
:101750003F0B2817390778F0AC014E5F5F4F241715
:10176000350748F04E0F5F1F5093EF004093EE0097
:101770008193919302C0E0E0F0E0CF01DF91CF913F
:1017800008950F931F93CF93DF93009709F48CC0B4
:10179000FC013297138212820091F0001091F10047
:1017A0000115110581F420813181820F931F209151
:1017B000EE003091EF002817390779F5F093EF002C
:1017C000E093EE0071C0D80140E050E0AE17BF07D3
:1017D00050F412962D913C911397AD0121153105CE
:1017E00009F1D901F3CF9D01DA01338322836081AE
:1017F0007181860F971F8217930769F4EC01288186
:101800003981260F371F2E5F3F4F318320838A8116
:101810009B8193838283452B29F4F093F100E0931D
:10182000F00042C01396FC93EE931297ED0149919C
:1018300059919E01240F351FE217F30771F480813F
:101840009181840F951F029611969C938E938281AD
:10185000938113969C938E931297E0E0F0E0D80169
:1018600012968D919C911397009719F0F8018C01B5
:10187000F6CF8D919C9198012E5F3F4F820F931F61
:101880002091EE003091EF002817390769F4309766
:1018900029F41092F1001092F00002C0138212821B
:1018A0001093EF000093EE00DF91CF911F910F9105
:1018B000089510E0CDE2D0E004C0FE010E945A0974
:0C18C0002196CE32D107C9F7F894FFCF73
:1018CC000000F20020000000000078018001CD0033
:1018DC0000000000AE00C3005800000000005505D9
:1018EC0063052205EE04F20231037C03CD031E04D2
:1018FC007E043F065B4F666D7D077F6F777C395E9C
:0C190C00797100000000C008D908C10873
:00000001FF
