:100000000C942E000C9456000C9456000C94560040
:100010000C9456000C9456000C9456000C94560008
:100020000C9456000C9456000C9456000C945600F8
:100030000C9456000C9456000C9456000C945600E8
:100040000C9456000C9456000C9456000C94DA0252
:100050000C9456001E037D088C08900811241FBEC6
:10006000CFE5D4E0DEBFCDBF10E0A0E6B0E0E2EC2B
:10007000F7E102C005900D92A239B107D9F720E04F
:10008000A2E9B0E001C01D92A83DB207E1F710E07F
:10009000CDE2D0E004C02197FE010E94D508CA320B
:1000A000D107C9F70E94FA010C94D40B0C940000FC
:1000B000FC01108211821282138214821582168230
:1000C0001782108611861286138614861586168668
:1000D0001786108A118A128A138A148A158A168A38
:1000E000178A80E090E0A0E0B0E8808F918FA28F27
:1000F000B38F148E158E168E178E089508952F9235
:100100003F924F925F926F927F928F929F92AF92A7
:10011000BF92CF92DF92EF92FF920F931F93CF93F4
:10012000DF93CDB7DEB73C011A012B01FC01108231
:1001300011821282138284829582A682B7821086EF
:100140001186128613861486158616861786108ADF
:10015000118A128A138AA9019801C201B1010E9471
:10016000DC08A70196010E94DC08F301648B758B03
:10017000868B978B52014101B7FAB094B7F8B094CF
:10018000A7019601C701B6010E94DC089B01AC01E2
:10019000C501B4010E94DB08F301608F718F828F6B
:1001A000938FC48ED58EE68EF78EDF91CF911F91FF
:1001B0000F91FF90EF90DF90CF90BF90AF909F9006
:1001C0008F907F906F905F904F903F902F90089509
:1001D0004F925F926F927F928F929F92AF92BF9257
:1001E000CF92DF92EF92FF92CF93DF93EC01CB019E
:1001F000BA01CC84DD84EE84FF84C88AD98AEA8A75
:10020000FB8A88849984AA84BB848C869D86AE866A
:10021000BF86688779878A879B872C893D894E8925
:100220005F890E943A0A2B013C01288D398D4A8D45
:100230005B8DC501B4010E943A0A9B01AC01C30168
:10024000B2010E94DC084B015C012C8D3D8D4E8D6E
:100250005F8DC701B6010E943A0A9B01AC01C5013E
:10026000B4010E94DC08288139814A815B810E94A7
:10027000DC08688379838A839B83CC80DD80EE8071
:10028000FF80A70196010E94350A181624F4C8823F
:10029000D982EA82FB82F7FAF094F7F8F094A7018A
:1002A0009601688179818A819B810E94480987FF34
:1002B00004C0C882D982EA82FB82688179818A81FE
:1002C0009B81DF91CF91FF90EF90DF90CF90BF9017
:1002D000AF909F908F907F906F905F904F90089518
:1002E00008950C948A088F929F92AF92BF92CF92FA
:1002F000DF92EF92FF92CF93DF93EC0160E00396E1
:100300000E9469038F8D98A1A9A1BAA19C01AD019A
:1003100066277727CB01621B730B840B950B0E941A
:1003200085092DEC3CEC4CEC5DE30E943A0A9B0104
:10033000AC0160E070E0CB010E94DB08AB01BC01C6
:10034000CE01CD960E94E8006B017C019B01AC01BF
:1003500060E070E0CB010E94DB080E944D094B0178
:100360005C0120E030E0A901C701B6010E94DC0871
:100370000E944D09A401CE010296DF91CF91FF901A
:10038000EF90DF90CF90BF90AF909F908F900C94A4
:100390002F03CF93DF93EC0184E790E09983888368
:1003A000CE01CD960E947E00CE0103960E94680386
:1003B000CE010296DF91CF910C942E03CF93DF9361
:1003C000EC010E94C901CE01DF91CF910C948A0803
:1003D000FC0183819481009719F0019739F0089509
:1003E000DD9A81E090E0948383830895DD98148200
:1003F00013820895CF93DF93CDB7DEB7C256D109EC
:100400000FB6F894DEBF0FBECDBF8AE690E0A0968F
:100410009FAF8EAFA097D59AA3961FAE1EAEA3979F
:1004200048EC50E0BE01625A7F4F82E990E00E94A2
:100430009B0284E790E09A838983CE0103960E9411
:100440002203CE0104960E946703CE01CE960E943D
:1004500058006FEC70E0CE0104960E94FF04812CDE
:10046000912C2FE7A22E23E4B22EC12CD12C7601A1
:100470009701860140E050E060E87FE3CE01CE9630
:100480000E947F00BB98C39ABA98C29AB39B07C0D8
:10049000B29B05C082E990E00E94BD02F7CFB399FC
:1004A00017C0812C912C8FE7A82E83E4B82EC12C85
:1004B000D12C90EAE92E90E4F92E00E010E09801AA
:1004C00040E050E060EC7FE3CE01CE960E947F00DA
:1004D0004AE050E0BE016F5F7F4F82E990E00E94EA
:1004E0009B0282E990E00E94BD02FBCF10BC80E439
:1004F00089B980B5866880BD8AB188618AB9089556
:100500000895E3E9F0E011821082138212821582CD
:1005100014821682379680E0EB3CF807A1F783B788
:10052000886083BF8BE98CBF83E083BF89B782601B
:1005300089BF78940895F894E3E9F0E080E090E0D2
:1005400020813181232B81F427E0289FF001299F0E
:10055000F00D1124ED56FF4F718360835383428366
:1005600055834483168207C00196379688309105DB
:1005700039F78FEF9FEF78940895CF93DF93C9E910
:10058000D0E0FE01369780819181009759F0288153
:10059000222341F01882DC01ED91FC910480F58169
:1005A000E02D09952796B0E0C13DDB0751F7DF91BB
:1005B000CF9108951F920F920FB60F9211248F932F
:1005C0009F93AF93BF93EF93FF93E3E9F0E0A9E923
:1005D000B0E084819581009721F001979583848311
:1005E00009C082819381958384838C918F3F11F020
:1005F0008F5F8C933796179680E0EB3CF80749F7AE
:100600008091CB009091CC00A091CD00B091CE0014
:100610000196A11DB11D8093CB009093CC00A093B7
:10062000CD00B093CE00FF91EF91BF91AF919F911C
:100630008F910F900FBE0F901F90189582E990E058
:100640000C94810280EF81BB959881EA8FBD81E097
:100650008EBD1BBC1ABC19BC18BC089508956F3F11
:10066000710509F03CF461308FEF78072CF461E0FC
:100670007FEF02C06FEF70E04F3F510509F044F487
:1006800041308FEF58076CF0141615061CF005C0AA
:100690004FEF50E04ABD969A0BC04115510539F015
:1006A00002C041E05FEF41954ABD969801C01ABC77
:1006B000161617061CF468BD979808956115710504
:1006C00021F0619568BD979A089518BC0895089522
:1006D00008954F925F926F927F928F929F92AF9206
:1006E000BF92CF92DF92EF92FF920F931F93CF931F
:1006F000DF93EC01F62E88AD99ADDC01ED91FC9114
:100700000684F785E02D4FE066ED0995883649F4BB
:1007100081E090E0A0E0B0E088AB99ABAAABBBABC6
:1007200004C018AA19AA1AAA1BAA88AD99ADDC019F
:10073000ED91FC910684F785E02D49E166ED099580
:10074000A82EB12CBA2CAA2488AD99ADDC01ED916C
:10075000FC910684F785E02D48E166ED0995A82A0D
:1007600088AD99ADDC01ED91FC910684F785E02D13
:100770004BE166ED0995082F10E0102F002788AD9A
:1007800099ADDC01ED91FC910684F785E02D4AE1FD
:1007900066ED0995082B88AD99ADDC01ED91FC91D2
:1007A0000684F785E02D4DE166ED0995C82ED12C24
:1007B000DC2CCC2488AD99ADDC01ED91FC91068454
:1007C000F785E02D4CE166ED0995C82AC501BB0C03
:1007D000AA0BBB0B012E000C220B330B4601DD0CC8
:1007E000AA08BB08FF2021F1CCA0DDA0EEA0FFA04D
:1007F000C80ED91EEA1EFB1ECCA2DDA2EEA2FFA2ED
:10080000C8A4D9A4EAA4FBA4C00ED11EE21EF31E04
:10081000C8A6D9A6EAA6FBA6CCA4DDA4EEA4FFA494
:10082000C80CD91CEA1CFB1CCCA6DDA6EEA6FFA6B4
:10083000CCA0DDA0EEA0FFA0BC01CD016C197D090C
:100840008E099F096C877D878E879F87C8A4D9A44E
:10085000EAA4FBA4280139014C185D086E087F0842
:10086000488A598A6A8A7B8A0CA51DA52EA53FA5B0
:1008700075016401C01AD10AE20AF30ACC8ADD8A42
:10088000EE8AFF8A29E1822E912CA12CB12CA501A0
:1008900094010E94B608888D998DAA8DBB8D820F18
:1008A000931FA41FB51F888F998FAA8FBB8FC30179
:1008B000B201A50194010E94B6088C8D9D8DAE8D6C
:1008C000BF8D820F931FA41FB51F8C8F9D8FAE8F7E
:1008D000BF8FC701B601A50194010E94B60888A187
:1008E00099A1AAA1BBA1820F931FA41FB51F88A322
:1008F00099A3AAA3BBA388AD99ADDC01ED91FC91AE
:100900000684F785E02D49E266ED0995082F10E091
:10091000102F002788AD99ADDC01ED91FC91068484
:10092000F785E02D48E266ED09956801C82A88AD93
:1009300099ADDC01ED91FC910684F785E02D4BE249
:1009400066ED0995082F10E0102F002788AD99ADAE
:10095000DC01ED91FC910684F785E02D4AE266ED1D
:100960000995082B88AD99ADDC01ED91FC910684C9
:10097000F785E02D4DE266ED099590E0F82EEE2426
:1009800088AD99ADDC01ED91FC910684F785E02DF1
:100990004CE266ED0995A601DD0C660B770B4883EA
:1009A00059836A837B83012E000C220B330B0C834B
:1009B0001D832E833F839701282BC901092E000C2C
:1009C000AA0BBB0B88879987AA87BB87DF91CF913A
:1009D0001F910F91FF90EF90DF90CF90BF90AF905D
:1009E0009F908F907F906F905F904F9008954150AF
:1009F00051096109710910F00000F9CF0895CF92F3
:100A0000DF92EF92FF92CF93DF93EC0179AF68AF63
:100A10001C861D861E861F86188A198A1A8A1B8ABA
:100A20001C8A1D8A1E8A1F8A1CA21DA21EA21FA22A
:100A300018A619A61AA61BA61CA61DA61EA61FA6AA
:100A4000188E198E1A8E1B8E1C8E1D8E1E8E1F8E5A
:100A500018A219A21AA21BA240E157E260E070E0BE
:100A60000E94F70418AA19AA1AAA1BAA88AD99AD60
:100A7000DC01ED91FC910684F785E02D4FE066EDF9
:100A80000995883641F481E090E0A0E0B0E088ABC1
:100A900099ABAAABBBAB88AD99ADDC01ED91FC91F4
:100AA0000084F185E02D28EA40E166ED099588ADE6
:100AB00099ADDC01ED91FC910084F185E02D28E3F6
:100AC0004EE166ED099588AD99ADDC01ED91FC91A3
:100AD0000084F185E02D20E04EE266ED099588ADB9
:100AE00099ADDC01ED91FC910084F185E02D20E0D1
:100AF00042E166ED099588AD99ADDC01ED91FC917F
:100B00000084F185E02D20E640E266ED099588AD90
:100B100099ADDC01ED91FC910084F185E02D28E395
:100B20004FE166ED099540E157E260E070E0CE01EB
:100B30000E94F70460E0CE010E9469031CAA1DAA6E
:100B40001EAA1FAAE12CF12C61E0CE010E946903CC
:100B500048EE53E060E070E0CE010E94F704BFEF82
:100B6000EB1AFB0A88ECE816F10471F76CA17DA181
:100B70008EA19FA128ECC22ED12CE12CF12CA70133
:100B800096010E94B6082CA33DA34EA35FA368A5BF
:100B900079A58AA59BA5A70196010E94B60828A75A
:100BA00039A74AA75BA76CA57DA58EA59FA5A70120
:100BB00096010E94B6082CA73DA74EA75FA7188EE6
:100BC000198E1A8E1B8E1C8E1D8E1E8E1F8E18A2C5
:100BD00019A21AA21BA2188219821A821B821C82D5
:100BE0001D821E821F82188619861A861B86DF9137
:100BF000CF91FF90EF90DF90CF9008950F931F93C8
:100C0000CF93DF9300D01F92CDB7DEB78C01DC010C
:100C1000ED91FC910190F081E02D2B834A83698353
:100C20000995D801ED91FC910480F581E02D698151
:100C3000C8010995D801ED91FC910480F581E02D62
:100C40004A81642FC8010995D801ED91FC91048077
:100C5000F581E02D2B81622FC8010995D801ED9116
:100C6000FC910280F381E02DC8010F900F900F904E
:100C7000DF91CF911F910F9109940F931F93CF9301
:100C8000DF9300D000D0CDB7DEB78C01DC01ED9151
:100C9000FC910190F081E02D2C833B834A83698392
:100CA0000995D801ED91FC910480F581E02D6981D1
:100CB000C8010995D801ED91FC910480F581E02DE2
:100CC0004A81642FC8010995D801ED91FC910480F7
:100CD000F581E02D3B81632FC8010995D801ED9185
:100CE000FC910480F581E02D2C81622FC8010995CB
:100CF000D801ED91FC910280F381E02DC8010F90A5
:100D00000F900F900F90DF91CF911F910F91099449
:100D1000CF92DF92EF92FF920F931F93CF93DF93C7
:100D200000D000D0CDB7DEB76C01DC01ED91FC91B5
:100D30000190F081E02D2B833C834A8369830995E0
:100D4000D601ED91FC910480F581E02D6981C60109
:100D50000995D601ED91FC910480F581E02D4A8141
:100D6000642FC60109952B81E22E3C81F32E0E0DD6
:100D70001F1DD601ED91FC91E016F10649F0D70157
:100D80006D917D010480F581E02DC6010995F1CFBB
:100D90000280F381E02DC6010F900F900F900F900D
:100DA000DF91CF911F910F91FF90EF90DF90CF9047
:100DB0000994EF92FF921F93CF93DF931F92CDB7C9
:100DC000DEB77C01162FDC01ED91FC910190F081E2
:100DD000E02D49830995D701ED91FC910480F581BF
:100DE000E02D612FC7010995D701ED91FC91048099
:100DF000F581E02D4981642FC7010995D701ED9157
:100E0000FC910190F081E02DC7010995D701ED918A
:100E1000FC91612F61600480F581E02DC701099587
:100E2000D701ED91FC910680F781E02D60E0C701CC
:100E30000995182FD701ED91FC910280F381E02DE7
:100E4000C7010995812F0F90DF91CF911F91FF90DE
:100E5000EF900895EF92FF920F931F93CF93DF933C
:100E60001F92CDB7DEB77C01162FDC01ED91FC910E
:100E70000190F081E02D49830995D701ED91FC9116
:100E80000480F581E02D612FC7010995D701ED910F
:100E9000FC910480F581E02D4981642FC7010995FB
:100EA000D701ED91FC910190F081E02DC7010995EA
:100EB000D701ED91FC91612F61600480F581E02DF7
:100EC000C7010995D701ED91FC910680F781E02DCE
:100ED00061E0C7010995082F10E0102F0027D70106
:100EE000ED91FC910680F781E02D60E0C701099546
:100EF000082BD701ED91FC910280F381E02DC70111
:100F00000995C8010F90DF91CF911F910F91FF902C
:100F1000EF900895CF92DF92EF92FF920F931F937D
:100F2000CF93DF9300D01F92CDB7DEB76C01F62EC2
:100F3000DC01ED91FC910190F081E02D2A833B834F
:100F400049830995D601ED91FC910480F581E02D4E
:100F50006F2DC6010995D601ED91FC910480F581B4
:100F6000E02D4981642FC6010995D601ED91FC91D0
:100F70000190F081E02DC6010995D601ED91FC911B
:100F80006F2D61600480F581E02DC60109952A81ED
:100F9000E22E3B81F32E0E0D1F1DD601ED91FC912B
:100FA000E016F10651F00680F781E02D61E0C60100
:100FB0000995F70181937F01F0CF0280F381E02D45
:100FC000C6010F900F900F90DF91CF911F910F915D
:100FD000FF90EF90DF90CF900994882321F0BF9885
:100FE000823019F00895BF9A0895C79A08950000B5
:100FF000000008951F93CF93DF93162FBD9880E0D4
:101000000E94ED070E94F707D8E0C0E0CC0F81E016
:101010000E94ED070E94F707B599C16080E00E9429
:10102000ED070E94F707D15089F7112311F0BD9AFF
:1010300001C0BD980E94F70781E00E94ED070E9461
:10104000F70780E00E94ED070E94F707BD980E9415
:10105000F7078C2FDF91CF911F910895CF93DF93E6
:10106000D62FC8E080E00E94ED070E94F707D7FF67
:1010700002C0BD9801C0BD9A0E94F70781E00E949E
:10108000ED070E94F707DD0FC15061F780E00E9475
:10109000ED070E94F707BD980E94F70781E00E94C4
:1010A000ED070E94F707C6B380E00E94ED070E949B
:1010B000F707C5FBCC27C0F981E08C27DF91CF91E2
:1010C000089581E00E94ED07BD9881E00E94ED0740
:1010D000BD9A80E00E94ED07BD980C94F70780E070
:1010E0000E94ED07BD9A81E00E94ED07BD9A81E064
:1010F0000E94ED07BD980C94F7078EE790E090935F
:10110000D0008093CF00BD9881E00E94ED07C59884
:10111000C79808950C943C0B83ED90E00C947602F4
:1011200083ED90E00C948002A1E21A2EAA1BBB1B57
:10113000FD010DC0AA1FBB1FEE1FFF1FA217B307A3
:10114000E407F50720F0A21BB30BE40BF50B661FB9
:10115000771F881F991F1A9469F76095709580957D
:1011600090959B01AC01BD01CF010895052E97FB21
:101170001EF400940E94CD0857FD07D00E949408E9
:1011800007FC03D04EF40C94CD0850954095309553
:1011900021953F4F4F4F5F4F0895909580957095E3
:1011A00061957F4F8F4F9F4F0895EE0FFF1F059062
:1011B000F491E02D09945058BB27AA270E94F30808
:1011C0000C94FB090E94ED0938F00E94F40920F00C
:1011D00039F49F3F19F426F40C94EA090EF4E095D3
:1011E000E7FB0C94E409E92F0E940C0A58F3BA17A4
:1011F000620773078407950720F079F4A6F50C942D
:101200002E0A0EF4E0950B2EBA2FA02D0B01B9017A
:1012100090010C01CA01A0011124FF27591B99F06C
:10122000593F50F4503E68F11A16F040A22F232F78
:10123000342F4427585FF3CF469537952795A795C8
:10124000F0405395C9F77EF41F16BA0B620B730B6F
:10125000840BBAF09150A1F0FF0FBB1F661F771FE0
:10126000881FC2F70EC0BA0F621F731F841F48F495
:10127000879577956795B795F7959E3F08F0B0CF1E
:101280009395880F08F09927EE0F97958795089505
:101290000E94C00908F481E008950E9454096894EE
:1012A000B1110C942F0A08950E94140A88F09F57D8
:1012B00098F0B92F9927B751B0F0E1F0660F771F7A
:1012C000881F991F1AF0BA95C9F714C0B13091F070
:1012D0000E942E0AB1E008950C942E0A672F782FF1
:1012E0008827B85F39F0B93FCCF386957795679535
:1012F000B395D9F73EF490958095709561957F4FA1
:101300008F4F9F4F0895E89409C097FB3EF4909546
:101310008095709561957F4F8F4F9F4F9923A9F0CE
:10132000F92F96E9BB279395F6958795779567955D
:10133000B795F111F8CFFAF4BB0F11F460FF1BC0A1
:101340006F5F7F4F8F4F9F4F16C0882311F096E934
:1013500011C0772321F09EE8872F762F05C06623E2
:1013600071F096E8862F70E060E02AF09A95660F9B
:10137000771F881FDAF7880F9695879597F9089554
:10138000990F0008550FAA0BE0E8FEEF1616170696
:10139000E807F907C0F012161306E407F50798F0FE
:1013A000621B730B840B950B39F40A2661F0232B17
:1013B000242B252B21F408950A2609F4A140A69593
:1013C0008FEF811D811D089597F99F6780E870E078
:1013D00060E008959FEF80EC089500240A941616AB
:1013E000170618060906089500240A941216130613
:1013F000140605060895092E0394000C11F48823A1
:1014000052F0BB0F40F4BF2B11F460FF04C06F5FBC
:101410007F4F8F4F9F4F089557FD9058440F551F92
:1014200059F05F3F71F04795880F97FB991F61F066
:101430009F3F79F087950895121613061406551FDD
:10144000F2CF4695F1DF08C0161617061806991F49
:10145000F1CF86957105610508940895E894BB273E
:1014600066277727CB0197F908950E94C00908F4F1
:101470008FEF08950E944D0A0C94FB090E94ED091C
:1014800038F00E94F40920F0952311F00C94E4093F
:101490000C94EA0911240C942F0A0E940C0A70F390
:1014A000959FC1F3950F50E0551F629FF001729F09
:1014B000BB27F00DB11D639FAA27F00DB11DAA1F18
:1014C000649F6627B00DA11D661F829F2227B00D65
:1014D000A11D621F739FB00DA11D621F839FA00DF0
:1014E000611D221F749F3327A00D611D231F849F40
:1014F000600D211D822F762F6A2F11249F57504097
:101500009AF0F1F088234AF0EE0FFF1FBB1F661F11
:10151000771F881F91505040A9F79E3F510580F0DA
:101520000C94E4090C942F0A5F3FE4F3983ED4F343
:10153000869577956795B795F795E7959F5FC1F77E
:10154000FE2B880F911D9695879597F90895CF9357
:10155000DF938230910510F482E090E0E091D600B4
:10156000F091D70020E030E0C0E0D0E0309711F1FA
:101570004081518148175907C0F04817590761F455
:1015800082819381209719F09B838A832BC090934B
:10159000D7008093D60026C02115310519F04217D7
:1015A000530718F49A01BE01DF01EF010280F381B5
:1015B000E02DDCCF2115310509F1281B390B243032
:1015C000310590F412968D919C91139761157105D8
:1015D00021F0FB019383828304C09093D700809312
:1015E000D600FD01329644C0FD01E20FF31F819346
:1015F0009193225031092D933C933AC02091D4000D
:101600003091D500232B41F420916200309163008A
:101610003093D5002093D400209160003091610078
:101620002115310541F42DB73EB74091640050912A
:101630006500241B350BE091D400F091D500E21732
:10164000F307A0F42E1B3F0B2817390778F0AC01E5
:101650004E5F5F4F2417350748F04E0F5F1F5093C2
:10166000D5004093D4008193919302C0E0E0F0E074
:10167000CF01DF91CF9108950F931F93CF93DF9305
:10168000009709F48CC0FC013297138212820091FA
:10169000D6001091D7000115110581F42081318108
:1016A000820F931F2091D4003091D500281739075D
:1016B00079F5F093D500E093D40071C0D80140E0F3
:1016C00050E0AE17BF0750F412962D913C9113973E
:1016D000AD012115310509F1D901F3CF9D01DA01E1
:1016E0003383228360817181860F971F821793074E
:1016F00069F4EC0128813981260F371F2E5F3F4F97
:10170000318320838A819B8193838283452B29F4B3
:10171000F093D700E093D60042C01396FC93EE936B
:101720001297ED01499159919E01240F351FE2173F
:10173000F30771F480819181840F951F02961196B1
:101740009C938E938281938113969C938E93129790
:10175000E0E0F0E0D80112968D919C9113970097EC
:1017600019F0F8018C01F6CF8D919C9198012E5FB4
:101770003F4F820F931F2091D4003091D50028173E
:10178000390769F4309729F41092D7001092D600E7
:1017900002C0138212821093D5000093D400DF910F
:1017A000CF911F910F91089510E0CDE2D0E004C0D9
:1017B000FE010E94D5082196CE32D107C9F7F894D0
:0217C000FFCF59
:1017C2000000D80020000000000070017101E80153
:1017D20000000000C901DE01730100000000610881
:1017E2006F082E08FA07FE053D068806D9062A0765
:0217F2008A0764
:00000001FF
