:100000000C942C000C9454000C9454000C94540048
:100010000C9454000C9454000C9454000C94540010
:100020000C9454000C9454000C9454000C94540000
:100030000C9454000C9454000C9454000C945400F0
:100040000C9454000C9454000C9454000C94C8016B
:100050000C9454002101320211241FBECFE5D4E0DC
:10006000DEBFCDBF20E0A6E6B0E001C01D92A13BFF
:10007000B207E1F710E0A0E6B0E0E6EDF6E002C07E
:1000800005900D92A636B107D9F710E0CCE2D0E08A
:1000900004C02197FE010E943602CA32D107C9F777
:1000A0000E9407010C9469030C94000080EF81BB4F
:1000B000959881EA8FBD82E08EBD1BBC1ABC19BC2D
:1000C00018BC08956F3F710509F03CF461308FEF63
:1000D00078072CF461E07FEF02C06FEF70E04F3FD4
:1000E000510509F044F441308FEF58076CF01416B5
:1000F00015061CF005C04FEF50E04ABD969A0BC0A4
:100100004115510539F002C041E05FEF41954ABD0C
:10011000969801C01ABC161617061CF468BD97986D
:1001200008956115710521F0619568BD979A08954C
:1001300018BC08958091660090916700009719F0AF
:10014000019749F00895DD9A81E090E0909367006F
:10015000809366000895DD98109267001092660003
:100160000895CF93DF93EC0140E050E068EC70E03D
:100170000E94620044EF51E060E070E08CEA90E0A1
:100180000E94940140E050E068E37FEFCE010E94BE
:10019000620044EF51E060E070E08CEA90E00E9481
:1001A000940148EC50E060E070E0CE010E946200F3
:1001B00044EF51E060E070E08CEA90E00E9494012E
:1001C00048E35FEF60E070E0CE010E94620044EF20
:1001D00051E060E070E08CEA90E00E94940148EC0D
:1001E00050E068EC70E0CE010E94620044EF51E004
:1001F00060E070E08CEA90E00E94940140E050E002
:1002000060E070E0CE01DF91CF910C946200BB986A
:10021000C39A20E048EC50E06AE970E08CEA90E094
:100220000E944F0181E090E00E942301EC010E94B6
:100230005600B39B02C00000FCCFCE010E94B1006B
:10024000F8CFD59A08950C943C0280E090E0FC0130
:1002500023E0EE0FFF1F2A95E1F7E859FF4F1182C7
:1002600010821382128215821482168217820196DE
:100270008830910561F71092A8001092A9001092A1
:10028000AA001092AB0083B7886083BF8BE98CBF54
:1002900083E083BF89B7826089BF7894089580E046
:1002A00090E0EFEFDC0133E0AA0FBB1F3A95E1F7D6
:1002B000A859BF4F0D90BC91A02DAB2B09F4E82F8E
:1002C00001968830910571F7EF3F71F088E0E80200
:1002D000F0011124E859FF4F7183608353834283F7
:1002E00055834483168227830895CF93DF9300D0EC
:1002F00000D0CDB7DEB7F8948091A8009091A90006
:10030000A091AA00B091AB0089839A83AB83BC8390
:10031000789469817A818B819C810F900F900F90E6
:100320000F90DF91CF910895CF92DF92EF92FF92DD
:100330000F931F93CF93DF9300D000D0CDB7DEB7DC
:100340008C016A017B010E947501C60ED71EE81E52
:10035000F91EC982DA82EB82FC82C8010E94750113
:10036000C980DA80EB80FC806C157D058E059F05C9
:1003700010F40000F2CF0F900F900F900F90DF91CC
:10038000CF911F910F91FF90EF90DF90CF90089544
:100390001F920F920FB60F9211242F933F934F93FA
:1003A0005F936F937F938F939F93AF93BF93CF93FD
:1003B000DF93EF93FF93C0E0D0E0CE0123E0880FFE
:1003C000991F2A95E1F7FC01E859FF4F24813581F7
:1003D000232B31F08481958101979583848318C004
:1003E000228133813583248326812F3F19F0268192
:1003F0002F5F2683FC01E859FF4F8781811108C0D8
:1004000080819181892B21F00190F081E02D099567
:100410002196C830D10589F68091A8009091A90055
:10042000A091AA00B091AB000196A11DB11D8093CF
:10043000A8009093A900A093AA00B093AB00FF91ED
:10044000EF91DF91CF91BF91AF919F918F917F916C
:100450006F915F914F913F912F910F900FBE0F9031
:100460001F9018958CEA90E00C942501EE0FFF1F69
:100470000590F491E02D0994CF93DF93823091059C
:1004800010F482E090E0E091AF00F091B00020E045
:1004900030E0C0E0D0E0309711F140815181481741
:1004A0005907C0F04817590761F48281938120975A
:1004B00019F09B838A832BC09093B0008093AF0088
:1004C00026C02115310519F04217530718F49A0177
:1004D000BE01DF01EF010280F381E02DDCCF2115A9
:1004E000310509F1281B390B2430310590F412969F
:1004F0008D919C9113976115710521F0FB019383F8
:10050000828304C09093B0008093AF00FD013296C7
:1005100044C0FD01E20FF31F8193919322503109F2
:100520002D933C933AC02091AD003091AE00232B27
:1005300041F420916200309163003093AE0020932B
:10054000AD0020916000309161002115310541F42A
:100550002DB73EB74091640050916500241B350BC8
:10056000E091AD00F091AE00E217F307A0F42E1B6E
:100570003F0B2817390778F0AC014E5F5F4F241707
:10058000350748F04E0F5F1F5093AE004093AD000B
:100590008193919302C0E0E0F0E0CF01DF91CF9131
:1005A00008950F931F93CF93DF93009709F48CC0A6
:1005B000FC013297138212820091AF001091B000BB
:1005C0000115110581F420813181820F931F209143
:1005D000AD003091AE002817390779F5F093AE00E1
:1005E000E093AD0071C0D80140E050E0AE17BF0706
:1005F00050F412962D913C911397AD0121153105C0
:1006000009F1D901F3CF9D01DA013383228360819F
:100610007181860F971F8217930769F4EC01288177
:100620003981260F371F2E5F3F4F318320838A8108
:100630009B8193838283452B29F4F093B000E09350
:10064000AF0042C01396FC93EE931297ED014991CF
:1006500059919E01240F351FE217F30771F4808131
:100660009181840F951F029611969C938E9382819F
:10067000938113969C938E931297E0E0F0E0D8015B
:1006800012968D919C911397009719F0F8018C01A7
:10069000F6CF8D919C9198012E5F3F4F820F931F53
:1006A0002091AD003091AE002817390769F43097DA
:1006B00029F41092B0001092AF0002C0138212828F
:1006C0001093AE000093AD00DF91CF911F910F9179
:0606D0000895F894FFCF2D
:0606D6000000B10020004D
:00000001FF
