:100000000C942B000C9448000C9448000C9448006D
:100010000C9448000C9448000C9448000C94480040
:100020000C9448000C9448000C9448000C94480030
:100030000C9448000C9448000C9448000C94480020
:100040000C9448000C9448000C9448000C94A201B5
:100050000C9448000C0211241FBECFE5D4E0DEBF93
:10006000CDBF20E0A0E6B0E001C01D92A53AB207E6
:10007000E1F710E0CBE2D0E004C02197FE010E943E
:100080001002CA32D107C9F70E948E000C941602E2
:100090000C94000080EF81BB959881EA8FBD82E0CF
:1000A0008EBD1BBC1ABC19BC18BC08956F3F7105EE
:1000B00009F03CF461308FEF78072CF461E07FEFBA
:1000C00002C06FEF70E04F3F510509F044F441303A
:1000D0008FEF58076CF0141615061CF005C04FEF93
:1000E00050E04ABD969A0BC04115510539F002C047
:1000F00041E05FEF41954ABD969801C01ABC1616C3
:1001000017061CF468BD979808956115710521F0D4
:10011000619568BD979A089518BC0895CF93DF93B1
:100120001F92CDB7DEB7CE0101960E944A0040E093
:1001300050E064E670E0CE0101960E94560044EF64
:1001400051E060E070E084EA90E00E946E0140E0DF
:1001500050E06CE97FEFCE0101960E94560044EF1B
:1001600051E060E070E084EA90E00E946E0144E6B5
:1001700050E060E070E0CE0101960E94560044EF2E
:1001800051E060E070E084EA90E00E946E014CE98A
:100190005FEF60E070E0CE0101960E94560044EFF0
:1001A00051E060E070E084EA90E00E946E0144E675
:1001B00050E064E670E0CE0101960E94560044EFE4
:1001C00051E060E070E084EA90E00E946E0140E05F
:1001D00050E060E070E0CE0101960E94560084EA93
:1001E00090E00E942F01FBCF80E090E0FC0123E033
:1001F000EE0FFF1F2A95E1F7E05AFF4F11821082A0
:100200001382128215821482168217820196883018
:10021000910561F71092A0001092A1001092A20027
:100220001092A30083B7886083BF8FEF8CBF83E0F9
:1002300083BF89B7826089BF78940895F89488E075
:10024000689FF0011124E05AFF4F8681882319F03E
:100250008681168201C080E0789490E008957C0148
:10026000C0E088E0C89F80011124005A1F4FD801C8
:1002700017968C91882379F06C2FC7010E941E017C
:10028000892B49F0F80180819181892B21F001901F
:10029000F081E02D0995CF5FC83018F3E1CFCF93FF
:1002A000DF9300D000D0CDB7DEB7F8948091A000E6
:1002B0009091A100A091A200B091A30089839A839C
:1002C000AB83BC83789469817A818B819C810F9008
:1002D0000F900F900F90DF91CF910895CF92DF9202
:1002E000EF92FF920F931F93CF93DF9300D000D034
:1002F000CDB7DEB78C016A017B010E944F01C60EAB
:10030000D71EE81EF91EC982DA82EB82FC82C80180
:100310000E944F01C980DA80EB80FC806C157D055E
:100320008E059F0510F40000F2CF0F900F900F90F4
:100330000F90DF91CF911F910F91FF90EF90DF9081
:10034000CF9008951F920F920FB60F9211242F9302
:100350003F934F935F936F937F938F939F93AF934D
:10036000BF93CF93DF93EF93FF93C0E0D0E0CE0134
:1003700023E0880F991F2A95E1F7FC01E05AFF4F0F
:1003800024813581232B31F08481958101979583D8
:10039000848318C0228133813583248326812F3FB3
:1003A00019F026812F5F2683FC01E05AFF4F8781D9
:1003B000811108C080819181892B21F00190F08109
:1003C000E02D09952196C830D10589F68091A000CD
:1003D0009091A100A091A200B091A3000196A11D4F
:1003E000B11D8093A0009093A100A093A200B093B0
:1003F000A300FF91EF91DF91CF91BF91AF919F91BA
:100400008F917F916F915F914F913F912F910F90BD
:100410000FBE0F901F90189584EA90E00C94F400A2
:10042000EE0FFF1F0590F491E02D0994F894FFCF93
:00000001FF
