:100000000C942E000C9456000C9456000C94560040
:100010000C9456000C9456000C9456000C94560008
:100020000C9456000C9456000C9456000C945600F8
:100030000C9456000C9456000C9456000C945600E8
:100040000C9456000C9456000C9456000C947904B1
:100050000C945600BC03BD04C104C50411241FBE8A
:10006000CFE5D4E0DEBFCDBF10E0A0E6B0E0E2E136
:10007000FCE002C005900D92A838B107D9F720E046
:10008000A8E8B0E001C01D92AE3CB207E1F710E075
:10009000CDE2D0E004C02197FE010E94C904CA321B
:1000A000D107C9F70E94C3000C94FC050C94000012
:1000B00008950C94CB03FC0183819481009719F07F
:1000C000019739F00895DD9A81E090E0948383836D
:1000D0000895DD98148213820895CF93DF93EC0185
:1000E00040E050E068EC70E00E94050144EF51E010
:1000F00060E070E08CE890E00E94450440E050E051
:1001000068E37FEFCE010E94050144EF51E060E01B
:1001100070E08CE890E00E94450448EC50E060E01C
:1001200070E0CE010E94050144EF51E060E070E014
:100130008CE890E00E94450448E35FEF60E070E0E7
:10014000CE010E94050144EF51E060E070E08CE8D0
:1001500090E00E94450448EC50E068EC70E0CE016D
:100160000E94050144EF51E060E070E08CE890E00F
:100170000E94450440E050E060E070E0CE01DF9175
:10018000CF910C940501CF93DF9300D000D01F9244
:10019000CDB7DEB78AE690E09A838983D59A1D822F
:1001A0001C82BB98C39A48EC50E0BE016F5F7F4F42
:1001B0008CE890E00E94E70381E090E00E94C90390
:1001C0008C010E94F900B39B05C08CE890E00E946E
:1001D0000904F9CFC8010E946D00F5CF10BC80E47E
:1001E00089B980B5866880BD8AB188618AB9089569
:1001F000089580EF81BB959881EA8FBD81E08EBD27
:100200001BBC1ABC19BC18BC08956F3F710509F0DE
:100210003CF461308FEF78072CF461E07FEF02C08F
:100220006FEF70E04F3F510509F044F441308FEF1C
:1002300058076CF0141615061CF005C04FEF50E07F
:100240004ABD969A0BC04115510539F002C041E0F4
:100250005FEF41954ABD969801C01ABC1616170665
:100260001CF468BD979808956115710521F061959A
:1002700068BD979A089518BC08950F931F93CF9364
:10028000DF9300D01F92CDB7DEB78C01DC01ED917A
:10029000FC910190F081E02D2B834A8369830995BD
:1002A000D801ED91FC910480F581E02D6981C801B0
:1002B0000995D801ED91FC910480F581E02D4A81EA
:1002C000642FC8010995D801ED91FC910480F58156
:1002D000E02D2B81622FC8010995D801ED91FC9189
:1002E0000280F381E02DC8010F900F900F90DF91F5
:1002F000CF911F910F9109940F931F93CF93DF9389
:1003000000D000D0CDB7DEB78C01DC01ED91FC91BF
:100310000190F081E02D2C833B834A83698309950A
:10032000D801ED91FC910480F581E02D6981C8012F
:100330000995D801ED91FC910480F581E02D4A8169
:10034000642FC8010995D801ED91FC910480F581D5
:10035000E02D3B81632FC8010995D801ED91FC91F7
:100360000480F581E02D2C81622FC8010995D80108
:10037000ED91FC910280F381E02DC8010F900F9068
:100380000F900F90DF91CF911F910F910994CF9211
:10039000DF92EF92FF920F931F93CF93DF9300D0E2
:1003A00000D0CDB7DEB76C01DC01ED91FC9101907E
:1003B000F081E02D2B833C834A8369830995D60124
:1003C000ED91FC910480F581E02D6981C6010995CC
:1003D000D601ED91FC910480F581E02D4A81642FD6
:1003E000C60109952B81E22E3C81F32E0E0D1F1DB7
:1003F000D601ED91FC91E016F10649F0D7016D911F
:100400007D010480F581E02DC6010995F1CF0280C0
:10041000F381E02DC6010F900F900F900F90DF91A8
:10042000CF911F910F91FF90EF90DF90CF900994A3
:10043000EF92FF921F93CF93DF931F92CDB7DEB75A
:100440007C01162FDC01ED91FC910190F081E02DF3
:1004500049830995D701ED91FC910480F581E02D48
:10046000612FC7010995D701ED91FC910480F581B9
:10047000E02D4981642FC7010995D701ED91FC91C9
:100480000190F081E02DC7010995D701ED91FC9114
:10049000612F61600480F581E02DC7010995D701C6
:1004A000ED91FC910680F781E02D60E0C701099590
:1004B000182FD701ED91FC910280F381E02DC70147
:1004C0000995812F0F90DF91CF911F91FF90EF90B1
:1004D0000895EF92FF920F931F93CF93DF931F9294
:1004E000CDB7DEB77C01162FDC01ED91FC910190B8
:1004F000F081E02D49830995D701ED91FC910480AD
:10050000F581E02D612FC7010995D701ED91FC918F
:100510000480F581E02D4981642FC7010995D70139
:10052000ED91FC910190F081E02DC7010995D70173
:10053000ED91FC91612F61600480F581E02DC70190
:100540000995D701ED91FC910680F781E02D61E0DE
:10055000C7010995082F10E0102F0027D701ED9152
:10056000FC910680F781E02D60E0C7010995082B1A
:10057000D701ED91FC910280F381E02DC70109952F
:10058000C8010F90DF91CF911F910F91FF90EF90D5
:100590000895CF92DF92EF92FF920F931F93CF9324
:1005A000DF9300D01F92CDB7DEB76C01F62EDC01D1
:1005B000ED91FC910190F081E02D2A833B834983EA
:1005C0000995D601ED91FC910480F581E02D6F2D08
:1005D000C6010995D601ED91FC910480F581E02DCD
:1005E0004981642FC6010995D601ED91FC910190D6
:1005F000F081E02DC6010995D601ED91FC916F2D9A
:1006000061600480F581E02DC60109952A81E22E02
:100610003B81F32E0E0D1F1DD601ED91FC91E016CE
:10062000F10651F00680F781E02D61E0C6010995E1
:10063000F70181937F01F0CF0280F381E02DC601A5
:100640000F900F900F90DF91CF911F910F91FF901E
:10065000EF90DF90CF900994882321F0BF988230EB
:1006600019F00895BF9A0895C79A089500000000F0
:1006700008951F93CF93DF93162FBD9880E00E94BB
:100680002C030E943603D8E0C0E0CC0F81E00E942A
:100690002C030E943603B599C16080E00E942C03B0
:1006A0000E943603D15089F7112311F0BD9A01C081
:1006B000BD980E94360381E00E942C030E943603FD
:1006C00080E00E942C030E943603BD980E943603EE
:1006D0008C2FDF91CF911F910895CF93DF93D62F69
:1006E000C8E080E00E942C030E943603D7FF02C0BE
:1006F000BD9801C0BD9A0E94360381E00E942C0380
:100700000E943603DD0FC15061F780E00E942C0388
:100710000E943603BD980E94360381E00E942C039C
:100720000E943603C6B380E00E942C030E94360369
:10073000C5FBCC27C0F981E08C27DF91CF910895CC
:1007400081E00E942C03BD9881E00E942C03BD9A99
:1007500080E00E942C03BD980C94360380E00E9438
:100760002C03BD9A81E00E942C03BD9A81E00E9477
:100770002C03BD980C94360384E790E09093890095
:1007800080938800BD9881E00E942C03C598C7988B
:1007900008950C94CF040C946405EDE8F0E0118208
:1007A000108213821282158214821682379680E09C
:1007B000E53CF807A1F783B7886083BF8BE98CBF5E
:1007C00083E083BF89B7826089BF78940895F894E5
:1007D000EDE8F0E080E090E020813181232B81F48E
:1007E00027E0289FF001299FF00D1124E357FF4FC8
:1007F000718360835383428355834483168207C089
:10080000019637968830910539F78FEF9FEF7894EE
:100810000895CF93DF93C3E9D0E0FE01369780813E
:100820009181009759F02881222341F01882DC0140
:10083000ED91FC910480F581E02D09952796B0E0BB
:10084000CB3CDB0751F7DF91CF910895CF93DF9336
:1008500000D000D0CDB7DEB7F8948091C50090915C
:10086000C600A091C700B091C80089839A83AB836A
:10087000BC83789469817A818B819C810F900F90E1
:100880000F900F90DF91CF910895CF92DF92EF926A
:10089000FF920F931F93CF93DF9300D000D0CDB77B
:1008A000DEB78C016A017B010E942604C60ED71EAA
:1008B000E81EF91EC982DA82EB82FC82C8010E941E
:1008C0002604C980DA80EB80FC806C157D058E05DE
:1008D0009F0510F40000F2CF0F900F900F900F9033
:1008E000DF91CF911F910F91FF90EF90DF90CF900C
:1008F00008951F920F920FB60F9211248F939F931A
:10090000AF93BF93EF93FF93EDE8F0E0A3E9B0E07E
:1009100084819581009721F001979583848309C094
:1009200082819381958384838C918F3F11F08F5FB7
:100930008C933796179680E0E53CF80749F780914D
:10094000C5009091C600A091C700B091C800019663
:10095000A11DB11D8093C5009093C600A093C70050
:10096000B093C800FF91EF91BF91AF919F918F918C
:100970000F900FBE0F901F9018958CE890E00C948C
:10098000CD0389EC90E00C94EE0089EC90E00C949F
:10099000F800EE0FFF1F0590F491E02D0994CF931E
:1009A000DF938230910510F482E090E0E091CC007A
:1009B000F091CD0020E030E0C0E0D0E0309711F1C0
:1009C0004081518148175907C0F04817590761F411
:1009D00082819381209719F09B838A832BC0909307
:1009E000CD008093CC0026C02115310519F04217A7
:1009F000530718F49A01BE01DF01EF010280F38171
:100A0000E02DDCCF2115310509F1281B390B2430ED
:100A1000310590F412968D919C9113976115710593
:100A200021F0FB019383828304C09093CD008093D7
:100A3000CC00FD01329644C0FD01E20FF31F81930B
:100A40009193225031092D933C933AC02091CA00D2
:100A50003091CB00232B41F4209162003091630050
:100A60003093CB002093CA00209160003091610048
:100A70002115310541F42DB73EB7409164005091E6
:100A80006500241B350BE091CA00F091CB00E21702
:100A9000F307A0F42E1B3F0B2817390778F0AC01A1
:100AA0004E5F5F4F2417350748F04E0F5F1F50937E
:100AB000CB004093CA008193919302C0E0E0F0E044
:100AC000CF01DF91CF9108950F931F93CF93DF93C1
:100AD000009709F48CC0FC013297138212820091B6
:100AE000CC001091CD000115110581F420813181D8
:100AF000820F931F2091CA003091CB00281739072D
:100B000079F5F093CB00E093CA0071C0D80140E0C2
:100B100050E0AE17BF0750F412962D913C911397F9
:100B2000AD012115310509F1D901F3CF9D01DA019C
:100B30003383228360817181860F971F8217930709
:100B400069F4EC0128813981260F371F2E5F3F4F52
:100B5000318320838A819B8193838283452B29F46F
:100B6000F093CD00E093CC0042C01396FC93EE933B
:100B70001297ED01499159919E01240F351FE217FB
:100B8000F30771F480819181840F951F029611966D
:100B90009C938E938281938113969C938E9312974C
:100BA000E0E0F0E0D80112968D919C9113970097A8
:100BB00019F0F8018C01F6CF8D919C9198012E5F70
:100BC0003F4F820F931F2091CA003091CB0028170E
:100BD000390769F4309729F41092CD001092CC00B7
:100BE00002C0138212821093CB000093CA00DF91DF
:100BF000CF911F910F91089510E0CDE2D0E004C095
:100C0000FE010E94C9042196CE32D107C9F7F8949B
:020C1000FFCF14
:100C12000000CE00200000000000580059005B00D8
:100C220000000000A003AE036D0339033D017C0107
:080C3200C70118026902C902A2
:00000001FF
